{
	"src/NFTmarket.sol": {
		"NFTmarket": {
			"abi": [
				{
					"inputs": [
						{
							"internalType": "address",
							"name": "_erc20",
							"type": "address"
						},
						{
							"internalType": "address",
							"name": "_erc721",
							"type": "address"
						}
					],
					"stateMutability": "nonpayable",
					"type": "constructor"
				},
				{
					"anonymous": false,
					"inputs": [
						{
							"indexed": false,
							"internalType": "address",
							"name": "seller",
							"type": "address"
						},
						{
							"indexed": false,
							"internalType": "uint256",
							"name": "tokenID",
							"type": "uint256"
						}
					],
					"name": "CancelOrder",
					"type": "event"
				},
				{
					"anonymous": false,
					"inputs": [
						{
							"indexed": false,
							"internalType": "address",
							"name": "seller",
							"type": "address"
						},
						{
							"indexed": false,
							"internalType": "address",
							"name": "buyer",
							"type": "address"
						},
						{
							"indexed": false,
							"internalType": "uint256",
							"name": "tokenID",
							"type": "uint256"
						},
						{
							"indexed": false,
							"internalType": "uint256",
							"name": "price",
							"type": "uint256"
						}
					],
					"name": "Deal",
					"type": "event"
				},
				{
					"anonymous": false,
					"inputs": [
						{
							"indexed": false,
							"internalType": "address",
							"name": "seller",
							"type": "address"
						},
						{
							"indexed": false,
							"internalType": "uint256",
							"name": "tokenID",
							"type": "uint256"
						},
						{
							"indexed": false,
							"internalType": "uint256",
							"name": "price",
							"type": "uint256"
						}
					],
					"name": "NewOrder",
					"type": "event"
				},
				{
					"anonymous": false,
					"inputs": [
						{
							"indexed": false,
							"internalType": "address",
							"name": "seller",
							"type": "address"
						},
						{
							"indexed": false,
							"internalType": "uint256",
							"name": "tokenID",
							"type": "uint256"
						},
						{
							"indexed": false,
							"internalType": "uint256",
							"name": "previousprice",
							"type": "uint256"
						},
						{
							"indexed": false,
							"internalType": "uint256",
							"name": "newprice",
							"type": "uint256"
						}
					],
					"name": "PriceChanged",
					"type": "event"
				},
				{
					"inputs": [
						{
							"internalType": "uint256",
							"name": "_tokenID",
							"type": "uint256"
						}
					],
					"name": "buy",
					"outputs": [],
					"stateMutability": "nonpayable",
					"type": "function"
				},
				{
					"inputs": [
						{
							"internalType": "uint256",
							"name": "_tokenID",
							"type": "uint256"
						}
					],
					"name": "cancel",
					"outputs": [],
					"stateMutability": "nonpayable",
					"type": "function"
				},
				{
					"inputs": [
						{
							"internalType": "uint256",
							"name": "_tokenID",
							"type": "uint256"
						},
						{
							"internalType": "uint256",
							"name": "_price",
							"type": "uint256"
						}
					],
					"name": "change",
					"outputs": [],
					"stateMutability": "nonpayable",
					"type": "function"
				},
				{
					"inputs": [],
					"name": "erc20",
					"outputs": [
						{
							"internalType": "contract IERC20",
							"name": "",
							"type": "address"
						}
					],
					"stateMutability": "view",
					"type": "function"
				},
				{
					"inputs": [],
					"name": "erc721",
					"outputs": [
						{
							"internalType": "contract IERC721",
							"name": "",
							"type": "address"
						}
					],
					"stateMutability": "view",
					"type": "function"
				},
				{
					"inputs": [],
					"name": "getAllNFTs",
					"outputs": [
						{
							"components": [
								{
									"internalType": "address",
									"name": "seller",
									"type": "address"
								},
								{
									"internalType": "uint256",
									"name": "tokenID",
									"type": "uint256"
								},
								{
									"internalType": "uint256",
									"name": "price",
									"type": "uint256"
								}
							],
							"internalType": "struct NFTmarket.Order[]",
							"name": "",
							"type": "tuple[]"
						}
					],
					"stateMutability": "view",
					"type": "function"
				},
				{
					"inputs": [],
					"name": "getMyNFTs",
					"outputs": [
						{
							"components": [
								{
									"internalType": "address",
									"name": "seller",
									"type": "address"
								},
								{
									"internalType": "uint256",
									"name": "tokenID",
									"type": "uint256"
								},
								{
									"internalType": "uint256",
									"name": "price",
									"type": "uint256"
								}
							],
							"internalType": "struct NFTmarket.Order[]",
							"name": "",
							"type": "tuple[]"
						}
					],
					"stateMutability": "view",
					"type": "function"
				},
				{
					"inputs": [],
					"name": "getOrderLength",
					"outputs": [
						{
							"internalType": "uint256",
							"name": "",
							"type": "uint256"
						}
					],
					"stateMutability": "view",
					"type": "function"
				},
				{
					"inputs": [
						{
							"internalType": "uint256",
							"name": "_tokenID",
							"type": "uint256"
						}
					],
					"name": "isListed",
					"outputs": [
						{
							"internalType": "bool",
							"name": "",
							"type": "bool"
						}
					],
					"stateMutability": "view",
					"type": "function"
				},
				{
					"inputs": [
						{
							"internalType": "address",
							"name": "operator",
							"type": "address"
						},
						{
							"internalType": "address",
							"name": "from",
							"type": "address"
						},
						{
							"internalType": "uint256",
							"name": "tokenID",
							"type": "uint256"
						},
						{
							"internalType": "bytes",
							"name": "data",
							"type": "bytes"
						}
					],
					"name": "onERC721Received",
					"outputs": [
						{
							"internalType": "bytes4",
							"name": "",
							"type": "bytes4"
						}
					],
					"stateMutability": "nonpayable",
					"type": "function"
				},
				{
					"inputs": [
						{
							"internalType": "uint256",
							"name": "",
							"type": "uint256"
						}
					],
					"name": "orders",
					"outputs": [
						{
							"internalType": "address",
							"name": "seller",
							"type": "address"
						},
						{
							"internalType": "uint256",
							"name": "tokenID",
							"type": "uint256"
						},
						{
							"internalType": "uint256",
							"name": "price",
							"type": "uint256"
						}
					],
					"stateMutability": "view",
					"type": "function"
				},
				{
					"inputs": [
						{
							"internalType": "bytes",
							"name": "_bytes",
							"type": "bytes"
						},
						{
							"internalType": "uint256",
							"name": "_start",
							"type": "uint256"
						}
					],
					"name": "toUint256",
					"outputs": [
						{
							"internalType": "uint256",
							"name": "",
							"type": "uint256"
						}
					],
					"stateMutability": "pure",
					"type": "function"
				}
			],
			"devdoc": {
				"kind": "dev",
				"methods": {},
				"version": 1
			},
			"evm": {
				"assembly": "    /* \"src/NFTmarket.sol\":179:4408  contract NFTmarket {... */\n  mstore(0x40, 0x80)\n    /* \"src/NFTmarket.sol\":879:1113  constructor(address _erc20, address _erc721){... */\n  callvalue\n  dup1\n  iszero\n  tag_1\n  jumpi\n  0x00\n  dup1\n  revert\ntag_1:\n  pop\n  mload(0x40)\n  sub(codesize, bytecodeSize)\n  dup1\n  bytecodeSize\n  dup4\n  codecopy\n  dup2\n  dup2\n  add\n  0x40\n  mstore\n  dup2\n  add\n  swap1\n  tag_2\n  swap2\n  swap1\n  tag_3\n  jump\t// in\ntag_2:\n    /* \"src/NFTmarket.sol\":960:961  0 */\n  0x00\n    /* \"src/NFTmarket.sol\":942:962  _erc20 != address(0) */\n  0xffffffffffffffffffffffffffffffffffffffff\n  and\n    /* \"src/NFTmarket.sol\":942:948  _erc20 */\n  dup3\n    /* \"src/NFTmarket.sol\":942:962  _erc20 != address(0) */\n  0xffffffffffffffffffffffffffffffffffffffff\n  and\n  sub\n    /* \"src/NFTmarket.sol\":934:979  require(_erc20 != address(0), \"zero address\") */\n  tag_6\n  jumpi\n  mload(0x40)\n  0x08c379a000000000000000000000000000000000000000000000000000000000\n  dup2\n  mstore\n  0x04\n  add\n  tag_7\n  swap1\n  tag_8\n  jump\t// in\ntag_7:\n  mload(0x40)\n  dup1\n  swap2\n  sub\n  swap1\n  revert\ntag_6:\n    /* \"src/NFTmarket.sol\":1017:1018  0 */\n  0x00\n    /* \"src/NFTmarket.sol\":998:1019  _erc721 != address(0) */\n  0xffffffffffffffffffffffffffffffffffffffff\n  and\n    /* \"src/NFTmarket.sol\":998:1005  _erc721 */\n  dup2\n    /* \"src/NFTmarket.sol\":998:1019  _erc721 != address(0) */\n  0xffffffffffffffffffffffffffffffffffffffff\n  and\n  sub\n    /* \"src/NFTmarket.sol\":990:1036  require(_erc721 != address(0), \"zero address\") */\n  tag_9\n  jumpi\n  mload(0x40)\n  0x08c379a000000000000000000000000000000000000000000000000000000000\n  dup2\n  mstore\n  0x04\n  add\n  tag_10\n  swap1\n  tag_8\n  jump\t// in\ntag_10:\n  mload(0x40)\n  dup1\n  swap2\n  sub\n  swap1\n  revert\ntag_9:\n    /* \"src/NFTmarket.sol\":1062:1068  _erc20 */\n  dup2\n    /* \"src/NFTmarket.sol\":1047:1052  erc20 */\n  0x00\n  dup1\n    /* \"src/NFTmarket.sol\":1047:1069  erc20 = IERC20(_erc20) */\n  0x0100\n  exp\n  dup2\n  sload\n  dup2\n  0xffffffffffffffffffffffffffffffffffffffff\n  mul\n  not\n  and\n  swap1\n  dup4\n  0xffffffffffffffffffffffffffffffffffffffff\n  and\n  mul\n  or\n  swap1\n  sstore\n  pop\n    /* \"src/NFTmarket.sol\":1097:1104  _erc721 */\n  dup1\n    /* \"src/NFTmarket.sol\":1080:1086  erc721 */\n  0x01\n  0x00\n    /* \"src/NFTmarket.sol\":1080:1105  erc721 = IERC721(_erc721) */\n  0x0100\n  exp\n  dup2\n  sload\n  dup2\n  0xffffffffffffffffffffffffffffffffffffffff\n  mul\n  not\n  and\n  swap1\n  dup4\n  0xffffffffffffffffffffffffffffffffffffffff\n  and\n  mul\n  or\n  swap1\n  sstore\n  pop\n    /* \"src/NFTmarket.sol\":879:1113  constructor(address _erc20, address _erc721){... */\n  pop\n  pop\n    /* \"src/NFTmarket.sol\":179:4408  contract NFTmarket {... */\n  jump(tag_11)\n    /* \"#utility.yul\":88:205   */\ntag_13:\n    /* \"#utility.yul\":197:198   */\n  0x00\n    /* \"#utility.yul\":194:195   */\n  dup1\n    /* \"#utility.yul\":187:199   */\n  revert\n    /* \"#utility.yul\":334:460   */\ntag_15:\n    /* \"#utility.yul\":371:378   */\n  0x00\n    /* \"#utility.yul\":411:453   */\n  0xffffffffffffffffffffffffffffffffffffffff\n    /* \"#utility.yul\":404:409   */\n  dup3\n    /* \"#utility.yul\":400:454   */\n  and\n    /* \"#utility.yul\":389:454   */\n  swap1\n  pop\n    /* \"#utility.yul\":334:460   */\n  swap2\n  swap1\n  pop\n  jump\t// out\n    /* \"#utility.yul\":466:562   */\ntag_16:\n    /* \"#utility.yul\":503:510   */\n  0x00\n    /* \"#utility.yul\":532:556   */\n  tag_28\n    /* \"#utility.yul\":550:555   */\n  dup3\n    /* \"#utility.yul\":532:556   */\n  tag_15\n  jump\t// in\ntag_28:\n    /* \"#utility.yul\":521:556   */\n  swap1\n  pop\n    /* \"#utility.yul\":466:562   */\n  swap2\n  swap1\n  pop\n  jump\t// out\n    /* \"#utility.yul\":568:690   */\ntag_17:\n    /* \"#utility.yul\":641:665   */\n  tag_30\n    /* \"#utility.yul\":659:664   */\n  dup2\n    /* \"#utility.yul\":641:665   */\n  tag_16\n  jump\t// in\ntag_30:\n    /* \"#utility.yul\":634:639   */\n  dup2\n    /* \"#utility.yul\":631:666   */\n  eq\n    /* \"#utility.yul\":621:684   */\n  tag_31\n  jumpi\n    /* \"#utility.yul\":680:681   */\n  0x00\n    /* \"#utility.yul\":677:678   */\n  dup1\n    /* \"#utility.yul\":670:682   */\n  revert\n    /* \"#utility.yul\":621:684   */\ntag_31:\n    /* \"#utility.yul\":568:690   */\n  pop\n  jump\t// out\n    /* \"#utility.yul\":696:839   */\ntag_18:\n    /* \"#utility.yul\":753:758   */\n  0x00\n    /* \"#utility.yul\":784:790   */\n  dup2\n    /* \"#utility.yul\":778:791   */\n  mload\n    /* \"#utility.yul\":769:791   */\n  swap1\n  pop\n    /* \"#utility.yul\":800:833   */\n  tag_33\n    /* \"#utility.yul\":827:832   */\n  dup2\n    /* \"#utility.yul\":800:833   */\n  tag_17\n  jump\t// in\ntag_33:\n    /* \"#utility.yul\":696:839   */\n  swap3\n  swap2\n  pop\n  pop\n  jump\t// out\n    /* \"#utility.yul\":845:1352   */\ntag_3:\n    /* \"#utility.yul\":924:930   */\n  0x00\n    /* \"#utility.yul\":932:938   */\n  dup1\n    /* \"#utility.yul\":981:983   */\n  0x40\n    /* \"#utility.yul\":969:978   */\n  dup4\n    /* \"#utility.yul\":960:967   */\n  dup6\n    /* \"#utility.yul\":956:979   */\n  sub\n    /* \"#utility.yul\":952:984   */\n  slt\n    /* \"#utility.yul\":949:1068   */\n  iszero\n  tag_35\n  jumpi\n    /* \"#utility.yul\":987:1066   */\n  tag_36\n  tag_13\n  jump\t// in\ntag_36:\n    /* \"#utility.yul\":949:1068   */\ntag_35:\n    /* \"#utility.yul\":1107:1108   */\n  0x00\n    /* \"#utility.yul\":1132:1196   */\n  tag_37\n    /* \"#utility.yul\":1188:1195   */\n  dup6\n    /* \"#utility.yul\":1179:1185   */\n  dup3\n    /* \"#utility.yul\":1168:1177   */\n  dup7\n    /* \"#utility.yul\":1164:1186   */\n  add\n    /* \"#utility.yul\":1132:1196   */\n  tag_18\n  jump\t// in\ntag_37:\n    /* \"#utility.yul\":1122:1196   */\n  swap3\n  pop\n    /* \"#utility.yul\":1078:1206   */\n  pop\n    /* \"#utility.yul\":1245:1247   */\n  0x20\n    /* \"#utility.yul\":1271:1335   */\n  tag_38\n    /* \"#utility.yul\":1327:1334   */\n  dup6\n    /* \"#utility.yul\":1318:1324   */\n  dup3\n    /* \"#utility.yul\":1307:1316   */\n  dup7\n    /* \"#utility.yul\":1303:1325   */\n  add\n    /* \"#utility.yul\":1271:1335   */\n  tag_18\n  jump\t// in\ntag_38:\n    /* \"#utility.yul\":1261:1335   */\n  swap2\n  pop\n    /* \"#utility.yul\":1216:1345   */\n  pop\n    /* \"#utility.yul\":845:1352   */\n  swap3\n  pop\n  swap3\n  swap1\n  pop\n  jump\t// out\n    /* \"#utility.yul\":1358:1527   */\ntag_19:\n    /* \"#utility.yul\":1442:1453   */\n  0x00\n    /* \"#utility.yul\":1476:1482   */\n  dup3\n    /* \"#utility.yul\":1471:1474   */\n  dup3\n    /* \"#utility.yul\":1464:1483   */\n  mstore\n    /* \"#utility.yul\":1516:1520   */\n  0x20\n    /* \"#utility.yul\":1511:1514   */\n  dup3\n    /* \"#utility.yul\":1507:1521   */\n  add\n    /* \"#utility.yul\":1492:1521   */\n  swap1\n  pop\n    /* \"#utility.yul\":1358:1527   */\n  swap3\n  swap2\n  pop\n  pop\n  jump\t// out\n    /* \"#utility.yul\":1533:1695   */\ntag_20:\n    /* \"#utility.yul\":1673:1687   */\n  0x7a65726f20616464726573730000000000000000000000000000000000000000\n    /* \"#utility.yul\":1669:1670   */\n  0x00\n    /* \"#utility.yul\":1661:1667   */\n  dup3\n    /* \"#utility.yul\":1657:1671   */\n  add\n    /* \"#utility.yul\":1650:1688   */\n  mstore\n    /* \"#utility.yul\":1533:1695   */\n  pop\n  jump\t// out\n    /* \"#utility.yul\":1701:2067   */\ntag_21:\n    /* \"#utility.yul\":1843:1846   */\n  0x00\n    /* \"#utility.yul\":1864:1931   */\n  tag_42\n    /* \"#utility.yul\":1928:1930   */\n  0x0c\n    /* \"#utility.yul\":1923:1926   */\n  dup4\n    /* \"#utility.yul\":1864:1931   */\n  tag_19\n  jump\t// in\ntag_42:\n    /* \"#utility.yul\":1857:1931   */\n  swap2\n  pop\n    /* \"#utility.yul\":1940:2033   */\n  tag_43\n    /* \"#utility.yul\":2029:2032   */\n  dup3\n    /* \"#utility.yul\":1940:2033   */\n  tag_20\n  jump\t// in\ntag_43:\n    /* \"#utility.yul\":2058:2060   */\n  0x20\n    /* \"#utility.yul\":2053:2056   */\n  dup3\n    /* \"#utility.yul\":2049:2061   */\n  add\n    /* \"#utility.yul\":2042:2061   */\n  swap1\n  pop\n    /* \"#utility.yul\":1701:2067   */\n  swap2\n  swap1\n  pop\n  jump\t// out\n    /* \"#utility.yul\":2073:2492   */\ntag_8:\n    /* \"#utility.yul\":2239:2243   */\n  0x00\n    /* \"#utility.yul\":2277:2279   */\n  0x20\n    /* \"#utility.yul\":2266:2275   */\n  dup3\n    /* \"#utility.yul\":2262:2280   */\n  add\n    /* \"#utility.yul\":2254:2280   */\n  swap1\n  pop\n    /* \"#utility.yul\":2326:2335   */\n  dup2\n    /* \"#utility.yul\":2320:2324   */\n  dup2\n    /* \"#utility.yul\":2316:2336   */\n  sub\n    /* \"#utility.yul\":2312:2313   */\n  0x00\n    /* \"#utility.yul\":2301:2310   */\n  dup4\n    /* \"#utility.yul\":2297:2314   */\n  add\n    /* \"#utility.yul\":2290:2337   */\n  mstore\n    /* \"#utility.yul\":2354:2485   */\n  tag_45\n    /* \"#utility.yul\":2480:2484   */\n  dup2\n    /* \"#utility.yul\":2354:2485   */\n  tag_21\n  jump\t// in\ntag_45:\n    /* \"#utility.yul\":2346:2485   */\n  swap1\n  pop\n    /* \"#utility.yul\":2073:2492   */\n  swap2\n  swap1\n  pop\n  jump\t// out\n    /* \"src/NFTmarket.sol\":179:4408  contract NFTmarket {... */\ntag_11:\n  dataSize(sub_0)\n  dup1\n  dataOffset(sub_0)\n  0x00\n  codecopy\n  0x00\n  return\nstop\n\nsub_0: assembly {\n        /* \"src/NFTmarket.sol\":179:4408  contract NFTmarket {... */\n      mstore(0x40, 0x80)\n      callvalue\n      dup1\n      iszero\n      tag_1\n      jumpi\n      0x00\n      dup1\n      revert\n    tag_1:\n      pop\n      jumpi(tag_2, lt(calldatasize, 0x04))\n      shr(0xe0, calldataload(0x00))\n      dup1\n      0xa85c38ef\n      gt\n      tag_15\n      jumpi\n      dup1\n      0xa85c38ef\n      eq\n      tag_9\n      jumpi\n      dup1\n      0xb5cdf924\n      eq\n      tag_10\n      jumpi\n      dup1\n      0xbca6ce64\n      eq\n      tag_11\n      jumpi\n      dup1\n      0xd96a094a\n      eq\n      tag_12\n      jumpi\n      dup1\n      0xe0391b09\n      eq\n      tag_13\n      jumpi\n      dup1\n      0xfcce4883\n      eq\n      tag_14\n      jumpi\n      jump(tag_2)\n    tag_15:\n      dup1\n      0x150b7a02\n      eq\n      tag_3\n      jumpi\n      dup1\n      0x3a52c7c2\n      eq\n      tag_4\n      jumpi\n      dup1\n      0x40e58ee5\n      eq\n      tag_5\n      jumpi\n      dup1\n      0x629cb2e4\n      eq\n      tag_6\n      jumpi\n      dup1\n      0x785e9e86\n      eq\n      tag_7\n      jumpi\n      dup1\n      0x9d4971b7\n      eq\n      tag_8\n      jumpi\n    tag_2:\n      0x00\n      dup1\n      revert\n        /* \"src/NFTmarket.sol\":2460:2950  function onERC721Received(address operator, address from, uint256 tokenID, bytes calldata data) external returns (bytes4) {... */\n    tag_3:\n      tag_16\n      0x04\n      dup1\n      calldatasize\n      sub\n      dup2\n      add\n      swap1\n      tag_17\n      swap2\n      swap1\n      tag_18\n      jump\t// in\n    tag_17:\n      tag_19\n      jump\t// in\n    tag_16:\n      mload(0x40)\n      tag_20\n      swap2\n      swap1\n      tag_21\n      jump\t// in\n    tag_20:\n      mload(0x40)\n      dup1\n      swap2\n      sub\n      swap1\n      return\n        /* \"src/NFTmarket.sol\":1870:2316  function change(uint256 _tokenID, uint256 _price) external {... */\n    tag_4:\n      tag_22\n      0x04\n      dup1\n      calldatasize\n      sub\n      dup2\n      add\n      swap1\n      tag_23\n      swap2\n      swap1\n      tag_24\n      jump\t// in\n    tag_23:\n      tag_25\n      jump\t// in\n    tag_22:\n      stop\n        /* \"src/NFTmarket.sol\":1553:1862  function cancel(uint256 _tokenID) external {... */\n    tag_5:\n      tag_26\n      0x04\n      dup1\n      calldatasize\n      sub\n      dup2\n      add\n      swap1\n      tag_27\n      swap2\n      swap1\n      tag_28\n      jump\t// in\n    tag_27:\n      tag_29\n      jump\t// in\n    tag_26:\n      stop\n        /* \"src/NFTmarket.sol\":4019:4405  function getMyNFTs() external view returns(Order[] memory){... */\n    tag_6:\n      tag_30\n      tag_31\n      jump\t// in\n    tag_30:\n      mload(0x40)\n      tag_32\n      swap2\n      swap1\n      tag_33\n      jump\t// in\n    tag_32:\n      mload(0x40)\n      dup1\n      swap2\n      sub\n      swap1\n      return\n        /* \"src/NFTmarket.sol\":205:224  IERC20 public erc20 */\n    tag_7:\n      tag_34\n      tag_35\n      jump\t// in\n    tag_34:\n      mload(0x40)\n      tag_36\n      swap2\n      swap1\n      tag_37\n      jump\t// in\n    tag_36:\n      mload(0x40)\n      dup1\n      swap2\n      sub\n      swap1\n      return\n        /* \"src/NFTmarket.sol\":3816:3911  function getOrderLength() external view returns(uint256){... */\n    tag_8:\n      tag_38\n      tag_39\n      jump\t// in\n    tag_38:\n      mload(0x40)\n      tag_40\n      swap2\n      swap1\n      tag_41\n      jump\t// in\n    tag_40:\n      mload(0x40)\n      dup1\n      swap2\n      sub\n      swap1\n      return\n        /* \"src/NFTmarket.sol\":497:518  Order[] public orders */\n    tag_9:\n      tag_42\n      0x04\n      dup1\n      calldatasize\n      sub\n      dup2\n      add\n      swap1\n      tag_43\n      swap2\n      swap1\n      tag_28\n      jump\t// in\n    tag_43:\n      tag_44\n      jump\t// in\n    tag_42:\n      mload(0x40)\n      tag_45\n      swap4\n      swap3\n      swap2\n      swap1\n      tag_46\n      jump\t// in\n    tag_45:\n      mload(0x40)\n      dup1\n      swap2\n      sub\n      swap1\n      return\n        /* \"src/NFTmarket.sol\":3420:3808  function toUint256(bytes memory _bytes, uint256 _start) public pure returns (uint256) {... */\n    tag_10:\n      tag_47\n      0x04\n      dup1\n      calldatasize\n      sub\n      dup2\n      add\n      swap1\n      tag_48\n      swap2\n      swap1\n      tag_49\n      jump\t// in\n    tag_48:\n      tag_50\n      jump\t// in\n    tag_47:\n      mload(0x40)\n      tag_51\n      swap2\n      swap1\n      tag_41\n      jump\t// in\n    tag_51:\n      mload(0x40)\n      dup1\n      swap2\n      sub\n      swap1\n      return\n        /* \"src/NFTmarket.sol\":231:252  IERC721 public erc721 */\n    tag_11:\n      tag_52\n      tag_53\n      jump\t// in\n    tag_52:\n      mload(0x40)\n      tag_54\n      swap2\n      swap1\n      tag_55\n      jump\t// in\n    tag_54:\n      mload(0x40)\n      dup1\n      swap2\n      sub\n      swap1\n      return\n        /* \"src/NFTmarket.sol\":1121:1545  function buy(uint256 _tokenID) external{... */\n    tag_12:\n      tag_56\n      0x04\n      dup1\n      calldatasize\n      sub\n      dup2\n      add\n      swap1\n      tag_57\n      swap2\n      swap1\n      tag_28\n      jump\t// in\n    tag_57:\n      tag_58\n      jump\t// in\n    tag_56:\n      stop\n        /* \"src/NFTmarket.sol\":3919:4011  function getAllNFTs() external view returns(Order[] memory) {... */\n    tag_13:\n      tag_59\n      tag_60\n      jump\t// in\n    tag_59:\n      mload(0x40)\n      tag_61\n      swap2\n      swap1\n      tag_33\n      jump\t// in\n    tag_61:\n      mload(0x40)\n      dup1\n      swap2\n      sub\n      swap1\n      return\n        /* \"src/NFTmarket.sol\":2324:2452  function isListed(uint256 _tokenID) public view returns(bool) {... */\n    tag_14:\n      tag_62\n      0x04\n      dup1\n      calldatasize\n      sub\n      dup2\n      add\n      swap1\n      tag_63\n      swap2\n      swap1\n      tag_28\n      jump\t// in\n    tag_63:\n      tag_64\n      jump\t// in\n    tag_62:\n      mload(0x40)\n      tag_65\n      swap2\n      swap1\n      tag_66\n      jump\t// in\n    tag_65:\n      mload(0x40)\n      dup1\n      swap2\n      sub\n      swap1\n      return\n        /* \"src/NFTmarket.sol\":2460:2950  function onERC721Received(address operator, address from, uint256 tokenID, bytes calldata data) external returns (bytes4) {... */\n    tag_19:\n        /* \"src/NFTmarket.sol\":2574:2580  bytes4 */\n      0x00\n        /* \"src/NFTmarket.sol\":2593:2606  uint256 price */\n      dup1\n        /* \"src/NFTmarket.sol\":2609:2627  toUint256(data, 0) */\n      tag_68\n        /* \"src/NFTmarket.sol\":2619:2623  data */\n      dup5\n      dup5\n        /* \"src/NFTmarket.sol\":2609:2627  toUint256(data, 0) */\n      dup1\n      dup1\n      0x1f\n      add\n      0x20\n      dup1\n      swap2\n      div\n      mul\n      0x20\n      add\n      mload(0x40)\n      swap1\n      dup2\n      add\n      0x40\n      mstore\n      dup1\n      swap4\n      swap3\n      swap2\n      swap1\n      dup2\n      dup2\n      mstore\n      0x20\n      add\n      dup4\n      dup4\n      dup1\n      dup3\n      dup5\n      calldatacopy\n      0x00\n      dup2\n      dup5\n      add\n      mstore\n      not(0x1f)\n      0x1f\n      dup3\n      add\n      and\n      swap1\n      pop\n      dup1\n      dup4\n      add\n      swap3\n      pop\n      pop\n      pop\n      pop\n      pop\n      pop\n      pop\n        /* \"src/NFTmarket.sol\":2625:2626  0 */\n      0x00\n        /* \"src/NFTmarket.sol\":2609:2618  toUint256 */\n      tag_50\n        /* \"src/NFTmarket.sol\":2609:2627  toUint256(data, 0) */\n      jump\t// in\n    tag_68:\n        /* \"src/NFTmarket.sol\":2593:2627  uint256 price = toUint256(data, 0) */\n      swap1\n      pop\n        /* \"src/NFTmarket.sol\":2654:2655  0 */\n      0x00\n        /* \"src/NFTmarket.sol\":2646:2651  price */\n      dup2\n        /* \"src/NFTmarket.sol\":2646:2655  price > 0 */\n      gt\n        /* \"src/NFTmarket.sol\":2638:2688  require(price > 0, \"price must be greater than 0\") */\n      tag_69\n      jumpi\n      mload(0x40)\n      0x08c379a000000000000000000000000000000000000000000000000000000000\n      dup2\n      mstore\n      0x04\n      add\n      tag_70\n      swap1\n      tag_71\n      jump\t// in\n    tag_70:\n      mload(0x40)\n      dup1\n      swap2\n      sub\n      swap1\n      revert\n    tag_69:\n        /* \"src/NFTmarket.sol\":2701:2707  orders */\n      0x03\n        /* \"src/NFTmarket.sol\":2713:2740  Order(from, tokenID, price) */\n      mload(0x40)\n      dup1\n      0x60\n      add\n      0x40\n      mstore\n      dup1\n        /* \"src/NFTmarket.sol\":2719:2723  from */\n      dup9\n        /* \"src/NFTmarket.sol\":2713:2740  Order(from, tokenID, price) */\n      0xffffffffffffffffffffffffffffffffffffffff\n      and\n      dup2\n      mstore\n      0x20\n      add\n        /* \"src/NFTmarket.sol\":2725:2732  tokenID */\n      dup8\n        /* \"src/NFTmarket.sol\":2713:2740  Order(from, tokenID, price) */\n      dup2\n      mstore\n      0x20\n      add\n        /* \"src/NFTmarket.sol\":2734:2739  price */\n      dup4\n        /* \"src/NFTmarket.sol\":2713:2740  Order(from, tokenID, price) */\n      dup2\n      mstore\n      pop\n        /* \"src/NFTmarket.sol\":2701:2741  orders.push(Order(from, tokenID, price)) */\n      swap1\n      dup1\n      0x01\n      dup2\n      sload\n      add\n      dup1\n      dup3\n      sstore\n      dup1\n      swap2\n      pop\n      pop\n      0x01\n      swap1\n      sub\n      swap1\n      0x00\n      mstore\n      keccak256(0x00, 0x20)\n      swap1\n      0x03\n      mul\n      add\n      0x00\n      swap1\n      swap2\n      swap1\n      swap2\n      swap1\n      swap2\n      pop\n      0x00\n      dup3\n      add\n      mload\n      dup2\n      0x00\n      add\n      exp(0x0100, 0x00)\n      dup2\n      sload\n      dup2\n      0xffffffffffffffffffffffffffffffffffffffff\n      mul\n      not\n      and\n      swap1\n      dup4\n      0xffffffffffffffffffffffffffffffffffffffff\n      and\n      mul\n      or\n      swap1\n      sstore\n      pop\n      0x20\n      dup3\n      add\n      mload\n      dup2\n      0x01\n      add\n      sstore\n      0x40\n      dup3\n      add\n      mload\n      dup2\n      0x02\n      add\n      sstore\n      pop\n      pop\n        /* \"src/NFTmarket.sol\":2773:2800  Order(from, tokenID, price) */\n      mload(0x40)\n      dup1\n      0x60\n      add\n      0x40\n      mstore\n      dup1\n        /* \"src/NFTmarket.sol\":2779:2783  from */\n      dup8\n        /* \"src/NFTmarket.sol\":2773:2800  Order(from, tokenID, price) */\n      0xffffffffffffffffffffffffffffffffffffffff\n      and\n      dup2\n      mstore\n      0x20\n      add\n        /* \"src/NFTmarket.sol\":2785:2792  tokenID */\n      dup7\n        /* \"src/NFTmarket.sol\":2773:2800  Order(from, tokenID, price) */\n      dup2\n      mstore\n      0x20\n      add\n        /* \"src/NFTmarket.sol\":2794:2799  price */\n      dup3\n        /* \"src/NFTmarket.sol\":2773:2800  Order(from, tokenID, price) */\n      dup2\n      mstore\n      pop\n        /* \"src/NFTmarket.sol\":2752:2761  IDinOrder */\n      0x02\n        /* \"src/NFTmarket.sol\":2752:2770  IDinOrder[tokenID] */\n      0x00\n        /* \"src/NFTmarket.sol\":2762:2769  tokenID */\n      dup8\n        /* \"src/NFTmarket.sol\":2752:2770  IDinOrder[tokenID] */\n      dup2\n      mstore\n      0x20\n      add\n      swap1\n      dup2\n      mstore\n      0x20\n      add\n      0x00\n      keccak256\n        /* \"src/NFTmarket.sol\":2752:2800  IDinOrder[tokenID] = Order(from, tokenID, price) */\n      0x00\n      dup3\n      add\n      mload\n      dup2\n      0x00\n      add\n      exp(0x0100, 0x00)\n      dup2\n      sload\n      dup2\n      0xffffffffffffffffffffffffffffffffffffffff\n      mul\n      not\n      and\n      swap1\n      dup4\n      0xffffffffffffffffffffffffffffffffffffffff\n      and\n      mul\n      or\n      swap1\n      sstore\n      pop\n      0x20\n      dup3\n      add\n      mload\n      dup2\n      0x01\n      add\n      sstore\n      0x40\n      dup3\n      add\n      mload\n      dup2\n      0x02\n      add\n      sstore\n      swap1\n      pop\n      pop\n        /* \"src/NFTmarket.sol\":2848:2849  1 */\n      0x01\n        /* \"src/NFTmarket.sol\":2832:2838  orders */\n      0x03\n        /* \"src/NFTmarket.sol\":2832:2845  orders.length */\n      dup1\n      sload\n      swap1\n      pop\n        /* \"src/NFTmarket.sol\":2832:2849  orders.length - 1 */\n      tag_73\n      swap2\n      swap1\n      tag_74\n      jump\t// in\n    tag_73:\n        /* \"src/NFTmarket.sol\":2811:2820  IDofOrder */\n      0x04\n        /* \"src/NFTmarket.sol\":2811:2829  IDofOrder[tokenID] */\n      0x00\n        /* \"src/NFTmarket.sol\":2821:2828  tokenID */\n      dup8\n        /* \"src/NFTmarket.sol\":2811:2829  IDofOrder[tokenID] */\n      dup2\n      mstore\n      0x20\n      add\n      swap1\n      dup2\n      mstore\n      0x20\n      add\n      0x00\n      keccak256\n        /* \"src/NFTmarket.sol\":2811:2849  IDofOrder[tokenID] = orders.length - 1 */\n      dup2\n      swap1\n      sstore\n      pop\n        /* \"src/NFTmarket.sol\":2868:2898  NewOrder(from, tokenID, price) */\n      0xd5b509e657d5ec37ae4bdcab658b7340c0453bb630516d26623359a34c1cecf3\n        /* \"src/NFTmarket.sol\":2877:2881  from */\n      dup7\n        /* \"src/NFTmarket.sol\":2883:2890  tokenID */\n      dup7\n        /* \"src/NFTmarket.sol\":2892:2897  price */\n      dup4\n        /* \"src/NFTmarket.sol\":2868:2898  NewOrder(from, tokenID, price) */\n      mload(0x40)\n      tag_75\n      swap4\n      swap3\n      swap2\n      swap1\n      tag_46\n      jump\t// in\n    tag_75:\n      mload(0x40)\n      dup1\n      swap2\n      sub\n      swap1\n      log1\n        /* \"src/NFTmarket.sol\":313:323  0x150b7a02 */\n      0x150b7a02\n        /* \"src/NFTmarket.sol\":2918:2942  MAGIC_ON_ERC721_RECEIVED */\n      0xe0\n      shl\n        /* \"src/NFTmarket.sol\":2911:2942  return MAGIC_ON_ERC721_RECEIVED */\n      swap2\n      pop\n      pop\n        /* \"src/NFTmarket.sol\":2460:2950  function onERC721Received(address operator, address from, uint256 tokenID, bytes calldata data) external returns (bytes4) {... */\n      swap6\n      swap5\n      pop\n      pop\n      pop\n      pop\n      pop\n      jump\t// out\n        /* \"src/NFTmarket.sol\":1870:2316  function change(uint256 _tokenID, uint256 _price) external {... */\n    tag_25:\n        /* \"src/NFTmarket.sol\":1940:1954  address seller */\n      0x00\n        /* \"src/NFTmarket.sol\":1957:1966  IDinOrder */\n      0x02\n        /* \"src/NFTmarket.sol\":1957:1976  IDinOrder[_tokenID] */\n      0x00\n        /* \"src/NFTmarket.sol\":1967:1975  _tokenID */\n      dup5\n        /* \"src/NFTmarket.sol\":1957:1976  IDinOrder[_tokenID] */\n      dup2\n      mstore\n      0x20\n      add\n      swap1\n      dup2\n      mstore\n      0x20\n      add\n      0x00\n      keccak256\n        /* \"src/NFTmarket.sol\":1957:1983  IDinOrder[_tokenID].seller */\n      0x00\n      add\n      0x00\n      swap1\n      sload\n      swap1\n      0x0100\n      exp\n      swap1\n      div\n      0xffffffffffffffffffffffffffffffffffffffff\n      and\n        /* \"src/NFTmarket.sol\":1940:1983  address seller = IDinOrder[_tokenID].seller */\n      swap1\n      pop\n        /* \"src/NFTmarket.sol\":2016:2022  seller */\n      dup1\n        /* \"src/NFTmarket.sol\":2002:2022  msg.sender == seller */\n      0xffffffffffffffffffffffffffffffffffffffff\n      and\n        /* \"src/NFTmarket.sol\":2002:2012  msg.sender */\n      caller\n        /* \"src/NFTmarket.sol\":2002:2022  msg.sender == seller */\n      0xffffffffffffffffffffffffffffffffffffffff\n      and\n      eq\n        /* \"src/NFTmarket.sol\":1994:2037  require(msg.sender == seller, \"not seller\") */\n      tag_77\n      jumpi\n      mload(0x40)\n      0x08c379a000000000000000000000000000000000000000000000000000000000\n      dup2\n      mstore\n      0x04\n      add\n      tag_78\n      swap1\n      tag_79\n      jump\t// in\n    tag_78:\n      mload(0x40)\n      dup1\n      swap2\n      sub\n      swap1\n      revert\n    tag_77:\n        /* \"src/NFTmarket.sol\":2050:2071  uint256 previousprice */\n      0x00\n        /* \"src/NFTmarket.sol\":2074:2083  IDinOrder */\n      0x02\n        /* \"src/NFTmarket.sol\":2074:2093  IDinOrder[_tokenID] */\n      0x00\n        /* \"src/NFTmarket.sol\":2084:2092  _tokenID */\n      dup6\n        /* \"src/NFTmarket.sol\":2074:2093  IDinOrder[_tokenID] */\n      dup2\n      mstore\n      0x20\n      add\n      swap1\n      dup2\n      mstore\n      0x20\n      add\n      0x00\n      keccak256\n        /* \"src/NFTmarket.sol\":2074:2099  IDinOrder[_tokenID].price */\n      0x02\n      add\n      sload\n        /* \"src/NFTmarket.sol\":2050:2099  uint256 previousprice = IDinOrder[_tokenID].price */\n      swap1\n      pop\n        /* \"src/NFTmarket.sol\":2138:2144  _price */\n      dup3\n        /* \"src/NFTmarket.sol\":2110:2119  IDinOrder */\n      0x02\n        /* \"src/NFTmarket.sol\":2110:2129  IDinOrder[_tokenID] */\n      0x00\n        /* \"src/NFTmarket.sol\":2120:2128  _tokenID */\n      dup7\n        /* \"src/NFTmarket.sol\":2110:2129  IDinOrder[_tokenID] */\n      dup2\n      mstore\n      0x20\n      add\n      swap1\n      dup2\n      mstore\n      0x20\n      add\n      0x00\n      keccak256\n        /* \"src/NFTmarket.sol\":2110:2135  IDinOrder[_tokenID].price */\n      0x02\n      add\n        /* \"src/NFTmarket.sol\":2110:2144  IDinOrder[_tokenID].price = _price */\n      dup2\n      swap1\n      sstore\n      pop\n        /* \"src/NFTmarket.sol\":2157:2176  Order storage order */\n      0x00\n        /* \"src/NFTmarket.sol\":2179:2185  orders */\n      0x03\n        /* \"src/NFTmarket.sol\":2186:2195  IDofOrder */\n      0x04\n        /* \"src/NFTmarket.sol\":2186:2205  IDofOrder[_tokenID] */\n      0x00\n        /* \"src/NFTmarket.sol\":2196:2204  _tokenID */\n      dup8\n        /* \"src/NFTmarket.sol\":2186:2205  IDofOrder[_tokenID] */\n      dup2\n      mstore\n      0x20\n      add\n      swap1\n      dup2\n      mstore\n      0x20\n      add\n      0x00\n      keccak256\n      sload\n        /* \"src/NFTmarket.sol\":2179:2206  orders[IDofOrder[_tokenID]] */\n      dup2\n      sload\n      dup2\n      lt\n      tag_80\n      jumpi\n      tag_81\n      tag_82\n      jump\t// in\n    tag_81:\n    tag_80:\n      swap1\n      0x00\n      mstore\n      keccak256(0x00, 0x20)\n      swap1\n      0x03\n      mul\n      add\n        /* \"src/NFTmarket.sol\":2157:2206  Order storage order = orders[IDofOrder[_tokenID]] */\n      swap1\n      pop\n        /* \"src/NFTmarket.sol\":2231:2237  _price */\n      dup4\n        /* \"src/NFTmarket.sol\":2217:2222  order */\n      dup2\n        /* \"src/NFTmarket.sol\":2217:2228  order.price */\n      0x02\n      add\n        /* \"src/NFTmarket.sol\":2217:2237  order.price = _price */\n      dup2\n      swap1\n      sstore\n      pop\n        /* \"src/NFTmarket.sol\":2255:2308  PriceChanged(seller, _tokenID, previousprice, _price) */\n      0xdac6aecd066304d15a41e8e590fc5ab5bf93634f43cba363f743d5e158d79988\n        /* \"src/NFTmarket.sol\":2268:2274  seller */\n      dup4\n        /* \"src/NFTmarket.sol\":2276:2284  _tokenID */\n      dup7\n        /* \"src/NFTmarket.sol\":2286:2299  previousprice */\n      dup5\n        /* \"src/NFTmarket.sol\":2301:2307  _price */\n      dup8\n        /* \"src/NFTmarket.sol\":2255:2308  PriceChanged(seller, _tokenID, previousprice, _price) */\n      mload(0x40)\n      tag_84\n      swap5\n      swap4\n      swap3\n      swap2\n      swap1\n      tag_85\n      jump\t// in\n    tag_84:\n      mload(0x40)\n      dup1\n      swap2\n      sub\n      swap1\n      log1\n        /* \"src/NFTmarket.sol\":1929:2316  {... */\n      pop\n      pop\n      pop\n        /* \"src/NFTmarket.sol\":1870:2316  function change(uint256 _tokenID, uint256 _price) external {... */\n      pop\n      pop\n      jump\t// out\n        /* \"src/NFTmarket.sol\":1553:1862  function cancel(uint256 _tokenID) external {... */\n    tag_29:\n        /* \"src/NFTmarket.sol\":1607:1621  address seller */\n      0x00\n        /* \"src/NFTmarket.sol\":1624:1633  IDinOrder */\n      0x02\n        /* \"src/NFTmarket.sol\":1624:1643  IDinOrder[_tokenID] */\n      0x00\n        /* \"src/NFTmarket.sol\":1634:1642  _tokenID */\n      dup4\n        /* \"src/NFTmarket.sol\":1624:1643  IDinOrder[_tokenID] */\n      dup2\n      mstore\n      0x20\n      add\n      swap1\n      dup2\n      mstore\n      0x20\n      add\n      0x00\n      keccak256\n        /* \"src/NFTmarket.sol\":1624:1650  IDinOrder[_tokenID].seller */\n      0x00\n      add\n      0x00\n      swap1\n      sload\n      swap1\n      0x0100\n      exp\n      swap1\n      div\n      0xffffffffffffffffffffffffffffffffffffffff\n      and\n        /* \"src/NFTmarket.sol\":1607:1650  address seller = IDinOrder[_tokenID].seller */\n      swap1\n      pop\n        /* \"src/NFTmarket.sol\":1683:1689  seller */\n      dup1\n        /* \"src/NFTmarket.sol\":1669:1689  msg.sender == seller */\n      0xffffffffffffffffffffffffffffffffffffffff\n      and\n        /* \"src/NFTmarket.sol\":1669:1679  msg.sender */\n      caller\n        /* \"src/NFTmarket.sol\":1669:1689  msg.sender == seller */\n      0xffffffffffffffffffffffffffffffffffffffff\n      and\n      eq\n        /* \"src/NFTmarket.sol\":1661:1704  require(msg.sender == seller, \"not seller\") */\n      tag_87\n      jumpi\n      mload(0x40)\n      0x08c379a000000000000000000000000000000000000000000000000000000000\n      dup2\n      mstore\n      0x04\n      add\n      tag_88\n      swap1\n      tag_79\n      jump\t// in\n    tag_88:\n      mload(0x40)\n      dup1\n      swap2\n      sub\n      swap1\n      revert\n    tag_87:\n        /* \"src/NFTmarket.sol\":1717:1723  erc721 */\n      0x01\n      0x00\n      swap1\n      sload\n      swap1\n      0x0100\n      exp\n      swap1\n      div\n      0xffffffffffffffffffffffffffffffffffffffff\n      and\n        /* \"src/NFTmarket.sol\":1717:1740  erc721.safeTransferFrom */\n      0xffffffffffffffffffffffffffffffffffffffff\n      and\n      0x42842e0e\n        /* \"src/NFTmarket.sol\":1749:1753  this */\n      address\n        /* \"src/NFTmarket.sol\":1756:1762  seller */\n      dup4\n        /* \"src/NFTmarket.sol\":1764:1772  _tokenID */\n      dup6\n        /* \"src/NFTmarket.sol\":1717:1773  erc721.safeTransferFrom(address(this), seller, _tokenID) */\n      mload(0x40)\n      dup5\n      0xffffffff\n      and\n      0xe0\n      shl\n      dup2\n      mstore\n      0x04\n      add\n      tag_89\n      swap4\n      swap3\n      swap2\n      swap1\n      tag_90\n      jump\t// in\n    tag_89:\n      0x00\n      mload(0x40)\n      dup1\n      dup4\n      sub\n      dup2\n      0x00\n      dup8\n      dup1\n      extcodesize\n      iszero\n      dup1\n      iszero\n      tag_91\n      jumpi\n      0x00\n      dup1\n      revert\n    tag_91:\n      pop\n      gas\n      call\n      iszero\n      dup1\n      iszero\n      tag_93\n      jumpi\n      returndatasize\n      0x00\n      dup1\n      returndatacopy\n      revert(0x00, returndatasize)\n    tag_93:\n      pop\n      pop\n      pop\n      pop\n        /* \"src/NFTmarket.sol\":1786:1807  removeOrder(_tokenID) */\n      tag_94\n        /* \"src/NFTmarket.sol\":1798:1806  _tokenID */\n      dup3\n        /* \"src/NFTmarket.sol\":1786:1797  removeOrder */\n      tag_95\n        /* \"src/NFTmarket.sol\":1786:1807  removeOrder(_tokenID) */\n      jump\t// in\n    tag_94:\n        /* \"src/NFTmarket.sol\":1825:1854  CancelOrder(seller, _tokenID) */\n      0xc0e68d6b69f741c21e955cad2ae4d505b6f6735c7e7b278251b3f6283a5f07eb\n        /* \"src/NFTmarket.sol\":1837:1843  seller */\n      dup2\n        /* \"src/NFTmarket.sol\":1845:1853  _tokenID */\n      dup4\n        /* \"src/NFTmarket.sol\":1825:1854  CancelOrder(seller, _tokenID) */\n      mload(0x40)\n      tag_96\n      swap3\n      swap2\n      swap1\n      tag_97\n      jump\t// in\n    tag_96:\n      mload(0x40)\n      dup1\n      swap2\n      sub\n      swap1\n      log1\n        /* \"src/NFTmarket.sol\":1596:1862  {... */\n      pop\n        /* \"src/NFTmarket.sol\":1553:1862  function cancel(uint256 _tokenID) external {... */\n      pop\n      jump\t// out\n        /* \"src/NFTmarket.sol\":4019:4405  function getMyNFTs() external view returns(Order[] memory){... */\n    tag_31:\n        /* \"src/NFTmarket.sol\":4062:4076  Order[] memory */\n      0x60\n        /* \"src/NFTmarket.sol\":4088:4111  Order[] memory myOrders */\n      0x00\n        /* \"src/NFTmarket.sol\":4126:4132  orders */\n      0x03\n        /* \"src/NFTmarket.sol\":4126:4139  orders.length */\n      dup1\n      sload\n      swap1\n      pop\n        /* \"src/NFTmarket.sol\":4114:4140  new Order[](orders.length) */\n      0xffffffffffffffff\n      dup2\n      gt\n      iszero\n      tag_99\n      jumpi\n      tag_100\n      tag_101\n      jump\t// in\n    tag_100:\n    tag_99:\n      mload(0x40)\n      swap1\n      dup1\n      dup3\n      mstore\n      dup1\n      0x20\n      mul\n      0x20\n      add\n      dup3\n      add\n      0x40\n      mstore\n      dup1\n      iszero\n      tag_102\n      jumpi\n      dup2\n      0x20\n      add\n    tag_103:\n      tag_104\n      tag_105\n      jump\t// in\n    tag_104:\n      dup2\n      mstore\n      0x20\n      add\n      swap1\n      0x01\n      swap1\n      sub\n      swap1\n      dup2\n      tag_103\n      jumpi\n      swap1\n      pop\n    tag_102:\n      pop\n        /* \"src/NFTmarket.sol\":4088:4140  Order[] memory myOrders = new Order[](orders.length) */\n      swap1\n      pop\n        /* \"src/NFTmarket.sol\":4151:4164  uint256 count */\n      0x00\n        /* \"src/NFTmarket.sol\":4184:4193  uint256 i */\n      dup1\n        /* \"src/NFTmarket.sol\":4179:4372  for (uint256 i = 0; i < orders.length; i ++){... */\n    tag_106:\n        /* \"src/NFTmarket.sol\":4203:4209  orders */\n      0x03\n        /* \"src/NFTmarket.sol\":4203:4216  orders.length */\n      dup1\n      sload\n      swap1\n      pop\n        /* \"src/NFTmarket.sol\":4199:4200  i */\n      dup2\n        /* \"src/NFTmarket.sol\":4199:4216  i < orders.length */\n      lt\n        /* \"src/NFTmarket.sol\":4179:4372  for (uint256 i = 0; i < orders.length; i ++){... */\n      iszero\n      tag_107\n      jumpi\n        /* \"src/NFTmarket.sol\":4261:4271  msg.sender */\n      caller\n        /* \"src/NFTmarket.sol\":4241:4271  orders[i].seller == msg.sender */\n      0xffffffffffffffffffffffffffffffffffffffff\n      and\n        /* \"src/NFTmarket.sol\":4241:4247  orders */\n      0x03\n        /* \"src/NFTmarket.sol\":4248:4249  i */\n      dup3\n        /* \"src/NFTmarket.sol\":4241:4250  orders[i] */\n      dup2\n      sload\n      dup2\n      lt\n      tag_109\n      jumpi\n      tag_110\n      tag_82\n      jump\t// in\n    tag_110:\n    tag_109:\n      swap1\n      0x00\n      mstore\n      keccak256(0x00, 0x20)\n      swap1\n      0x03\n      mul\n      add\n        /* \"src/NFTmarket.sol\":4241:4257  orders[i].seller */\n      0x00\n      add\n      0x00\n      swap1\n      sload\n      swap1\n      0x0100\n      exp\n      swap1\n      div\n      0xffffffffffffffffffffffffffffffffffffffff\n      and\n        /* \"src/NFTmarket.sol\":4241:4271  orders[i].seller == msg.sender */\n      0xffffffffffffffffffffffffffffffffffffffff\n      and\n      sub\n        /* \"src/NFTmarket.sol\":4238:4361  if(orders[i].seller == msg.sender){... */\n      tag_112\n      jumpi\n        /* \"src/NFTmarket.sol\":4309:4315  orders */\n      0x03\n        /* \"src/NFTmarket.sol\":4316:4317  i */\n      dup2\n        /* \"src/NFTmarket.sol\":4309:4318  orders[i] */\n      dup2\n      sload\n      dup2\n      lt\n      tag_113\n      jumpi\n      tag_114\n      tag_82\n      jump\t// in\n    tag_114:\n    tag_113:\n      swap1\n      0x00\n      mstore\n      keccak256(0x00, 0x20)\n      swap1\n      0x03\n      mul\n      add\n        /* \"src/NFTmarket.sol\":4291:4318  myOrders[count] = orders[i] */\n      mload(0x40)\n      dup1\n      0x60\n      add\n      0x40\n      mstore\n      swap1\n      dup2\n      0x00\n      dup3\n      add\n      0x00\n      swap1\n      sload\n      swap1\n      0x0100\n      exp\n      swap1\n      div\n      0xffffffffffffffffffffffffffffffffffffffff\n      and\n      0xffffffffffffffffffffffffffffffffffffffff\n      and\n      0xffffffffffffffffffffffffffffffffffffffff\n      and\n      dup2\n      mstore\n      0x20\n      add\n      0x01\n      dup3\n      add\n      sload\n      dup2\n      mstore\n      0x20\n      add\n      0x02\n      dup3\n      add\n      sload\n      dup2\n      mstore\n      pop\n      pop\n        /* \"src/NFTmarket.sol\":4291:4299  myOrders */\n      dup4\n        /* \"src/NFTmarket.sol\":4300:4305  count */\n      dup4\n        /* \"src/NFTmarket.sol\":4291:4306  myOrders[count] */\n      dup2\n      mload\n      dup2\n      lt\n      tag_116\n      jumpi\n      tag_117\n      tag_82\n      jump\t// in\n    tag_117:\n    tag_116:\n      0x20\n      mul\n      0x20\n      add\n      add\n        /* \"src/NFTmarket.sol\":4291:4318  myOrders[count] = orders[i] */\n      dup2\n      swap1\n      mstore\n      pop\n        /* \"src/NFTmarket.sol\":4337:4345  count ++ */\n      dup2\n      dup1\n      tag_118\n      swap1\n      tag_119\n      jump\t// in\n    tag_118:\n      swap3\n      pop\n      pop\n        /* \"src/NFTmarket.sol\":4238:4361  if(orders[i].seller == msg.sender){... */\n    tag_112:\n        /* \"src/NFTmarket.sol\":4218:4222  i ++ */\n      dup1\n      dup1\n      0x01\n      add\n      swap2\n      pop\n      pop\n        /* \"src/NFTmarket.sol\":4179:4372  for (uint256 i = 0; i < orders.length; i ++){... */\n      jump(tag_106)\n    tag_107:\n      pop\n        /* \"src/NFTmarket.sol\":4389:4397  myOrders */\n      dup2\n        /* \"src/NFTmarket.sol\":4382:4397  return myOrders */\n      swap3\n      pop\n      pop\n      pop\n        /* \"src/NFTmarket.sol\":4019:4405  function getMyNFTs() external view returns(Order[] memory){... */\n      swap1\n      jump\t// out\n        /* \"src/NFTmarket.sol\":205:224  IERC20 public erc20 */\n    tag_35:\n      0x00\n      dup1\n      sload\n      swap1\n      0x0100\n      exp\n      swap1\n      div\n      0xffffffffffffffffffffffffffffffffffffffff\n      and\n      dup2\n      jump\t// out\n        /* \"src/NFTmarket.sol\":3816:3911  function getOrderLength() external view returns(uint256){... */\n    tag_39:\n        /* \"src/NFTmarket.sol\":3864:3871  uint256 */\n      0x00\n        /* \"src/NFTmarket.sol\":3890:3896  orders */\n      0x03\n        /* \"src/NFTmarket.sol\":3890:3903  orders.length */\n      dup1\n      sload\n      swap1\n      pop\n        /* \"src/NFTmarket.sol\":3883:3903  return orders.length */\n      swap1\n      pop\n        /* \"src/NFTmarket.sol\":3816:3911  function getOrderLength() external view returns(uint256){... */\n      swap1\n      jump\t// out\n        /* \"src/NFTmarket.sol\":497:518  Order[] public orders */\n    tag_44:\n      0x03\n      dup2\n      dup2\n      sload\n      dup2\n      lt\n      tag_121\n      jumpi\n      0x00\n      dup1\n      revert\n    tag_121:\n      swap1\n      0x00\n      mstore\n      keccak256(0x00, 0x20)\n      swap1\n      0x03\n      mul\n      add\n      0x00\n      swap2\n      pop\n      swap1\n      pop\n      dup1\n      0x00\n      add\n      0x00\n      swap1\n      sload\n      swap1\n      0x0100\n      exp\n      swap1\n      div\n      0xffffffffffffffffffffffffffffffffffffffff\n      and\n      swap1\n      dup1\n      0x01\n      add\n      sload\n      swap1\n      dup1\n      0x02\n      add\n      sload\n      swap1\n      pop\n      dup4\n      jump\t// out\n        /* \"src/NFTmarket.sol\":3420:3808  function toUint256(bytes memory _bytes, uint256 _start) public pure returns (uint256) {... */\n    tag_50:\n        /* \"src/NFTmarket.sol\":3497:3504  uint256 */\n      0x00\n        /* \"src/NFTmarket.sol\":3540:3546  _start */\n      dup2\n        /* \"src/NFTmarket.sol\":3534:3536  32 */\n      0x20\n        /* \"src/NFTmarket.sol\":3525:3531  _start */\n      dup4\n        /* \"src/NFTmarket.sol\":3525:3536  _start + 32 */\n      tag_124\n      swap2\n      swap1\n      tag_125\n      jump\t// in\n    tag_124:\n        /* \"src/NFTmarket.sol\":3525:3546  _start + 32 >= _start */\n      lt\n      iszero\n        /* \"src/NFTmarket.sol\":3517:3576  require(_start + 32 >= _start, \"Market:toUint256_overflow\") */\n      tag_126\n      jumpi\n      mload(0x40)\n      0x08c379a000000000000000000000000000000000000000000000000000000000\n      dup2\n      mstore\n      0x04\n      add\n      tag_127\n      swap1\n      tag_128\n      jump\t// in\n    tag_127:\n      mload(0x40)\n      dup1\n      swap2\n      sub\n      swap1\n      revert\n    tag_126:\n        /* \"src/NFTmarket.sol\":3621:3623  32 */\n      0x20\n        /* \"src/NFTmarket.sol\":3612:3618  _start */\n      dup3\n        /* \"src/NFTmarket.sol\":3612:3623  _start + 32 */\n      tag_129\n      swap2\n      swap1\n      tag_125\n      jump\t// in\n    tag_129:\n        /* \"src/NFTmarket.sol\":3595:3601  _bytes */\n      dup4\n        /* \"src/NFTmarket.sol\":3595:3608  _bytes.length */\n      mload\n        /* \"src/NFTmarket.sol\":3595:3623  _bytes.length >= _start + 32 */\n      lt\n      iszero\n        /* \"src/NFTmarket.sol\":3587:3649  require(_bytes.length >= _start + 32, \"toUint256_outOfBounds\") */\n      tag_130\n      jumpi\n      mload(0x40)\n      0x08c379a000000000000000000000000000000000000000000000000000000000\n      dup2\n      mstore\n      0x04\n      add\n      tag_131\n      swap1\n      tag_132\n      jump\t// in\n    tag_131:\n      mload(0x40)\n      dup1\n      swap2\n      sub\n      swap1\n      revert\n    tag_130:\n        /* \"src/NFTmarket.sol\":3660:3676  uint256 tempUint */\n      0x00\n        /* \"src/NFTmarket.sol\":3754:3760  _start */\n      dup3\n        /* \"src/NFTmarket.sol\":3747:3751  0x20 */\n      0x20\n        /* \"src/NFTmarket.sol\":3739:3745  _bytes */\n      dup6\n        /* \"src/NFTmarket.sol\":3735:3752  add(_bytes, 0x20) */\n      add\n        /* \"src/NFTmarket.sol\":3731:3761  add(add(_bytes, 0x20), _start) */\n      add\n        /* \"src/NFTmarket.sol\":3725:3762  mload(add(add(_bytes, 0x20), _start)) */\n      mload\n        /* \"src/NFTmarket.sol\":3713:3762  tempUint := mload(add(add(_bytes, 0x20), _start)) */\n      swap1\n      pop\n        /* \"src/NFTmarket.sol\":3792:3800  tempUint */\n      dup1\n        /* \"src/NFTmarket.sol\":3785:3800  return tempUint */\n      swap2\n      pop\n      pop\n        /* \"src/NFTmarket.sol\":3420:3808  function toUint256(bytes memory _bytes, uint256 _start) public pure returns (uint256) {... */\n      swap3\n      swap2\n      pop\n      pop\n      jump\t// out\n        /* \"src/NFTmarket.sol\":231:252  IERC721 public erc721 */\n    tag_53:\n      0x01\n      0x00\n      swap1\n      sload\n      swap1\n      0x0100\n      exp\n      swap1\n      div\n      0xffffffffffffffffffffffffffffffffffffffff\n      and\n      dup2\n      jump\t// out\n        /* \"src/NFTmarket.sol\":1121:1545  function buy(uint256 _tokenID) external{... */\n    tag_58:\n        /* \"src/NFTmarket.sol\":1171:1185  address seller */\n      0x00\n        /* \"src/NFTmarket.sol\":1188:1197  IDinOrder */\n      0x02\n        /* \"src/NFTmarket.sol\":1188:1207  IDinOrder[_tokenID] */\n      0x00\n        /* \"src/NFTmarket.sol\":1198:1206  _tokenID */\n      dup4\n        /* \"src/NFTmarket.sol\":1188:1207  IDinOrder[_tokenID] */\n      dup2\n      mstore\n      0x20\n      add\n      swap1\n      dup2\n      mstore\n      0x20\n      add\n      0x00\n      keccak256\n        /* \"src/NFTmarket.sol\":1188:1214  IDinOrder[_tokenID].seller */\n      0x00\n      add\n      0x00\n      swap1\n      sload\n      swap1\n      0x0100\n      exp\n      swap1\n      div\n      0xffffffffffffffffffffffffffffffffffffffff\n      and\n        /* \"src/NFTmarket.sol\":1171:1214  address seller = IDinOrder[_tokenID].seller */\n      swap1\n      pop\n        /* \"src/NFTmarket.sol\":1225:1238  address buyer */\n      0x00\n        /* \"src/NFTmarket.sol\":1241:1251  msg.sender */\n      caller\n        /* \"src/NFTmarket.sol\":1225:1251  address buyer = msg.sender */\n      swap1\n      pop\n        /* \"src/NFTmarket.sol\":1262:1275  uint256 price */\n      0x00\n        /* \"src/NFTmarket.sol\":1278:1287  IDinOrder */\n      0x02\n        /* \"src/NFTmarket.sol\":1278:1297  IDinOrder[_tokenID] */\n      0x00\n        /* \"src/NFTmarket.sol\":1288:1296  _tokenID */\n      dup6\n        /* \"src/NFTmarket.sol\":1278:1297  IDinOrder[_tokenID] */\n      dup2\n      mstore\n      0x20\n      add\n      swap1\n      dup2\n      mstore\n      0x20\n      add\n      0x00\n      keccak256\n        /* \"src/NFTmarket.sol\":1278:1303  IDinOrder[_tokenID].price */\n      0x02\n      add\n      sload\n        /* \"src/NFTmarket.sol\":1262:1303  uint256 price = IDinOrder[_tokenID].price */\n      swap1\n      pop\n        /* \"src/NFTmarket.sol\":1324:1329  erc20 */\n      0x00\n      dup1\n      sload\n      swap1\n      0x0100\n      exp\n      swap1\n      div\n      0xffffffffffffffffffffffffffffffffffffffff\n      and\n        /* \"src/NFTmarket.sol\":1324:1342  erc20.transferFrom */\n      0xffffffffffffffffffffffffffffffffffffffff\n      and\n      0x23b872dd\n        /* \"src/NFTmarket.sol\":1343:1348  buyer */\n      dup4\n        /* \"src/NFTmarket.sol\":1350:1356  seller */\n      dup6\n        /* \"src/NFTmarket.sol\":1358:1363  price */\n      dup5\n        /* \"src/NFTmarket.sol\":1324:1364  erc20.transferFrom(buyer, seller, price) */\n      mload(0x40)\n      dup5\n      0xffffffff\n      and\n      0xe0\n      shl\n      dup2\n      mstore\n      0x04\n      add\n      tag_134\n      swap4\n      swap3\n      swap2\n      swap1\n      tag_90\n      jump\t// in\n    tag_134:\n      0x20\n      mload(0x40)\n      dup1\n      dup4\n      sub\n      dup2\n      0x00\n      dup8\n      gas\n      call\n      iszero\n      dup1\n      iszero\n      tag_136\n      jumpi\n      returndatasize\n      0x00\n      dup1\n      returndatacopy\n      revert(0x00, returndatasize)\n    tag_136:\n      pop\n      pop\n      pop\n      pop\n      mload(0x40)\n      returndatasize\n      not(0x1f)\n      0x1f\n      dup3\n      add\n      and\n      dup3\n      add\n      dup1\n      0x40\n      mstore\n      pop\n      dup2\n      add\n      swap1\n      tag_137\n      swap2\n      swap1\n      tag_138\n      jump\t// in\n    tag_137:\n        /* \"src/NFTmarket.sol\":1316:1382  require(erc20.transferFrom(buyer, seller, price), \"transfer fail\") */\n      tag_139\n      jumpi\n      mload(0x40)\n      0x08c379a000000000000000000000000000000000000000000000000000000000\n      dup2\n      mstore\n      0x04\n      add\n      tag_140\n      swap1\n      tag_141\n      jump\t// in\n    tag_140:\n      mload(0x40)\n      dup1\n      swap2\n      sub\n      swap1\n      revert\n    tag_139:\n        /* \"src/NFTmarket.sol\":1393:1399  erc721 */\n      0x01\n      0x00\n      swap1\n      sload\n      swap1\n      0x0100\n      exp\n      swap1\n      div\n      0xffffffffffffffffffffffffffffffffffffffff\n      and\n        /* \"src/NFTmarket.sol\":1393:1416  erc721.safeTransferFrom */\n      0xffffffffffffffffffffffffffffffffffffffff\n      and\n      0x42842e0e\n        /* \"src/NFTmarket.sol\":1425:1429  this */\n      address\n        /* \"src/NFTmarket.sol\":1432:1437  buyer */\n      dup5\n        /* \"src/NFTmarket.sol\":1439:1447  _tokenID */\n      dup8\n        /* \"src/NFTmarket.sol\":1393:1448  erc721.safeTransferFrom(address(this), buyer, _tokenID) */\n      mload(0x40)\n      dup5\n      0xffffffff\n      and\n      0xe0\n      shl\n      dup2\n      mstore\n      0x04\n      add\n      tag_142\n      swap4\n      swap3\n      swap2\n      swap1\n      tag_90\n      jump\t// in\n    tag_142:\n      0x00\n      mload(0x40)\n      dup1\n      dup4\n      sub\n      dup2\n      0x00\n      dup8\n      dup1\n      extcodesize\n      iszero\n      dup1\n      iszero\n      tag_143\n      jumpi\n      0x00\n      dup1\n      revert\n    tag_143:\n      pop\n      gas\n      call\n      iszero\n      dup1\n      iszero\n      tag_145\n      jumpi\n      returndatasize\n      0x00\n      dup1\n      returndatacopy\n      revert(0x00, returndatasize)\n    tag_145:\n      pop\n      pop\n      pop\n      pop\n        /* \"src/NFTmarket.sol\":1461:1482  removeOrder(_tokenID) */\n      tag_146\n        /* \"src/NFTmarket.sol\":1473:1481  _tokenID */\n      dup5\n        /* \"src/NFTmarket.sol\":1461:1472  removeOrder */\n      tag_95\n        /* \"src/NFTmarket.sol\":1461:1482  removeOrder(_tokenID) */\n      jump\t// in\n    tag_146:\n        /* \"src/NFTmarket.sol\":1500:1537  Deal(seller, buyer , _tokenID, price) */\n      0x424d5e5f0192c7dacdbe646ca31b00299146d883d76a95ef5cddbac7cd342eab\n        /* \"src/NFTmarket.sol\":1505:1511  seller */\n      dup4\n        /* \"src/NFTmarket.sol\":1513:1518  buyer */\n      dup4\n        /* \"src/NFTmarket.sol\":1521:1529  _tokenID */\n      dup7\n        /* \"src/NFTmarket.sol\":1531:1536  price */\n      dup5\n        /* \"src/NFTmarket.sol\":1500:1537  Deal(seller, buyer , _tokenID, price) */\n      mload(0x40)\n      tag_147\n      swap5\n      swap4\n      swap3\n      swap2\n      swap1\n      tag_148\n      jump\t// in\n    tag_147:\n      mload(0x40)\n      dup1\n      swap2\n      sub\n      swap1\n      log1\n        /* \"src/NFTmarket.sol\":1160:1545  {... */\n      pop\n      pop\n      pop\n        /* \"src/NFTmarket.sol\":1121:1545  function buy(uint256 _tokenID) external{... */\n      pop\n      jump\t// out\n        /* \"src/NFTmarket.sol\":3919:4011  function getAllNFTs() external view returns(Order[] memory) {... */\n    tag_60:\n        /* \"src/NFTmarket.sol\":3963:3977  Order[] memory */\n      0x60\n        /* \"src/NFTmarket.sol\":3997:4003  orders */\n      0x03\n        /* \"src/NFTmarket.sol\":3990:4003  return orders */\n      dup1\n      sload\n      dup1\n      0x20\n      mul\n      0x20\n      add\n      mload(0x40)\n      swap1\n      dup2\n      add\n      0x40\n      mstore\n      dup1\n      swap3\n      swap2\n      swap1\n      dup2\n      dup2\n      mstore\n      0x20\n      add\n      0x00\n      swap1\n    tag_150:\n      dup3\n      dup3\n      lt\n      iszero\n      tag_151\n      jumpi\n      dup4\n      dup3\n      swap1\n      0x00\n      mstore\n      keccak256(0x00, 0x20)\n      swap1\n      0x03\n      mul\n      add\n      mload(0x40)\n      dup1\n      0x60\n      add\n      0x40\n      mstore\n      swap1\n      dup2\n      0x00\n      dup3\n      add\n      0x00\n      swap1\n      sload\n      swap1\n      0x0100\n      exp\n      swap1\n      div\n      0xffffffffffffffffffffffffffffffffffffffff\n      and\n      0xffffffffffffffffffffffffffffffffffffffff\n      and\n      0xffffffffffffffffffffffffffffffffffffffff\n      and\n      dup2\n      mstore\n      0x20\n      add\n      0x01\n      dup3\n      add\n      sload\n      dup2\n      mstore\n      0x20\n      add\n      0x02\n      dup3\n      add\n      sload\n      dup2\n      mstore\n      pop\n      pop\n      dup2\n      mstore\n      0x20\n      add\n      swap1\n      0x01\n      add\n      swap1\n      jump(tag_150)\n    tag_151:\n      pop\n      pop\n      pop\n      pop\n      swap1\n      pop\n        /* \"src/NFTmarket.sol\":3919:4011  function getAllNFTs() external view returns(Order[] memory) {... */\n      swap1\n      jump\t// out\n        /* \"src/NFTmarket.sol\":2324:2452  function isListed(uint256 _tokenID) public view returns(bool) {... */\n    tag_64:\n        /* \"src/NFTmarket.sol\":2380:2384  bool */\n      0x00\n        /* \"src/NFTmarket.sol\":2442:2443  0 */\n      dup1\n        /* \"src/NFTmarket.sol\":2404:2444  IDinOrder[_tokenID].seller != address(0) */\n      0xffffffffffffffffffffffffffffffffffffffff\n      and\n        /* \"src/NFTmarket.sol\":2404:2413  IDinOrder */\n      0x02\n        /* \"src/NFTmarket.sol\":2404:2423  IDinOrder[_tokenID] */\n      0x00\n        /* \"src/NFTmarket.sol\":2414:2422  _tokenID */\n      dup5\n        /* \"src/NFTmarket.sol\":2404:2423  IDinOrder[_tokenID] */\n      dup2\n      mstore\n      0x20\n      add\n      swap1\n      dup2\n      mstore\n      0x20\n      add\n      0x00\n      keccak256\n        /* \"src/NFTmarket.sol\":2404:2430  IDinOrder[_tokenID].seller */\n      0x00\n      add\n      0x00\n      swap1\n      sload\n      swap1\n      0x0100\n      exp\n      swap1\n      div\n      0xffffffffffffffffffffffffffffffffffffffff\n      and\n        /* \"src/NFTmarket.sol\":2404:2444  IDinOrder[_tokenID].seller != address(0) */\n      0xffffffffffffffffffffffffffffffffffffffff\n      and\n      eq\n      iszero\n        /* \"src/NFTmarket.sol\":2397:2444  return IDinOrder[_tokenID].seller != address(0) */\n      swap1\n      pop\n        /* \"src/NFTmarket.sol\":2324:2452  function isListed(uint256 _tokenID) public view returns(bool) {... */\n      swap2\n      swap1\n      pop\n      jump\t// out\n        /* \"src/NFTmarket.sol\":2958:3412  function removeOrder(uint256 _tokenID) internal  {... */\n    tag_95:\n        /* \"src/NFTmarket.sol\":3018:3031  uint256 index */\n      0x00\n        /* \"src/NFTmarket.sol\":3034:3043  IDofOrder */\n      0x04\n        /* \"src/NFTmarket.sol\":3034:3053  IDofOrder[_tokenID] */\n      0x00\n        /* \"src/NFTmarket.sol\":3044:3052  _tokenID */\n      dup4\n        /* \"src/NFTmarket.sol\":3034:3053  IDofOrder[_tokenID] */\n      dup2\n      mstore\n      0x20\n      add\n      swap1\n      dup2\n      mstore\n      0x20\n      add\n      0x00\n      keccak256\n      sload\n        /* \"src/NFTmarket.sol\":3018:3053  uint256 index = IDofOrder[_tokenID] */\n      swap1\n      pop\n        /* \"src/NFTmarket.sol\":3064:3081  uint256 lastIndex */\n      0x00\n        /* \"src/NFTmarket.sol\":3100:3101  1 */\n      0x01\n        /* \"src/NFTmarket.sol\":3084:3090  orders */\n      0x03\n        /* \"src/NFTmarket.sol\":3084:3097  orders.length */\n      dup1\n      sload\n      swap1\n      pop\n        /* \"src/NFTmarket.sol\":3084:3101  orders.length - 1 */\n      tag_155\n      swap2\n      swap1\n      tag_74\n      jump\t// in\n    tag_155:\n        /* \"src/NFTmarket.sol\":3064:3101  uint256 lastIndex = orders.length - 1 */\n      swap1\n      pop\n        /* \"src/NFTmarket.sol\":3127:3136  lastIndex */\n      dup1\n        /* \"src/NFTmarket.sol\":3118:3123  index */\n      dup3\n        /* \"src/NFTmarket.sol\":3118:3136  index != lastIndex */\n      eq\n        /* \"src/NFTmarket.sol\":3114:3300  if (index != lastIndex){... */\n      tag_156\n      jumpi\n        /* \"src/NFTmarket.sol\":3152:3175  Order storage lastOrder */\n      0x00\n        /* \"src/NFTmarket.sol\":3178:3184  orders */\n      0x03\n        /* \"src/NFTmarket.sol\":3185:3194  lastIndex */\n      dup3\n        /* \"src/NFTmarket.sol\":3178:3195  orders[lastIndex] */\n      dup2\n      sload\n      dup2\n      lt\n      tag_157\n      jumpi\n      tag_158\n      tag_82\n      jump\t// in\n    tag_158:\n    tag_157:\n      swap1\n      0x00\n      mstore\n      keccak256(0x00, 0x20)\n      swap1\n      0x03\n      mul\n      add\n        /* \"src/NFTmarket.sol\":3152:3195  Order storage lastOrder = orders[lastIndex] */\n      swap1\n      pop\n        /* \"src/NFTmarket.sol\":3227:3236  lastOrder */\n      dup1\n        /* \"src/NFTmarket.sol\":3210:3216  orders */\n      0x03\n        /* \"src/NFTmarket.sol\":3217:3222  index */\n      dup5\n        /* \"src/NFTmarket.sol\":3210:3223  orders[index] */\n      dup2\n      sload\n      dup2\n      lt\n      tag_160\n      jumpi\n      tag_161\n      tag_82\n      jump\t// in\n    tag_161:\n    tag_160:\n      swap1\n      0x00\n      mstore\n      keccak256(0x00, 0x20)\n      swap1\n      0x03\n      mul\n      add\n        /* \"src/NFTmarket.sol\":3210:3236  orders[index] =  lastOrder */\n      0x00\n      dup3\n      add\n      0x00\n      swap1\n      sload\n      swap1\n      0x0100\n      exp\n      swap1\n      div\n      0xffffffffffffffffffffffffffffffffffffffff\n      and\n      dup2\n      0x00\n      add\n      exp(0x0100, 0x00)\n      dup2\n      sload\n      dup2\n      0xffffffffffffffffffffffffffffffffffffffff\n      mul\n      not\n      and\n      swap1\n      dup4\n      0xffffffffffffffffffffffffffffffffffffffff\n      and\n      mul\n      or\n      swap1\n      sstore\n      pop\n      0x01\n      dup3\n      add\n      sload\n      dup2\n      0x01\n      add\n      sstore\n      0x02\n      dup3\n      add\n      sload\n      dup2\n      0x02\n      add\n      sstore\n      swap1\n      pop\n      pop\n        /* \"src/NFTmarket.sol\":3282:3287  index */\n      dup3\n        /* \"src/NFTmarket.sol\":3251:3260  IDofOrder */\n      0x04\n        /* \"src/NFTmarket.sol\":3251:3279  IDofOrder[lastOrder.tokenID] */\n      0x00\n        /* \"src/NFTmarket.sol\":3261:3270  lastOrder */\n      dup4\n        /* \"src/NFTmarket.sol\":3261:3278  lastOrder.tokenID */\n      0x01\n      add\n      sload\n        /* \"src/NFTmarket.sol\":3251:3279  IDofOrder[lastOrder.tokenID] */\n      dup2\n      mstore\n      0x20\n      add\n      swap1\n      dup2\n      mstore\n      0x20\n      add\n      0x00\n      keccak256\n        /* \"src/NFTmarket.sol\":3251:3287  IDofOrder[lastOrder.tokenID] = index */\n      dup2\n      swap1\n      sstore\n      pop\n        /* \"src/NFTmarket.sol\":3137:3300  {... */\n      pop\n        /* \"src/NFTmarket.sol\":3114:3300  if (index != lastIndex){... */\n    tag_156:\n        /* \"src/NFTmarket.sol\":3321:3327  orders */\n      0x03\n        /* \"src/NFTmarket.sol\":3321:3333  orders.pop() */\n      dup1\n      sload\n      dup1\n      tag_163\n      jumpi\n      tag_164\n      tag_165\n      jump\t// in\n    tag_164:\n    tag_163:\n      0x01\n      swap1\n      sub\n      dup2\n      dup2\n      swap1\n      0x00\n      mstore\n      keccak256(0x00, 0x20)\n      swap1\n      0x03\n      mul\n      add\n      0x00\n      dup1\n      dup3\n      add\n      exp(0x0100, 0x00)\n      dup2\n      sload\n      swap1\n      0xffffffffffffffffffffffffffffffffffffffff\n      mul\n      not\n      and\n      swap1\n      sstore\n      0x01\n      dup3\n      add\n      0x00\n      swap1\n      sstore\n      0x02\n      dup3\n      add\n      0x00\n      swap1\n      sstore\n      pop\n      pop\n      swap1\n      sstore\n        /* \"src/NFTmarket.sol\":3351:3360  IDinOrder */\n      0x02\n        /* \"src/NFTmarket.sol\":3351:3370  IDinOrder[_tokenID] */\n      0x00\n        /* \"src/NFTmarket.sol\":3361:3369  _tokenID */\n      dup5\n        /* \"src/NFTmarket.sol\":3351:3370  IDinOrder[_tokenID] */\n      dup2\n      mstore\n      0x20\n      add\n      swap1\n      dup2\n      mstore\n      0x20\n      add\n      0x00\n      keccak256\n      0x00\n        /* \"src/NFTmarket.sol\":3344:3370  delete IDinOrder[_tokenID] */\n      dup1\n      dup3\n      add\n      exp(0x0100, 0x00)\n      dup2\n      sload\n      swap1\n      0xffffffffffffffffffffffffffffffffffffffff\n      mul\n      not\n      and\n      swap1\n      sstore\n      0x01\n      dup3\n      add\n      0x00\n      swap1\n      sstore\n      0x02\n      dup3\n      add\n      0x00\n      swap1\n      sstore\n      pop\n      pop\n        /* \"src/NFTmarket.sol\":3388:3397  IDofOrder */\n      0x04\n        /* \"src/NFTmarket.sol\":3388:3404  IDofOrder[index] */\n      0x00\n        /* \"src/NFTmarket.sol\":3398:3403  index */\n      dup4\n        /* \"src/NFTmarket.sol\":3388:3404  IDofOrder[index] */\n      dup2\n      mstore\n      0x20\n      add\n      swap1\n      dup2\n      mstore\n      0x20\n      add\n      0x00\n      keccak256\n        /* \"src/NFTmarket.sol\":3381:3404  delete IDofOrder[index] */\n      0x00\n      swap1\n      sstore\n        /* \"src/NFTmarket.sol\":3007:3412  {... */\n      pop\n      pop\n        /* \"src/NFTmarket.sol\":2958:3412  function removeOrder(uint256 _tokenID) internal  {... */\n      pop\n      jump\t// out\n    tag_105:\n      mload(0x40)\n      dup1\n      0x60\n      add\n      0x40\n      mstore\n      dup1\n      and(0xffffffffffffffffffffffffffffffffffffffff, 0x00)\n      dup2\n      mstore\n      0x20\n      add\n      0x00\n      dup2\n      mstore\n      0x20\n      add\n      0x00\n      dup2\n      mstore\n      pop\n      swap1\n      jump\t// out\n        /* \"#utility.yul\":7:82   */\n    tag_167:\n        /* \"#utility.yul\":40:46   */\n      0x00\n        /* \"#utility.yul\":73:75   */\n      0x40\n        /* \"#utility.yul\":67:76   */\n      mload\n        /* \"#utility.yul\":57:76   */\n      swap1\n      pop\n        /* \"#utility.yul\":7:82   */\n      swap1\n      jump\t// out\n        /* \"#utility.yul\":88:205   */\n    tag_168:\n        /* \"#utility.yul\":197:198   */\n      0x00\n        /* \"#utility.yul\":194:195   */\n      dup1\n        /* \"#utility.yul\":187:199   */\n      revert\n        /* \"#utility.yul\":211:328   */\n    tag_169:\n        /* \"#utility.yul\":320:321   */\n      0x00\n        /* \"#utility.yul\":317:318   */\n      dup1\n        /* \"#utility.yul\":310:322   */\n      revert\n        /* \"#utility.yul\":334:460   */\n    tag_170:\n        /* \"#utility.yul\":371:378   */\n      0x00\n        /* \"#utility.yul\":411:453   */\n      0xffffffffffffffffffffffffffffffffffffffff\n        /* \"#utility.yul\":404:409   */\n      dup3\n        /* \"#utility.yul\":400:454   */\n      and\n        /* \"#utility.yul\":389:454   */\n      swap1\n      pop\n        /* \"#utility.yul\":334:460   */\n      swap2\n      swap1\n      pop\n      jump\t// out\n        /* \"#utility.yul\":466:562   */\n    tag_171:\n        /* \"#utility.yul\":503:510   */\n      0x00\n        /* \"#utility.yul\":532:556   */\n      tag_231\n        /* \"#utility.yul\":550:555   */\n      dup3\n        /* \"#utility.yul\":532:556   */\n      tag_170\n      jump\t// in\n    tag_231:\n        /* \"#utility.yul\":521:556   */\n      swap1\n      pop\n        /* \"#utility.yul\":466:562   */\n      swap2\n      swap1\n      pop\n      jump\t// out\n        /* \"#utility.yul\":568:690   */\n    tag_172:\n        /* \"#utility.yul\":641:665   */\n      tag_233\n        /* \"#utility.yul\":659:664   */\n      dup2\n        /* \"#utility.yul\":641:665   */\n      tag_171\n      jump\t// in\n    tag_233:\n        /* \"#utility.yul\":634:639   */\n      dup2\n        /* \"#utility.yul\":631:666   */\n      eq\n        /* \"#utility.yul\":621:684   */\n      tag_234\n      jumpi\n        /* \"#utility.yul\":680:681   */\n      0x00\n        /* \"#utility.yul\":677:678   */\n      dup1\n        /* \"#utility.yul\":670:682   */\n      revert\n        /* \"#utility.yul\":621:684   */\n    tag_234:\n        /* \"#utility.yul\":568:690   */\n      pop\n      jump\t// out\n        /* \"#utility.yul\":696:835   */\n    tag_173:\n        /* \"#utility.yul\":742:747   */\n      0x00\n        /* \"#utility.yul\":780:786   */\n      dup2\n        /* \"#utility.yul\":767:787   */\n      calldataload\n        /* \"#utility.yul\":758:787   */\n      swap1\n      pop\n        /* \"#utility.yul\":796:829   */\n      tag_236\n        /* \"#utility.yul\":823:828   */\n      dup2\n        /* \"#utility.yul\":796:829   */\n      tag_172\n      jump\t// in\n    tag_236:\n        /* \"#utility.yul\":696:835   */\n      swap3\n      swap2\n      pop\n      pop\n      jump\t// out\n        /* \"#utility.yul\":841:918   */\n    tag_174:\n        /* \"#utility.yul\":878:885   */\n      0x00\n        /* \"#utility.yul\":907:912   */\n      dup2\n        /* \"#utility.yul\":896:912   */\n      swap1\n      pop\n        /* \"#utility.yul\":841:918   */\n      swap2\n      swap1\n      pop\n      jump\t// out\n        /* \"#utility.yul\":924:1046   */\n    tag_175:\n        /* \"#utility.yul\":997:1021   */\n      tag_239\n        /* \"#utility.yul\":1015:1020   */\n      dup2\n        /* \"#utility.yul\":997:1021   */\n      tag_174\n      jump\t// in\n    tag_239:\n        /* \"#utility.yul\":990:995   */\n      dup2\n        /* \"#utility.yul\":987:1022   */\n      eq\n        /* \"#utility.yul\":977:1040   */\n      tag_240\n      jumpi\n        /* \"#utility.yul\":1036:1037   */\n      0x00\n        /* \"#utility.yul\":1033:1034   */\n      dup1\n        /* \"#utility.yul\":1026:1038   */\n      revert\n        /* \"#utility.yul\":977:1040   */\n    tag_240:\n        /* \"#utility.yul\":924:1046   */\n      pop\n      jump\t// out\n        /* \"#utility.yul\":1052:1191   */\n    tag_176:\n        /* \"#utility.yul\":1098:1103   */\n      0x00\n        /* \"#utility.yul\":1136:1142   */\n      dup2\n        /* \"#utility.yul\":1123:1143   */\n      calldataload\n        /* \"#utility.yul\":1114:1143   */\n      swap1\n      pop\n        /* \"#utility.yul\":1152:1185   */\n      tag_242\n        /* \"#utility.yul\":1179:1184   */\n      dup2\n        /* \"#utility.yul\":1152:1185   */\n      tag_175\n      jump\t// in\n    tag_242:\n        /* \"#utility.yul\":1052:1191   */\n      swap3\n      swap2\n      pop\n      pop\n      jump\t// out\n        /* \"#utility.yul\":1197:1314   */\n    tag_177:\n        /* \"#utility.yul\":1306:1307   */\n      0x00\n        /* \"#utility.yul\":1303:1304   */\n      dup1\n        /* \"#utility.yul\":1296:1308   */\n      revert\n        /* \"#utility.yul\":1320:1437   */\n    tag_178:\n        /* \"#utility.yul\":1429:1430   */\n      0x00\n        /* \"#utility.yul\":1426:1427   */\n      dup1\n        /* \"#utility.yul\":1419:1431   */\n      revert\n        /* \"#utility.yul\":1443:1560   */\n    tag_179:\n        /* \"#utility.yul\":1552:1553   */\n      0x00\n        /* \"#utility.yul\":1549:1550   */\n      dup1\n        /* \"#utility.yul\":1542:1554   */\n      revert\n        /* \"#utility.yul\":1579:2131   */\n    tag_180:\n        /* \"#utility.yul\":1636:1644   */\n      0x00\n        /* \"#utility.yul\":1646:1652   */\n      dup1\n        /* \"#utility.yul\":1696:1699   */\n      dup4\n        /* \"#utility.yul\":1689:1693   */\n      0x1f\n        /* \"#utility.yul\":1681:1687   */\n      dup5\n        /* \"#utility.yul\":1677:1694   */\n      add\n        /* \"#utility.yul\":1673:1700   */\n      slt\n        /* \"#utility.yul\":1663:1785   */\n      tag_247\n      jumpi\n        /* \"#utility.yul\":1704:1783   */\n      tag_248\n      tag_177\n      jump\t// in\n    tag_248:\n        /* \"#utility.yul\":1663:1785   */\n    tag_247:\n        /* \"#utility.yul\":1817:1823   */\n      dup3\n        /* \"#utility.yul\":1804:1824   */\n      calldataload\n        /* \"#utility.yul\":1794:1824   */\n      swap1\n      pop\n        /* \"#utility.yul\":1847:1865   */\n      0xffffffffffffffff\n        /* \"#utility.yul\":1839:1845   */\n      dup2\n        /* \"#utility.yul\":1836:1866   */\n      gt\n        /* \"#utility.yul\":1833:1950   */\n      iszero\n      tag_249\n      jumpi\n        /* \"#utility.yul\":1869:1948   */\n      tag_250\n      tag_178\n      jump\t// in\n    tag_250:\n        /* \"#utility.yul\":1833:1950   */\n    tag_249:\n        /* \"#utility.yul\":1983:1987   */\n      0x20\n        /* \"#utility.yul\":1975:1981   */\n      dup4\n        /* \"#utility.yul\":1971:1988   */\n      add\n        /* \"#utility.yul\":1959:1988   */\n      swap2\n      pop\n        /* \"#utility.yul\":2037:2040   */\n      dup4\n        /* \"#utility.yul\":2029:2033   */\n      0x01\n        /* \"#utility.yul\":2021:2027   */\n      dup3\n        /* \"#utility.yul\":2017:2034   */\n      mul\n        /* \"#utility.yul\":2007:2015   */\n      dup4\n        /* \"#utility.yul\":2003:2035   */\n      add\n        /* \"#utility.yul\":2000:2041   */\n      gt\n        /* \"#utility.yul\":1997:2125   */\n      iszero\n      tag_251\n      jumpi\n        /* \"#utility.yul\":2044:2123   */\n      tag_252\n      tag_179\n      jump\t// in\n    tag_252:\n        /* \"#utility.yul\":1997:2125   */\n    tag_251:\n        /* \"#utility.yul\":1579:2131   */\n      swap3\n      pop\n      swap3\n      swap1\n      pop\n      jump\t// out\n        /* \"#utility.yul\":2137:3100   */\n    tag_18:\n        /* \"#utility.yul\":2234:2240   */\n      0x00\n        /* \"#utility.yul\":2242:2248   */\n      dup1\n        /* \"#utility.yul\":2250:2256   */\n      0x00\n        /* \"#utility.yul\":2258:2264   */\n      dup1\n        /* \"#utility.yul\":2266:2272   */\n      0x00\n        /* \"#utility.yul\":2315:2318   */\n      0x80\n        /* \"#utility.yul\":2303:2312   */\n      dup7\n        /* \"#utility.yul\":2294:2301   */\n      dup9\n        /* \"#utility.yul\":2290:2313   */\n      sub\n        /* \"#utility.yul\":2286:2319   */\n      slt\n        /* \"#utility.yul\":2283:2403   */\n      iszero\n      tag_254\n      jumpi\n        /* \"#utility.yul\":2322:2401   */\n      tag_255\n      tag_168\n      jump\t// in\n    tag_255:\n        /* \"#utility.yul\":2283:2403   */\n    tag_254:\n        /* \"#utility.yul\":2442:2443   */\n      0x00\n        /* \"#utility.yul\":2467:2520   */\n      tag_256\n        /* \"#utility.yul\":2512:2519   */\n      dup9\n        /* \"#utility.yul\":2503:2509   */\n      dup3\n        /* \"#utility.yul\":2492:2501   */\n      dup10\n        /* \"#utility.yul\":2488:2510   */\n      add\n        /* \"#utility.yul\":2467:2520   */\n      tag_173\n      jump\t// in\n    tag_256:\n        /* \"#utility.yul\":2457:2520   */\n      swap6\n      pop\n        /* \"#utility.yul\":2413:2530   */\n      pop\n        /* \"#utility.yul\":2569:2571   */\n      0x20\n        /* \"#utility.yul\":2595:2648   */\n      tag_257\n        /* \"#utility.yul\":2640:2647   */\n      dup9\n        /* \"#utility.yul\":2631:2637   */\n      dup3\n        /* \"#utility.yul\":2620:2629   */\n      dup10\n        /* \"#utility.yul\":2616:2638   */\n      add\n        /* \"#utility.yul\":2595:2648   */\n      tag_173\n      jump\t// in\n    tag_257:\n        /* \"#utility.yul\":2585:2648   */\n      swap5\n      pop\n        /* \"#utility.yul\":2540:2658   */\n      pop\n        /* \"#utility.yul\":2697:2699   */\n      0x40\n        /* \"#utility.yul\":2723:2776   */\n      tag_258\n        /* \"#utility.yul\":2768:2775   */\n      dup9\n        /* \"#utility.yul\":2759:2765   */\n      dup3\n        /* \"#utility.yul\":2748:2757   */\n      dup10\n        /* \"#utility.yul\":2744:2766   */\n      add\n        /* \"#utility.yul\":2723:2776   */\n      tag_176\n      jump\t// in\n    tag_258:\n        /* \"#utility.yul\":2713:2776   */\n      swap4\n      pop\n        /* \"#utility.yul\":2668:2786   */\n      pop\n        /* \"#utility.yul\":2853:2855   */\n      0x60\n        /* \"#utility.yul\":2842:2851   */\n      dup7\n        /* \"#utility.yul\":2838:2856   */\n      add\n        /* \"#utility.yul\":2825:2857   */\n      calldataload\n        /* \"#utility.yul\":2884:2902   */\n      0xffffffffffffffff\n        /* \"#utility.yul\":2876:2882   */\n      dup2\n        /* \"#utility.yul\":2873:2903   */\n      gt\n        /* \"#utility.yul\":2870:2987   */\n      iszero\n      tag_259\n      jumpi\n        /* \"#utility.yul\":2906:2985   */\n      tag_260\n      tag_169\n      jump\t// in\n    tag_260:\n        /* \"#utility.yul\":2870:2987   */\n    tag_259:\n        /* \"#utility.yul\":3019:3083   */\n      tag_261\n        /* \"#utility.yul\":3075:3082   */\n      dup9\n        /* \"#utility.yul\":3066:3072   */\n      dup3\n        /* \"#utility.yul\":3055:3064   */\n      dup10\n        /* \"#utility.yul\":3051:3073   */\n      add\n        /* \"#utility.yul\":3019:3083   */\n      tag_180\n      jump\t// in\n    tag_261:\n        /* \"#utility.yul\":3001:3083   */\n      swap3\n      pop\n      swap3\n      pop\n        /* \"#utility.yul\":2796:3093   */\n      pop\n        /* \"#utility.yul\":2137:3100   */\n      swap3\n      swap6\n      pop\n      swap3\n      swap6\n      swap1\n      swap4\n      pop\n      jump\t// out\n        /* \"#utility.yul\":3106:3255   */\n    tag_181:\n        /* \"#utility.yul\":3142:3149   */\n      0x00\n        /* \"#utility.yul\":3182:3248   */\n      0xffffffff00000000000000000000000000000000000000000000000000000000\n        /* \"#utility.yul\":3175:3180   */\n      dup3\n        /* \"#utility.yul\":3171:3249   */\n      and\n        /* \"#utility.yul\":3160:3249   */\n      swap1\n      pop\n        /* \"#utility.yul\":3106:3255   */\n      swap2\n      swap1\n      pop\n      jump\t// out\n        /* \"#utility.yul\":3261:3376   */\n    tag_182:\n        /* \"#utility.yul\":3346:3369   */\n      tag_264\n        /* \"#utility.yul\":3363:3368   */\n      dup2\n        /* \"#utility.yul\":3346:3369   */\n      tag_181\n      jump\t// in\n    tag_264:\n        /* \"#utility.yul\":3341:3344   */\n      dup3\n        /* \"#utility.yul\":3334:3370   */\n      mstore\n        /* \"#utility.yul\":3261:3376   */\n      pop\n      pop\n      jump\t// out\n        /* \"#utility.yul\":3382:3600   */\n    tag_21:\n        /* \"#utility.yul\":3473:3477   */\n      0x00\n        /* \"#utility.yul\":3511:3513   */\n      0x20\n        /* \"#utility.yul\":3500:3509   */\n      dup3\n        /* \"#utility.yul\":3496:3514   */\n      add\n        /* \"#utility.yul\":3488:3514   */\n      swap1\n      pop\n        /* \"#utility.yul\":3524:3593   */\n      tag_266\n        /* \"#utility.yul\":3590:3591   */\n      0x00\n        /* \"#utility.yul\":3579:3588   */\n      dup4\n        /* \"#utility.yul\":3575:3592   */\n      add\n        /* \"#utility.yul\":3566:3572   */\n      dup5\n        /* \"#utility.yul\":3524:3593   */\n      tag_182\n      jump\t// in\n    tag_266:\n        /* \"#utility.yul\":3382:3600   */\n      swap3\n      swap2\n      pop\n      pop\n      jump\t// out\n        /* \"#utility.yul\":3606:4080   */\n    tag_24:\n        /* \"#utility.yul\":3674:3680   */\n      0x00\n        /* \"#utility.yul\":3682:3688   */\n      dup1\n        /* \"#utility.yul\":3731:3733   */\n      0x40\n        /* \"#utility.yul\":3719:3728   */\n      dup4\n        /* \"#utility.yul\":3710:3717   */\n      dup6\n        /* \"#utility.yul\":3706:3729   */\n      sub\n        /* \"#utility.yul\":3702:3734   */\n      slt\n        /* \"#utility.yul\":3699:3818   */\n      iszero\n      tag_268\n      jumpi\n        /* \"#utility.yul\":3737:3816   */\n      tag_269\n      tag_168\n      jump\t// in\n    tag_269:\n        /* \"#utility.yul\":3699:3818   */\n    tag_268:\n        /* \"#utility.yul\":3857:3858   */\n      0x00\n        /* \"#utility.yul\":3882:3935   */\n      tag_270\n        /* \"#utility.yul\":3927:3934   */\n      dup6\n        /* \"#utility.yul\":3918:3924   */\n      dup3\n        /* \"#utility.yul\":3907:3916   */\n      dup7\n        /* \"#utility.yul\":3903:3925   */\n      add\n        /* \"#utility.yul\":3882:3935   */\n      tag_176\n      jump\t// in\n    tag_270:\n        /* \"#utility.yul\":3872:3935   */\n      swap3\n      pop\n        /* \"#utility.yul\":3828:3945   */\n      pop\n        /* \"#utility.yul\":3984:3986   */\n      0x20\n        /* \"#utility.yul\":4010:4063   */\n      tag_271\n        /* \"#utility.yul\":4055:4062   */\n      dup6\n        /* \"#utility.yul\":4046:4052   */\n      dup3\n        /* \"#utility.yul\":4035:4044   */\n      dup7\n        /* \"#utility.yul\":4031:4053   */\n      add\n        /* \"#utility.yul\":4010:4063   */\n      tag_176\n      jump\t// in\n    tag_271:\n        /* \"#utility.yul\":4000:4063   */\n      swap2\n      pop\n        /* \"#utility.yul\":3955:4073   */\n      pop\n        /* \"#utility.yul\":3606:4080   */\n      swap3\n      pop\n      swap3\n      swap1\n      pop\n      jump\t// out\n        /* \"#utility.yul\":4086:4415   */\n    tag_28:\n        /* \"#utility.yul\":4145:4151   */\n      0x00\n        /* \"#utility.yul\":4194:4196   */\n      0x20\n        /* \"#utility.yul\":4182:4191   */\n      dup3\n        /* \"#utility.yul\":4173:4180   */\n      dup5\n        /* \"#utility.yul\":4169:4192   */\n      sub\n        /* \"#utility.yul\":4165:4197   */\n      slt\n        /* \"#utility.yul\":4162:4281   */\n      iszero\n      tag_273\n      jumpi\n        /* \"#utility.yul\":4200:4279   */\n      tag_274\n      tag_168\n      jump\t// in\n    tag_274:\n        /* \"#utility.yul\":4162:4281   */\n    tag_273:\n        /* \"#utility.yul\":4320:4321   */\n      0x00\n        /* \"#utility.yul\":4345:4398   */\n      tag_275\n        /* \"#utility.yul\":4390:4397   */\n      dup5\n        /* \"#utility.yul\":4381:4387   */\n      dup3\n        /* \"#utility.yul\":4370:4379   */\n      dup6\n        /* \"#utility.yul\":4366:4388   */\n      add\n        /* \"#utility.yul\":4345:4398   */\n      tag_176\n      jump\t// in\n    tag_275:\n        /* \"#utility.yul\":4335:4398   */\n      swap2\n      pop\n        /* \"#utility.yul\":4291:4408   */\n      pop\n        /* \"#utility.yul\":4086:4415   */\n      swap3\n      swap2\n      pop\n      pop\n      jump\t// out\n        /* \"#utility.yul\":4421:4558   */\n    tag_183:\n        /* \"#utility.yul\":4511:4517   */\n      0x00\n        /* \"#utility.yul\":4545:4550   */\n      dup2\n        /* \"#utility.yul\":4539:4551   */\n      mload\n        /* \"#utility.yul\":4529:4551   */\n      swap1\n      pop\n        /* \"#utility.yul\":4421:4558   */\n      swap2\n      swap1\n      pop\n      jump\t// out\n        /* \"#utility.yul\":4564:4771   */\n    tag_184:\n        /* \"#utility.yul\":4686:4697   */\n      0x00\n        /* \"#utility.yul\":4720:4726   */\n      dup3\n        /* \"#utility.yul\":4715:4718   */\n      dup3\n        /* \"#utility.yul\":4708:4727   */\n      mstore\n        /* \"#utility.yul\":4760:4764   */\n      0x20\n        /* \"#utility.yul\":4755:4758   */\n      dup3\n        /* \"#utility.yul\":4751:4765   */\n      add\n        /* \"#utility.yul\":4736:4765   */\n      swap1\n      pop\n        /* \"#utility.yul\":4564:4771   */\n      swap3\n      swap2\n      pop\n      pop\n      jump\t// out\n        /* \"#utility.yul\":4777:4932   */\n    tag_185:\n        /* \"#utility.yul\":4867:4871   */\n      0x00\n        /* \"#utility.yul\":4890:4893   */\n      dup2\n        /* \"#utility.yul\":4882:4893   */\n      swap1\n      pop\n        /* \"#utility.yul\":4920:4924   */\n      0x20\n        /* \"#utility.yul\":4915:4918   */\n      dup3\n        /* \"#utility.yul\":4911:4925   */\n      add\n        /* \"#utility.yul\":4903:4925   */\n      swap1\n      pop\n        /* \"#utility.yul\":4777:4932   */\n      swap2\n      swap1\n      pop\n      jump\t// out\n        /* \"#utility.yul\":4938:5046   */\n    tag_186:\n        /* \"#utility.yul\":5015:5039   */\n      tag_280\n        /* \"#utility.yul\":5033:5038   */\n      dup2\n        /* \"#utility.yul\":5015:5039   */\n      tag_171\n      jump\t// in\n    tag_280:\n        /* \"#utility.yul\":5010:5013   */\n      dup3\n        /* \"#utility.yul\":5003:5040   */\n      mstore\n        /* \"#utility.yul\":4938:5046   */\n      pop\n      pop\n      jump\t// out\n        /* \"#utility.yul\":5052:5160   */\n    tag_187:\n        /* \"#utility.yul\":5129:5153   */\n      tag_282\n        /* \"#utility.yul\":5147:5152   */\n      dup2\n        /* \"#utility.yul\":5129:5153   */\n      tag_174\n      jump\t// in\n    tag_282:\n        /* \"#utility.yul\":5124:5127   */\n      dup3\n        /* \"#utility.yul\":5117:5154   */\n      mstore\n        /* \"#utility.yul\":5052:5160   */\n      pop\n      pop\n      jump\t// out\n        /* \"#utility.yul\":5222:5895   */\n    tag_188:\n        /* \"#utility.yul\":5355:5359   */\n      0x60\n        /* \"#utility.yul\":5350:5353   */\n      dup3\n        /* \"#utility.yul\":5346:5360   */\n      add\n        /* \"#utility.yul\":5444:5448   */\n      0x00\n        /* \"#utility.yul\":5437:5442   */\n      dup3\n        /* \"#utility.yul\":5433:5449   */\n      add\n        /* \"#utility.yul\":5427:5450   */\n      mload\n        /* \"#utility.yul\":5463:5526   */\n      tag_284\n        /* \"#utility.yul\":5520:5524   */\n      0x00\n        /* \"#utility.yul\":5515:5518   */\n      dup6\n        /* \"#utility.yul\":5511:5525   */\n      add\n        /* \"#utility.yul\":5497:5509   */\n      dup3\n        /* \"#utility.yul\":5463:5526   */\n      tag_186\n      jump\t// in\n    tag_284:\n        /* \"#utility.yul\":5370:5536   */\n      pop\n        /* \"#utility.yul\":5621:5625   */\n      0x20\n        /* \"#utility.yul\":5614:5619   */\n      dup3\n        /* \"#utility.yul\":5610:5626   */\n      add\n        /* \"#utility.yul\":5604:5627   */\n      mload\n        /* \"#utility.yul\":5640:5703   */\n      tag_285\n        /* \"#utility.yul\":5697:5701   */\n      0x20\n        /* \"#utility.yul\":5692:5695   */\n      dup6\n        /* \"#utility.yul\":5688:5702   */\n      add\n        /* \"#utility.yul\":5674:5686   */\n      dup3\n        /* \"#utility.yul\":5640:5703   */\n      tag_187\n      jump\t// in\n    tag_285:\n        /* \"#utility.yul\":5546:5713   */\n      pop\n        /* \"#utility.yul\":5796:5800   */\n      0x40\n        /* \"#utility.yul\":5789:5794   */\n      dup3\n        /* \"#utility.yul\":5785:5801   */\n      add\n        /* \"#utility.yul\":5779:5802   */\n      mload\n        /* \"#utility.yul\":5815:5878   */\n      tag_286\n        /* \"#utility.yul\":5872:5876   */\n      0x40\n        /* \"#utility.yul\":5867:5870   */\n      dup6\n        /* \"#utility.yul\":5863:5877   */\n      add\n        /* \"#utility.yul\":5849:5861   */\n      dup3\n        /* \"#utility.yul\":5815:5878   */\n      tag_187\n      jump\t// in\n    tag_286:\n        /* \"#utility.yul\":5723:5888   */\n      pop\n        /* \"#utility.yul\":5324:5895   */\n      pop\n        /* \"#utility.yul\":5222:5895   */\n      pop\n      pop\n      jump\t// out\n        /* \"#utility.yul\":5901:6172   */\n    tag_189:\n        /* \"#utility.yul\":6016:6026   */\n      0x00\n        /* \"#utility.yul\":6037:6129   */\n      tag_288\n        /* \"#utility.yul\":6125:6128   */\n      dup4\n        /* \"#utility.yul\":6117:6123   */\n      dup4\n        /* \"#utility.yul\":6037:6129   */\n      tag_188\n      jump\t// in\n    tag_288:\n        /* \"#utility.yul\":6161:6165   */\n      0x60\n        /* \"#utility.yul\":6156:6159   */\n      dup4\n        /* \"#utility.yul\":6152:6166   */\n      add\n        /* \"#utility.yul\":6138:6166   */\n      swap1\n      pop\n        /* \"#utility.yul\":5901:6172   */\n      swap3\n      swap2\n      pop\n      pop\n      jump\t// out\n        /* \"#utility.yul\":6178:6314   */\n    tag_190:\n        /* \"#utility.yul\":6271:6275   */\n      0x00\n        /* \"#utility.yul\":6303:6307   */\n      0x20\n        /* \"#utility.yul\":6298:6301   */\n      dup3\n        /* \"#utility.yul\":6294:6308   */\n      add\n        /* \"#utility.yul\":6286:6308   */\n      swap1\n      pop\n        /* \"#utility.yul\":6178:6314   */\n      swap2\n      swap1\n      pop\n      jump\t// out\n        /* \"#utility.yul\":6380:7296   */\n    tag_191:\n        /* \"#utility.yul\":6545:6548   */\n      0x00\n        /* \"#utility.yul\":6574:6651   */\n      tag_291\n        /* \"#utility.yul\":6645:6650   */\n      dup3\n        /* \"#utility.yul\":6574:6651   */\n      tag_183\n      jump\t// in\n    tag_291:\n        /* \"#utility.yul\":6667:6776   */\n      tag_292\n        /* \"#utility.yul\":6769:6775   */\n      dup2\n        /* \"#utility.yul\":6764:6767   */\n      dup6\n        /* \"#utility.yul\":6667:6776   */\n      tag_184\n      jump\t// in\n    tag_292:\n        /* \"#utility.yul\":6660:6776   */\n      swap4\n      pop\n        /* \"#utility.yul\":6800:6879   */\n      tag_293\n        /* \"#utility.yul\":6873:6878   */\n      dup4\n        /* \"#utility.yul\":6800:6879   */\n      tag_185\n      jump\t// in\n    tag_293:\n        /* \"#utility.yul\":6902:6909   */\n      dup1\n        /* \"#utility.yul\":6933:6934   */\n      0x00\n        /* \"#utility.yul\":6918:7271   */\n    tag_294:\n        /* \"#utility.yul\":6943:6949   */\n      dup4\n        /* \"#utility.yul\":6940:6941   */\n      dup2\n        /* \"#utility.yul\":6937:6950   */\n      lt\n        /* \"#utility.yul\":6918:7271   */\n      iszero\n      tag_296\n      jumpi\n        /* \"#utility.yul\":7019:7025   */\n      dup2\n        /* \"#utility.yul\":7013:7026   */\n      mload\n        /* \"#utility.yul\":7046:7155   */\n      tag_297\n        /* \"#utility.yul\":7151:7154   */\n      dup9\n        /* \"#utility.yul\":7136:7149   */\n      dup3\n        /* \"#utility.yul\":7046:7155   */\n      tag_189\n      jump\t// in\n    tag_297:\n        /* \"#utility.yul\":7039:7155   */\n      swap8\n      pop\n        /* \"#utility.yul\":7178:7261   */\n      tag_298\n        /* \"#utility.yul\":7254:7260   */\n      dup4\n        /* \"#utility.yul\":7178:7261   */\n      tag_190\n      jump\t// in\n    tag_298:\n        /* \"#utility.yul\":7168:7261   */\n      swap3\n      pop\n        /* \"#utility.yul\":6978:7271   */\n      pop\n        /* \"#utility.yul\":6965:6966   */\n      0x01\n        /* \"#utility.yul\":6962:6963   */\n      dup2\n        /* \"#utility.yul\":6958:6967   */\n      add\n        /* \"#utility.yul\":6953:6967   */\n      swap1\n      pop\n        /* \"#utility.yul\":6918:7271   */\n      jump(tag_294)\n    tag_296:\n        /* \"#utility.yul\":6922:6936   */\n      pop\n        /* \"#utility.yul\":7287:7290   */\n      dup6\n        /* \"#utility.yul\":7280:7290   */\n      swap4\n      pop\n        /* \"#utility.yul\":6550:7296   */\n      pop\n      pop\n      pop\n        /* \"#utility.yul\":6380:7296   */\n      swap3\n      swap2\n      pop\n      pop\n      jump\t// out\n        /* \"#utility.yul\":7302:7767   */\n    tag_33:\n        /* \"#utility.yul\":7491:7495   */\n      0x00\n        /* \"#utility.yul\":7529:7531   */\n      0x20\n        /* \"#utility.yul\":7518:7527   */\n      dup3\n        /* \"#utility.yul\":7514:7532   */\n      add\n        /* \"#utility.yul\":7506:7532   */\n      swap1\n      pop\n        /* \"#utility.yul\":7578:7587   */\n      dup2\n        /* \"#utility.yul\":7572:7576   */\n      dup2\n        /* \"#utility.yul\":7568:7588   */\n      sub\n        /* \"#utility.yul\":7564:7565   */\n      0x00\n        /* \"#utility.yul\":7553:7562   */\n      dup4\n        /* \"#utility.yul\":7549:7566   */\n      add\n        /* \"#utility.yul\":7542:7589   */\n      mstore\n        /* \"#utility.yul\":7606:7760   */\n      tag_300\n        /* \"#utility.yul\":7755:7759   */\n      dup2\n        /* \"#utility.yul\":7746:7752   */\n      dup5\n        /* \"#utility.yul\":7606:7760   */\n      tag_191\n      jump\t// in\n    tag_300:\n        /* \"#utility.yul\":7598:7760   */\n      swap1\n      pop\n        /* \"#utility.yul\":7302:7767   */\n      swap3\n      swap2\n      pop\n      pop\n      jump\t// out\n        /* \"#utility.yul\":7773:7833   */\n    tag_192:\n        /* \"#utility.yul\":7801:7804   */\n      0x00\n        /* \"#utility.yul\":7822:7827   */\n      dup2\n        /* \"#utility.yul\":7815:7827   */\n      swap1\n      pop\n        /* \"#utility.yul\":7773:7833   */\n      swap2\n      swap1\n      pop\n      jump\t// out\n        /* \"#utility.yul\":7839:7981   */\n    tag_193:\n        /* \"#utility.yul\":7889:7898   */\n      0x00\n        /* \"#utility.yul\":7922:7975   */\n      tag_303\n        /* \"#utility.yul\":7940:7974   */\n      tag_304\n        /* \"#utility.yul\":7949:7973   */\n      tag_305\n        /* \"#utility.yul\":7967:7972   */\n      dup5\n        /* \"#utility.yul\":7949:7973   */\n      tag_170\n      jump\t// in\n    tag_305:\n        /* \"#utility.yul\":7940:7974   */\n      tag_192\n      jump\t// in\n    tag_304:\n        /* \"#utility.yul\":7922:7975   */\n      tag_170\n      jump\t// in\n    tag_303:\n        /* \"#utility.yul\":7909:7975   */\n      swap1\n      pop\n        /* \"#utility.yul\":7839:7981   */\n      swap2\n      swap1\n      pop\n      jump\t// out\n        /* \"#utility.yul\":7987:8113   */\n    tag_194:\n        /* \"#utility.yul\":8037:8046   */\n      0x00\n        /* \"#utility.yul\":8070:8107   */\n      tag_307\n        /* \"#utility.yul\":8101:8106   */\n      dup3\n        /* \"#utility.yul\":8070:8107   */\n      tag_193\n      jump\t// in\n    tag_307:\n        /* \"#utility.yul\":8057:8107   */\n      swap1\n      pop\n        /* \"#utility.yul\":7987:8113   */\n      swap2\n      swap1\n      pop\n      jump\t// out\n        /* \"#utility.yul\":8119:8259   */\n    tag_195:\n        /* \"#utility.yul\":8183:8192   */\n      0x00\n        /* \"#utility.yul\":8216:8253   */\n      tag_309\n        /* \"#utility.yul\":8247:8252   */\n      dup3\n        /* \"#utility.yul\":8216:8253   */\n      tag_194\n      jump\t// in\n    tag_309:\n        /* \"#utility.yul\":8203:8253   */\n      swap1\n      pop\n        /* \"#utility.yul\":8119:8259   */\n      swap2\n      swap1\n      pop\n      jump\t// out\n        /* \"#utility.yul\":8265:8424   */\n    tag_196:\n        /* \"#utility.yul\":8366:8417   */\n      tag_311\n        /* \"#utility.yul\":8411:8416   */\n      dup2\n        /* \"#utility.yul\":8366:8417   */\n      tag_195\n      jump\t// in\n    tag_311:\n        /* \"#utility.yul\":8361:8364   */\n      dup3\n        /* \"#utility.yul\":8354:8418   */\n      mstore\n        /* \"#utility.yul\":8265:8424   */\n      pop\n      pop\n      jump\t// out\n        /* \"#utility.yul\":8430:8680   */\n    tag_37:\n        /* \"#utility.yul\":8537:8541   */\n      0x00\n        /* \"#utility.yul\":8575:8577   */\n      0x20\n        /* \"#utility.yul\":8564:8573   */\n      dup3\n        /* \"#utility.yul\":8560:8578   */\n      add\n        /* \"#utility.yul\":8552:8578   */\n      swap1\n      pop\n        /* \"#utility.yul\":8588:8673   */\n      tag_313\n        /* \"#utility.yul\":8670:8671   */\n      0x00\n        /* \"#utility.yul\":8659:8668   */\n      dup4\n        /* \"#utility.yul\":8655:8672   */\n      add\n        /* \"#utility.yul\":8646:8652   */\n      dup5\n        /* \"#utility.yul\":8588:8673   */\n      tag_196\n      jump\t// in\n    tag_313:\n        /* \"#utility.yul\":8430:8680   */\n      swap3\n      swap2\n      pop\n      pop\n      jump\t// out\n        /* \"#utility.yul\":8686:8804   */\n    tag_197:\n        /* \"#utility.yul\":8773:8797   */\n      tag_315\n        /* \"#utility.yul\":8791:8796   */\n      dup2\n        /* \"#utility.yul\":8773:8797   */\n      tag_174\n      jump\t// in\n    tag_315:\n        /* \"#utility.yul\":8768:8771   */\n      dup3\n        /* \"#utility.yul\":8761:8798   */\n      mstore\n        /* \"#utility.yul\":8686:8804   */\n      pop\n      pop\n      jump\t// out\n        /* \"#utility.yul\":8810:9032   */\n    tag_41:\n        /* \"#utility.yul\":8903:8907   */\n      0x00\n        /* \"#utility.yul\":8941:8943   */\n      0x20\n        /* \"#utility.yul\":8930:8939   */\n      dup3\n        /* \"#utility.yul\":8926:8944   */\n      add\n        /* \"#utility.yul\":8918:8944   */\n      swap1\n      pop\n        /* \"#utility.yul\":8954:9025   */\n      tag_317\n        /* \"#utility.yul\":9022:9023   */\n      0x00\n        /* \"#utility.yul\":9011:9020   */\n      dup4\n        /* \"#utility.yul\":9007:9024   */\n      add\n        /* \"#utility.yul\":8998:9004   */\n      dup5\n        /* \"#utility.yul\":8954:9025   */\n      tag_197\n      jump\t// in\n    tag_317:\n        /* \"#utility.yul\":8810:9032   */\n      swap3\n      swap2\n      pop\n      pop\n      jump\t// out\n        /* \"#utility.yul\":9038:9156   */\n    tag_198:\n        /* \"#utility.yul\":9125:9149   */\n      tag_319\n        /* \"#utility.yul\":9143:9148   */\n      dup2\n        /* \"#utility.yul\":9125:9149   */\n      tag_171\n      jump\t// in\n    tag_319:\n        /* \"#utility.yul\":9120:9123   */\n      dup3\n        /* \"#utility.yul\":9113:9150   */\n      mstore\n        /* \"#utility.yul\":9038:9156   */\n      pop\n      pop\n      jump\t// out\n        /* \"#utility.yul\":9162:9604   */\n    tag_46:\n        /* \"#utility.yul\":9311:9315   */\n      0x00\n        /* \"#utility.yul\":9349:9351   */\n      0x60\n        /* \"#utility.yul\":9338:9347   */\n      dup3\n        /* \"#utility.yul\":9334:9352   */\n      add\n        /* \"#utility.yul\":9326:9352   */\n      swap1\n      pop\n        /* \"#utility.yul\":9362:9433   */\n      tag_321\n        /* \"#utility.yul\":9430:9431   */\n      0x00\n        /* \"#utility.yul\":9419:9428   */\n      dup4\n        /* \"#utility.yul\":9415:9432   */\n      add\n        /* \"#utility.yul\":9406:9412   */\n      dup7\n        /* \"#utility.yul\":9362:9433   */\n      tag_198\n      jump\t// in\n    tag_321:\n        /* \"#utility.yul\":9443:9515   */\n      tag_322\n        /* \"#utility.yul\":9511:9513   */\n      0x20\n        /* \"#utility.yul\":9500:9509   */\n      dup4\n        /* \"#utility.yul\":9496:9514   */\n      add\n        /* \"#utility.yul\":9487:9493   */\n      dup6\n        /* \"#utility.yul\":9443:9515   */\n      tag_197\n      jump\t// in\n    tag_322:\n        /* \"#utility.yul\":9525:9597   */\n      tag_323\n        /* \"#utility.yul\":9593:9595   */\n      0x40\n        /* \"#utility.yul\":9582:9591   */\n      dup4\n        /* \"#utility.yul\":9578:9596   */\n      add\n        /* \"#utility.yul\":9569:9575   */\n      dup5\n        /* \"#utility.yul\":9525:9597   */\n      tag_197\n      jump\t// in\n    tag_323:\n        /* \"#utility.yul\":9162:9604   */\n      swap5\n      swap4\n      pop\n      pop\n      pop\n      pop\n      jump\t// out\n        /* \"#utility.yul\":9610:9727   */\n    tag_199:\n        /* \"#utility.yul\":9719:9720   */\n      0x00\n        /* \"#utility.yul\":9716:9717   */\n      dup1\n        /* \"#utility.yul\":9709:9721   */\n      revert\n        /* \"#utility.yul\":9733:9835   */\n    tag_200:\n        /* \"#utility.yul\":9774:9780   */\n      0x00\n        /* \"#utility.yul\":9825:9827   */\n      0x1f\n        /* \"#utility.yul\":9821:9828   */\n      not\n        /* \"#utility.yul\":9816:9818   */\n      0x1f\n        /* \"#utility.yul\":9809:9814   */\n      dup4\n        /* \"#utility.yul\":9805:9819   */\n      add\n        /* \"#utility.yul\":9801:9829   */\n      and\n        /* \"#utility.yul\":9791:9829   */\n      swap1\n      pop\n        /* \"#utility.yul\":9733:9835   */\n      swap2\n      swap1\n      pop\n      jump\t// out\n        /* \"#utility.yul\":9841:10021   */\n    tag_101:\n        /* \"#utility.yul\":9889:9966   */\n      0x4e487b7100000000000000000000000000000000000000000000000000000000\n        /* \"#utility.yul\":9886:9887   */\n      0x00\n        /* \"#utility.yul\":9879:9967   */\n      mstore\n        /* \"#utility.yul\":9986:9990   */\n      0x41\n        /* \"#utility.yul\":9983:9984   */\n      0x04\n        /* \"#utility.yul\":9976:9991   */\n      mstore\n        /* \"#utility.yul\":10010:10014   */\n      0x24\n        /* \"#utility.yul\":10007:10008   */\n      0x00\n        /* \"#utility.yul\":10000:10015   */\n      revert\n        /* \"#utility.yul\":10027:10308   */\n    tag_201:\n        /* \"#utility.yul\":10110:10137   */\n      tag_328\n        /* \"#utility.yul\":10132:10136   */\n      dup3\n        /* \"#utility.yul\":10110:10137   */\n      tag_200\n      jump\t// in\n    tag_328:\n        /* \"#utility.yul\":10102:10108   */\n      dup2\n        /* \"#utility.yul\":10098:10138   */\n      add\n        /* \"#utility.yul\":10240:10246   */\n      dup2\n        /* \"#utility.yul\":10228:10238   */\n      dup2\n        /* \"#utility.yul\":10225:10247   */\n      lt\n        /* \"#utility.yul\":10204:10222   */\n      0xffffffffffffffff\n        /* \"#utility.yul\":10192:10202   */\n      dup3\n        /* \"#utility.yul\":10189:10223   */\n      gt\n        /* \"#utility.yul\":10186:10248   */\n      or\n        /* \"#utility.yul\":10183:10271   */\n      iszero\n      tag_329\n      jumpi\n        /* \"#utility.yul\":10251:10269   */\n      tag_330\n      tag_101\n      jump\t// in\n    tag_330:\n        /* \"#utility.yul\":10183:10271   */\n    tag_329:\n        /* \"#utility.yul\":10291:10301   */\n      dup1\n        /* \"#utility.yul\":10287:10289   */\n      0x40\n        /* \"#utility.yul\":10280:10302   */\n      mstore\n        /* \"#utility.yul\":10070:10308   */\n      pop\n        /* \"#utility.yul\":10027:10308   */\n      pop\n      pop\n      jump\t// out\n        /* \"#utility.yul\":10314:10443   */\n    tag_202:\n        /* \"#utility.yul\":10348:10354   */\n      0x00\n        /* \"#utility.yul\":10375:10395   */\n      tag_332\n      tag_167\n      jump\t// in\n    tag_332:\n        /* \"#utility.yul\":10365:10395   */\n      swap1\n      pop\n        /* \"#utility.yul\":10404:10437   */\n      tag_333\n        /* \"#utility.yul\":10432:10436   */\n      dup3\n        /* \"#utility.yul\":10424:10430   */\n      dup3\n        /* \"#utility.yul\":10404:10437   */\n      tag_201\n      jump\t// in\n    tag_333:\n        /* \"#utility.yul\":10314:10443   */\n      swap2\n      swap1\n      pop\n      jump\t// out\n        /* \"#utility.yul\":10449:10756   */\n    tag_203:\n        /* \"#utility.yul\":10510:10514   */\n      0x00\n        /* \"#utility.yul\":10600:10618   */\n      0xffffffffffffffff\n        /* \"#utility.yul\":10592:10598   */\n      dup3\n        /* \"#utility.yul\":10589:10619   */\n      gt\n        /* \"#utility.yul\":10586:10642   */\n      iszero\n      tag_335\n      jumpi\n        /* \"#utility.yul\":10622:10640   */\n      tag_336\n      tag_101\n      jump\t// in\n    tag_336:\n        /* \"#utility.yul\":10586:10642   */\n    tag_335:\n        /* \"#utility.yul\":10660:10689   */\n      tag_337\n        /* \"#utility.yul\":10682:10688   */\n      dup3\n        /* \"#utility.yul\":10660:10689   */\n      tag_200\n      jump\t// in\n    tag_337:\n        /* \"#utility.yul\":10652:10689   */\n      swap1\n      pop\n        /* \"#utility.yul\":10744:10748   */\n      0x20\n        /* \"#utility.yul\":10738:10742   */\n      dup2\n        /* \"#utility.yul\":10734:10749   */\n      add\n        /* \"#utility.yul\":10726:10749   */\n      swap1\n      pop\n        /* \"#utility.yul\":10449:10756   */\n      swap2\n      swap1\n      pop\n      jump\t// out\n        /* \"#utility.yul\":10762:10910   */\n    tag_204:\n        /* \"#utility.yul\":10860:10866   */\n      dup3\n        /* \"#utility.yul\":10855:10858   */\n      dup2\n        /* \"#utility.yul\":10850:10853   */\n      dup4\n        /* \"#utility.yul\":10837:10867   */\n      calldatacopy\n        /* \"#utility.yul\":10901:10902   */\n      0x00\n        /* \"#utility.yul\":10892:10898   */\n      dup4\n        /* \"#utility.yul\":10887:10890   */\n      dup4\n        /* \"#utility.yul\":10883:10899   */\n      add\n        /* \"#utility.yul\":10876:10903   */\n      mstore\n        /* \"#utility.yul\":10762:10910   */\n      pop\n      pop\n      pop\n      jump\t// out\n        /* \"#utility.yul\":10916:11339   */\n    tag_205:\n        /* \"#utility.yul\":10993:10998   */\n      0x00\n        /* \"#utility.yul\":11018:11083   */\n      tag_340\n        /* \"#utility.yul\":11034:11082   */\n      tag_341\n        /* \"#utility.yul\":11075:11081   */\n      dup5\n        /* \"#utility.yul\":11034:11082   */\n      tag_203\n      jump\t// in\n    tag_341:\n        /* \"#utility.yul\":11018:11083   */\n      tag_202\n      jump\t// in\n    tag_340:\n        /* \"#utility.yul\":11009:11083   */\n      swap1\n      pop\n        /* \"#utility.yul\":11106:11112   */\n      dup3\n        /* \"#utility.yul\":11099:11104   */\n      dup2\n        /* \"#utility.yul\":11092:11113   */\n      mstore\n        /* \"#utility.yul\":11144:11148   */\n      0x20\n        /* \"#utility.yul\":11137:11142   */\n      dup2\n        /* \"#utility.yul\":11133:11149   */\n      add\n        /* \"#utility.yul\":11182:11185   */\n      dup5\n        /* \"#utility.yul\":11173:11179   */\n      dup5\n        /* \"#utility.yul\":11168:11171   */\n      dup5\n        /* \"#utility.yul\":11164:11180   */\n      add\n        /* \"#utility.yul\":11161:11186   */\n      gt\n        /* \"#utility.yul\":11158:11270   */\n      iszero\n      tag_342\n      jumpi\n        /* \"#utility.yul\":11189:11268   */\n      tag_343\n      tag_199\n      jump\t// in\n    tag_343:\n        /* \"#utility.yul\":11158:11270   */\n    tag_342:\n        /* \"#utility.yul\":11279:11333   */\n      tag_344\n        /* \"#utility.yul\":11326:11332   */\n      dup5\n        /* \"#utility.yul\":11321:11324   */\n      dup3\n        /* \"#utility.yul\":11316:11319   */\n      dup6\n        /* \"#utility.yul\":11279:11333   */\n      tag_204\n      jump\t// in\n    tag_344:\n        /* \"#utility.yul\":10999:11339   */\n      pop\n        /* \"#utility.yul\":10916:11339   */\n      swap4\n      swap3\n      pop\n      pop\n      pop\n      jump\t// out\n        /* \"#utility.yul\":11358:11696   */\n    tag_206:\n        /* \"#utility.yul\":11413:11418   */\n      0x00\n        /* \"#utility.yul\":11462:11465   */\n      dup3\n        /* \"#utility.yul\":11455:11459   */\n      0x1f\n        /* \"#utility.yul\":11447:11453   */\n      dup4\n        /* \"#utility.yul\":11443:11460   */\n      add\n        /* \"#utility.yul\":11439:11466   */\n      slt\n        /* \"#utility.yul\":11429:11551   */\n      tag_346\n      jumpi\n        /* \"#utility.yul\":11470:11549   */\n      tag_347\n      tag_177\n      jump\t// in\n    tag_347:\n        /* \"#utility.yul\":11429:11551   */\n    tag_346:\n        /* \"#utility.yul\":11587:11593   */\n      dup2\n        /* \"#utility.yul\":11574:11594   */\n      calldataload\n        /* \"#utility.yul\":11612:11690   */\n      tag_348\n        /* \"#utility.yul\":11686:11689   */\n      dup5\n        /* \"#utility.yul\":11678:11684   */\n      dup3\n        /* \"#utility.yul\":11671:11675   */\n      0x20\n        /* \"#utility.yul\":11663:11669   */\n      dup7\n        /* \"#utility.yul\":11659:11676   */\n      add\n        /* \"#utility.yul\":11612:11690   */\n      tag_205\n      jump\t// in\n    tag_348:\n        /* \"#utility.yul\":11603:11690   */\n      swap2\n      pop\n        /* \"#utility.yul\":11419:11696   */\n      pop\n        /* \"#utility.yul\":11358:11696   */\n      swap3\n      swap2\n      pop\n      pop\n      jump\t// out\n        /* \"#utility.yul\":11702:12354   */\n    tag_49:\n        /* \"#utility.yul\":11779:11785   */\n      0x00\n        /* \"#utility.yul\":11787:11793   */\n      dup1\n        /* \"#utility.yul\":11836:11838   */\n      0x40\n        /* \"#utility.yul\":11824:11833   */\n      dup4\n        /* \"#utility.yul\":11815:11822   */\n      dup6\n        /* \"#utility.yul\":11811:11834   */\n      sub\n        /* \"#utility.yul\":11807:11839   */\n      slt\n        /* \"#utility.yul\":11804:11923   */\n      iszero\n      tag_350\n      jumpi\n        /* \"#utility.yul\":11842:11921   */\n      tag_351\n      tag_168\n      jump\t// in\n    tag_351:\n        /* \"#utility.yul\":11804:11923   */\n    tag_350:\n        /* \"#utility.yul\":11990:11991   */\n      0x00\n        /* \"#utility.yul\":11979:11988   */\n      dup4\n        /* \"#utility.yul\":11975:11992   */\n      add\n        /* \"#utility.yul\":11962:11993   */\n      calldataload\n        /* \"#utility.yul\":12020:12038   */\n      0xffffffffffffffff\n        /* \"#utility.yul\":12012:12018   */\n      dup2\n        /* \"#utility.yul\":12009:12039   */\n      gt\n        /* \"#utility.yul\":12006:12123   */\n      iszero\n      tag_352\n      jumpi\n        /* \"#utility.yul\":12042:12121   */\n      tag_353\n      tag_169\n      jump\t// in\n    tag_353:\n        /* \"#utility.yul\":12006:12123   */\n    tag_352:\n        /* \"#utility.yul\":12147:12209   */\n      tag_354\n        /* \"#utility.yul\":12201:12208   */\n      dup6\n        /* \"#utility.yul\":12192:12198   */\n      dup3\n        /* \"#utility.yul\":12181:12190   */\n      dup7\n        /* \"#utility.yul\":12177:12199   */\n      add\n        /* \"#utility.yul\":12147:12209   */\n      tag_206\n      jump\t// in\n    tag_354:\n        /* \"#utility.yul\":12137:12209   */\n      swap3\n      pop\n        /* \"#utility.yul\":11933:12219   */\n      pop\n        /* \"#utility.yul\":12258:12260   */\n      0x20\n        /* \"#utility.yul\":12284:12337   */\n      tag_355\n        /* \"#utility.yul\":12329:12336   */\n      dup6\n        /* \"#utility.yul\":12320:12326   */\n      dup3\n        /* \"#utility.yul\":12309:12318   */\n      dup7\n        /* \"#utility.yul\":12305:12327   */\n      add\n        /* \"#utility.yul\":12284:12337   */\n      tag_176\n      jump\t// in\n    tag_355:\n        /* \"#utility.yul\":12274:12337   */\n      swap2\n      pop\n        /* \"#utility.yul\":12229:12347   */\n      pop\n        /* \"#utility.yul\":11702:12354   */\n      swap3\n      pop\n      swap3\n      swap1\n      pop\n      jump\t// out\n        /* \"#utility.yul\":12360:12502   */\n    tag_207:\n        /* \"#utility.yul\":12426:12435   */\n      0x00\n        /* \"#utility.yul\":12459:12496   */\n      tag_357\n        /* \"#utility.yul\":12490:12495   */\n      dup3\n        /* \"#utility.yul\":12459:12496   */\n      tag_194\n      jump\t// in\n    tag_357:\n        /* \"#utility.yul\":12446:12496   */\n      swap1\n      pop\n        /* \"#utility.yul\":12360:12502   */\n      swap2\n      swap1\n      pop\n      jump\t// out\n        /* \"#utility.yul\":12508:12671   */\n    tag_208:\n        /* \"#utility.yul\":12611:12664   */\n      tag_359\n        /* \"#utility.yul\":12658:12663   */\n      dup2\n        /* \"#utility.yul\":12611:12664   */\n      tag_207\n      jump\t// in\n    tag_359:\n        /* \"#utility.yul\":12606:12609   */\n      dup3\n        /* \"#utility.yul\":12599:12665   */\n      mstore\n        /* \"#utility.yul\":12508:12671   */\n      pop\n      pop\n      jump\t// out\n        /* \"#utility.yul\":12677:12931   */\n    tag_55:\n        /* \"#utility.yul\":12786:12790   */\n      0x00\n        /* \"#utility.yul\":12824:12826   */\n      0x20\n        /* \"#utility.yul\":12813:12822   */\n      dup3\n        /* \"#utility.yul\":12809:12827   */\n      add\n        /* \"#utility.yul\":12801:12827   */\n      swap1\n      pop\n        /* \"#utility.yul\":12837:12924   */\n      tag_361\n        /* \"#utility.yul\":12921:12922   */\n      0x00\n        /* \"#utility.yul\":12910:12919   */\n      dup4\n        /* \"#utility.yul\":12906:12923   */\n      add\n        /* \"#utility.yul\":12897:12903   */\n      dup5\n        /* \"#utility.yul\":12837:12924   */\n      tag_208\n      jump\t// in\n    tag_361:\n        /* \"#utility.yul\":12677:12931   */\n      swap3\n      swap2\n      pop\n      pop\n      jump\t// out\n        /* \"#utility.yul\":12937:13027   */\n    tag_209:\n        /* \"#utility.yul\":12971:12978   */\n      0x00\n        /* \"#utility.yul\":13014:13019   */\n      dup2\n        /* \"#utility.yul\":13007:13020   */\n      iszero\n        /* \"#utility.yul\":13000:13021   */\n      iszero\n        /* \"#utility.yul\":12989:13021   */\n      swap1\n      pop\n        /* \"#utility.yul\":12937:13027   */\n      swap2\n      swap1\n      pop\n      jump\t// out\n        /* \"#utility.yul\":13033:13142   */\n    tag_210:\n        /* \"#utility.yul\":13114:13135   */\n      tag_364\n        /* \"#utility.yul\":13129:13134   */\n      dup2\n        /* \"#utility.yul\":13114:13135   */\n      tag_209\n      jump\t// in\n    tag_364:\n        /* \"#utility.yul\":13109:13112   */\n      dup3\n        /* \"#utility.yul\":13102:13136   */\n      mstore\n        /* \"#utility.yul\":13033:13142   */\n      pop\n      pop\n      jump\t// out\n        /* \"#utility.yul\":13148:13358   */\n    tag_66:\n        /* \"#utility.yul\":13235:13239   */\n      0x00\n        /* \"#utility.yul\":13273:13275   */\n      0x20\n        /* \"#utility.yul\":13262:13271   */\n      dup3\n        /* \"#utility.yul\":13258:13276   */\n      add\n        /* \"#utility.yul\":13250:13276   */\n      swap1\n      pop\n        /* \"#utility.yul\":13286:13351   */\n      tag_366\n        /* \"#utility.yul\":13348:13349   */\n      0x00\n        /* \"#utility.yul\":13337:13346   */\n      dup4\n        /* \"#utility.yul\":13333:13350   */\n      add\n        /* \"#utility.yul\":13324:13330   */\n      dup5\n        /* \"#utility.yul\":13286:13351   */\n      tag_210\n      jump\t// in\n    tag_366:\n        /* \"#utility.yul\":13148:13358   */\n      swap3\n      swap2\n      pop\n      pop\n      jump\t// out\n        /* \"#utility.yul\":13364:13533   */\n    tag_211:\n        /* \"#utility.yul\":13448:13459   */\n      0x00\n        /* \"#utility.yul\":13482:13488   */\n      dup3\n        /* \"#utility.yul\":13477:13480   */\n      dup3\n        /* \"#utility.yul\":13470:13489   */\n      mstore\n        /* \"#utility.yul\":13522:13526   */\n      0x20\n        /* \"#utility.yul\":13517:13520   */\n      dup3\n        /* \"#utility.yul\":13513:13527   */\n      add\n        /* \"#utility.yul\":13498:13527   */\n      swap1\n      pop\n        /* \"#utility.yul\":13364:13533   */\n      swap3\n      swap2\n      pop\n      pop\n      jump\t// out\n        /* \"#utility.yul\":13539:13717   */\n    tag_212:\n        /* \"#utility.yul\":13679:13709   */\n      0x7072696365206d7573742062652067726561746572207468616e203000000000\n        /* \"#utility.yul\":13675:13676   */\n      0x00\n        /* \"#utility.yul\":13667:13673   */\n      dup3\n        /* \"#utility.yul\":13663:13677   */\n      add\n        /* \"#utility.yul\":13656:13710   */\n      mstore\n        /* \"#utility.yul\":13539:13717   */\n      pop\n      jump\t// out\n        /* \"#utility.yul\":13723:14089   */\n    tag_213:\n        /* \"#utility.yul\":13865:13868   */\n      0x00\n        /* \"#utility.yul\":13886:13953   */\n      tag_370\n        /* \"#utility.yul\":13950:13952   */\n      0x1c\n        /* \"#utility.yul\":13945:13948   */\n      dup4\n        /* \"#utility.yul\":13886:13953   */\n      tag_211\n      jump\t// in\n    tag_370:\n        /* \"#utility.yul\":13879:13953   */\n      swap2\n      pop\n        /* \"#utility.yul\":13962:14055   */\n      tag_371\n        /* \"#utility.yul\":14051:14054   */\n      dup3\n        /* \"#utility.yul\":13962:14055   */\n      tag_212\n      jump\t// in\n    tag_371:\n        /* \"#utility.yul\":14080:14082   */\n      0x20\n        /* \"#utility.yul\":14075:14078   */\n      dup3\n        /* \"#utility.yul\":14071:14083   */\n      add\n        /* \"#utility.yul\":14064:14083   */\n      swap1\n      pop\n        /* \"#utility.yul\":13723:14089   */\n      swap2\n      swap1\n      pop\n      jump\t// out\n        /* \"#utility.yul\":14095:14514   */\n    tag_71:\n        /* \"#utility.yul\":14261:14265   */\n      0x00\n        /* \"#utility.yul\":14299:14301   */\n      0x20\n        /* \"#utility.yul\":14288:14297   */\n      dup3\n        /* \"#utility.yul\":14284:14302   */\n      add\n        /* \"#utility.yul\":14276:14302   */\n      swap1\n      pop\n        /* \"#utility.yul\":14348:14357   */\n      dup2\n        /* \"#utility.yul\":14342:14346   */\n      dup2\n        /* \"#utility.yul\":14338:14358   */\n      sub\n        /* \"#utility.yul\":14334:14335   */\n      0x00\n        /* \"#utility.yul\":14323:14332   */\n      dup4\n        /* \"#utility.yul\":14319:14336   */\n      add\n        /* \"#utility.yul\":14312:14359   */\n      mstore\n        /* \"#utility.yul\":14376:14507   */\n      tag_373\n        /* \"#utility.yul\":14502:14506   */\n      dup2\n        /* \"#utility.yul\":14376:14507   */\n      tag_213\n      jump\t// in\n    tag_373:\n        /* \"#utility.yul\":14368:14507   */\n      swap1\n      pop\n        /* \"#utility.yul\":14095:14514   */\n      swap2\n      swap1\n      pop\n      jump\t// out\n        /* \"#utility.yul\":14520:14700   */\n    tag_214:\n        /* \"#utility.yul\":14568:14645   */\n      0x4e487b7100000000000000000000000000000000000000000000000000000000\n        /* \"#utility.yul\":14565:14566   */\n      0x00\n        /* \"#utility.yul\":14558:14646   */\n      mstore\n        /* \"#utility.yul\":14665:14669   */\n      0x11\n        /* \"#utility.yul\":14662:14663   */\n      0x04\n        /* \"#utility.yul\":14655:14670   */\n      mstore\n        /* \"#utility.yul\":14689:14693   */\n      0x24\n        /* \"#utility.yul\":14686:14687   */\n      0x00\n        /* \"#utility.yul\":14679:14694   */\n      revert\n        /* \"#utility.yul\":14706:14900   */\n    tag_74:\n        /* \"#utility.yul\":14746:14750   */\n      0x00\n        /* \"#utility.yul\":14766:14786   */\n      tag_376\n        /* \"#utility.yul\":14784:14785   */\n      dup3\n        /* \"#utility.yul\":14766:14786   */\n      tag_174\n      jump\t// in\n    tag_376:\n        /* \"#utility.yul\":14761:14786   */\n      swap2\n      pop\n        /* \"#utility.yul\":14800:14820   */\n      tag_377\n        /* \"#utility.yul\":14818:14819   */\n      dup4\n        /* \"#utility.yul\":14800:14820   */\n      tag_174\n      jump\t// in\n    tag_377:\n        /* \"#utility.yul\":14795:14820   */\n      swap3\n      pop\n        /* \"#utility.yul\":14844:14845   */\n      dup3\n        /* \"#utility.yul\":14841:14842   */\n      dup3\n        /* \"#utility.yul\":14837:14846   */\n      sub\n        /* \"#utility.yul\":14829:14846   */\n      swap1\n      pop\n        /* \"#utility.yul\":14868:14869   */\n      dup2\n        /* \"#utility.yul\":14862:14866   */\n      dup2\n        /* \"#utility.yul\":14859:14870   */\n      gt\n        /* \"#utility.yul\":14856:14893   */\n      iszero\n      tag_378\n      jumpi\n        /* \"#utility.yul\":14873:14891   */\n      tag_379\n      tag_214\n      jump\t// in\n    tag_379:\n        /* \"#utility.yul\":14856:14893   */\n    tag_378:\n        /* \"#utility.yul\":14706:14900   */\n      swap3\n      swap2\n      pop\n      pop\n      jump\t// out\n        /* \"#utility.yul\":14906:15066   */\n    tag_215:\n        /* \"#utility.yul\":15046:15058   */\n      0x6e6f742073656c6c657200000000000000000000000000000000000000000000\n        /* \"#utility.yul\":15042:15043   */\n      0x00\n        /* \"#utility.yul\":15034:15040   */\n      dup3\n        /* \"#utility.yul\":15030:15044   */\n      add\n        /* \"#utility.yul\":15023:15059   */\n      mstore\n        /* \"#utility.yul\":14906:15066   */\n      pop\n      jump\t// out\n        /* \"#utility.yul\":15072:15438   */\n    tag_216:\n        /* \"#utility.yul\":15214:15217   */\n      0x00\n        /* \"#utility.yul\":15235:15302   */\n      tag_382\n        /* \"#utility.yul\":15299:15301   */\n      0x0a\n        /* \"#utility.yul\":15294:15297   */\n      dup4\n        /* \"#utility.yul\":15235:15302   */\n      tag_211\n      jump\t// in\n    tag_382:\n        /* \"#utility.yul\":15228:15302   */\n      swap2\n      pop\n        /* \"#utility.yul\":15311:15404   */\n      tag_383\n        /* \"#utility.yul\":15400:15403   */\n      dup3\n        /* \"#utility.yul\":15311:15404   */\n      tag_215\n      jump\t// in\n    tag_383:\n        /* \"#utility.yul\":15429:15431   */\n      0x20\n        /* \"#utility.yul\":15424:15427   */\n      dup3\n        /* \"#utility.yul\":15420:15432   */\n      add\n        /* \"#utility.yul\":15413:15432   */\n      swap1\n      pop\n        /* \"#utility.yul\":15072:15438   */\n      swap2\n      swap1\n      pop\n      jump\t// out\n        /* \"#utility.yul\":15444:15863   */\n    tag_79:\n        /* \"#utility.yul\":15610:15614   */\n      0x00\n        /* \"#utility.yul\":15648:15650   */\n      0x20\n        /* \"#utility.yul\":15637:15646   */\n      dup3\n        /* \"#utility.yul\":15633:15651   */\n      add\n        /* \"#utility.yul\":15625:15651   */\n      swap1\n      pop\n        /* \"#utility.yul\":15697:15706   */\n      dup2\n        /* \"#utility.yul\":15691:15695   */\n      dup2\n        /* \"#utility.yul\":15687:15707   */\n      sub\n        /* \"#utility.yul\":15683:15684   */\n      0x00\n        /* \"#utility.yul\":15672:15681   */\n      dup4\n        /* \"#utility.yul\":15668:15685   */\n      add\n        /* \"#utility.yul\":15661:15708   */\n      mstore\n        /* \"#utility.yul\":15725:15856   */\n      tag_385\n        /* \"#utility.yul\":15851:15855   */\n      dup2\n        /* \"#utility.yul\":15725:15856   */\n      tag_216\n      jump\t// in\n    tag_385:\n        /* \"#utility.yul\":15717:15856   */\n      swap1\n      pop\n        /* \"#utility.yul\":15444:15863   */\n      swap2\n      swap1\n      pop\n      jump\t// out\n        /* \"#utility.yul\":15869:16049   */\n    tag_82:\n        /* \"#utility.yul\":15917:15994   */\n      0x4e487b7100000000000000000000000000000000000000000000000000000000\n        /* \"#utility.yul\":15914:15915   */\n      0x00\n        /* \"#utility.yul\":15907:15995   */\n      mstore\n        /* \"#utility.yul\":16014:16018   */\n      0x32\n        /* \"#utility.yul\":16011:16012   */\n      0x04\n        /* \"#utility.yul\":16004:16019   */\n      mstore\n        /* \"#utility.yul\":16038:16042   */\n      0x24\n        /* \"#utility.yul\":16035:16036   */\n      0x00\n        /* \"#utility.yul\":16028:16043   */\n      revert\n        /* \"#utility.yul\":16055:16608   */\n    tag_85:\n        /* \"#utility.yul\":16232:16236   */\n      0x00\n        /* \"#utility.yul\":16270:16273   */\n      0x80\n        /* \"#utility.yul\":16259:16268   */\n      dup3\n        /* \"#utility.yul\":16255:16274   */\n      add\n        /* \"#utility.yul\":16247:16274   */\n      swap1\n      pop\n        /* \"#utility.yul\":16284:16355   */\n      tag_388\n        /* \"#utility.yul\":16352:16353   */\n      0x00\n        /* \"#utility.yul\":16341:16350   */\n      dup4\n        /* \"#utility.yul\":16337:16354   */\n      add\n        /* \"#utility.yul\":16328:16334   */\n      dup8\n        /* \"#utility.yul\":16284:16355   */\n      tag_198\n      jump\t// in\n    tag_388:\n        /* \"#utility.yul\":16365:16437   */\n      tag_389\n        /* \"#utility.yul\":16433:16435   */\n      0x20\n        /* \"#utility.yul\":16422:16431   */\n      dup4\n        /* \"#utility.yul\":16418:16436   */\n      add\n        /* \"#utility.yul\":16409:16415   */\n      dup7\n        /* \"#utility.yul\":16365:16437   */\n      tag_197\n      jump\t// in\n    tag_389:\n        /* \"#utility.yul\":16447:16519   */\n      tag_390\n        /* \"#utility.yul\":16515:16517   */\n      0x40\n        /* \"#utility.yul\":16504:16513   */\n      dup4\n        /* \"#utility.yul\":16500:16518   */\n      add\n        /* \"#utility.yul\":16491:16497   */\n      dup6\n        /* \"#utility.yul\":16447:16519   */\n      tag_197\n      jump\t// in\n    tag_390:\n        /* \"#utility.yul\":16529:16601   */\n      tag_391\n        /* \"#utility.yul\":16597:16599   */\n      0x60\n        /* \"#utility.yul\":16586:16595   */\n      dup4\n        /* \"#utility.yul\":16582:16600   */\n      add\n        /* \"#utility.yul\":16573:16579   */\n      dup5\n        /* \"#utility.yul\":16529:16601   */\n      tag_197\n      jump\t// in\n    tag_391:\n        /* \"#utility.yul\":16055:16608   */\n      swap6\n      swap5\n      pop\n      pop\n      pop\n      pop\n      pop\n      jump\t// out\n        /* \"#utility.yul\":16614:17056   */\n    tag_90:\n        /* \"#utility.yul\":16763:16767   */\n      0x00\n        /* \"#utility.yul\":16801:16803   */\n      0x60\n        /* \"#utility.yul\":16790:16799   */\n      dup3\n        /* \"#utility.yul\":16786:16804   */\n      add\n        /* \"#utility.yul\":16778:16804   */\n      swap1\n      pop\n        /* \"#utility.yul\":16814:16885   */\n      tag_393\n        /* \"#utility.yul\":16882:16883   */\n      0x00\n        /* \"#utility.yul\":16871:16880   */\n      dup4\n        /* \"#utility.yul\":16867:16884   */\n      add\n        /* \"#utility.yul\":16858:16864   */\n      dup7\n        /* \"#utility.yul\":16814:16885   */\n      tag_198\n      jump\t// in\n    tag_393:\n        /* \"#utility.yul\":16895:16967   */\n      tag_394\n        /* \"#utility.yul\":16963:16965   */\n      0x20\n        /* \"#utility.yul\":16952:16961   */\n      dup4\n        /* \"#utility.yul\":16948:16966   */\n      add\n        /* \"#utility.yul\":16939:16945   */\n      dup6\n        /* \"#utility.yul\":16895:16967   */\n      tag_198\n      jump\t// in\n    tag_394:\n        /* \"#utility.yul\":16977:17049   */\n      tag_395\n        /* \"#utility.yul\":17045:17047   */\n      0x40\n        /* \"#utility.yul\":17034:17043   */\n      dup4\n        /* \"#utility.yul\":17030:17048   */\n      add\n        /* \"#utility.yul\":17021:17027   */\n      dup5\n        /* \"#utility.yul\":16977:17049   */\n      tag_197\n      jump\t// in\n    tag_395:\n        /* \"#utility.yul\":16614:17056   */\n      swap5\n      swap4\n      pop\n      pop\n      pop\n      pop\n      jump\t// out\n        /* \"#utility.yul\":17062:17394   */\n    tag_97:\n        /* \"#utility.yul\":17183:17187   */\n      0x00\n        /* \"#utility.yul\":17221:17223   */\n      0x40\n        /* \"#utility.yul\":17210:17219   */\n      dup3\n        /* \"#utility.yul\":17206:17224   */\n      add\n        /* \"#utility.yul\":17198:17224   */\n      swap1\n      pop\n        /* \"#utility.yul\":17234:17305   */\n      tag_397\n        /* \"#utility.yul\":17302:17303   */\n      0x00\n        /* \"#utility.yul\":17291:17300   */\n      dup4\n        /* \"#utility.yul\":17287:17304   */\n      add\n        /* \"#utility.yul\":17278:17284   */\n      dup6\n        /* \"#utility.yul\":17234:17305   */\n      tag_198\n      jump\t// in\n    tag_397:\n        /* \"#utility.yul\":17315:17387   */\n      tag_398\n        /* \"#utility.yul\":17383:17385   */\n      0x20\n        /* \"#utility.yul\":17372:17381   */\n      dup4\n        /* \"#utility.yul\":17368:17386   */\n      add\n        /* \"#utility.yul\":17359:17365   */\n      dup5\n        /* \"#utility.yul\":17315:17387   */\n      tag_197\n      jump\t// in\n    tag_398:\n        /* \"#utility.yul\":17062:17394   */\n      swap4\n      swap3\n      pop\n      pop\n      pop\n      jump\t// out\n        /* \"#utility.yul\":17400:17633   */\n    tag_119:\n        /* \"#utility.yul\":17439:17442   */\n      0x00\n        /* \"#utility.yul\":17462:17486   */\n      tag_400\n        /* \"#utility.yul\":17480:17485   */\n      dup3\n        /* \"#utility.yul\":17462:17486   */\n      tag_174\n      jump\t// in\n    tag_400:\n        /* \"#utility.yul\":17453:17486   */\n      swap2\n      pop\n        /* \"#utility.yul\":17508:17574   */\n      0xffffffffffffffffffffffffffffffffffffffffffffffffffffffffffffffff\n        /* \"#utility.yul\":17501:17506   */\n      dup3\n        /* \"#utility.yul\":17498:17575   */\n      sub\n        /* \"#utility.yul\":17495:17598   */\n      tag_401\n      jumpi\n        /* \"#utility.yul\":17578:17596   */\n      tag_402\n      tag_214\n      jump\t// in\n    tag_402:\n        /* \"#utility.yul\":17495:17598   */\n    tag_401:\n        /* \"#utility.yul\":17625:17626   */\n      0x01\n        /* \"#utility.yul\":17618:17623   */\n      dup3\n        /* \"#utility.yul\":17614:17627   */\n      add\n        /* \"#utility.yul\":17607:17627   */\n      swap1\n      pop\n        /* \"#utility.yul\":17400:17633   */\n      swap2\n      swap1\n      pop\n      jump\t// out\n        /* \"#utility.yul\":17639:17830   */\n    tag_125:\n        /* \"#utility.yul\":17679:17682   */\n      0x00\n        /* \"#utility.yul\":17698:17718   */\n      tag_404\n        /* \"#utility.yul\":17716:17717   */\n      dup3\n        /* \"#utility.yul\":17698:17718   */\n      tag_174\n      jump\t// in\n    tag_404:\n        /* \"#utility.yul\":17693:17718   */\n      swap2\n      pop\n        /* \"#utility.yul\":17732:17752   */\n      tag_405\n        /* \"#utility.yul\":17750:17751   */\n      dup4\n        /* \"#utility.yul\":17732:17752   */\n      tag_174\n      jump\t// in\n    tag_405:\n        /* \"#utility.yul\":17727:17752   */\n      swap3\n      pop\n        /* \"#utility.yul\":17775:17776   */\n      dup3\n        /* \"#utility.yul\":17772:17773   */\n      dup3\n        /* \"#utility.yul\":17768:17777   */\n      add\n        /* \"#utility.yul\":17761:17777   */\n      swap1\n      pop\n        /* \"#utility.yul\":17796:17799   */\n      dup1\n        /* \"#utility.yul\":17793:17794   */\n      dup3\n        /* \"#utility.yul\":17790:17800   */\n      gt\n        /* \"#utility.yul\":17787:17823   */\n      iszero\n      tag_406\n      jumpi\n        /* \"#utility.yul\":17803:17821   */\n      tag_407\n      tag_214\n      jump\t// in\n    tag_407:\n        /* \"#utility.yul\":17787:17823   */\n    tag_406:\n        /* \"#utility.yul\":17639:17830   */\n      swap3\n      swap2\n      pop\n      pop\n      jump\t// out\n        /* \"#utility.yul\":17836:18011   */\n    tag_217:\n        /* \"#utility.yul\":17976:18003   */\n      0x4d61726b65743a746f55696e743235365f6f766572666c6f7700000000000000\n        /* \"#utility.yul\":17972:17973   */\n      0x00\n        /* \"#utility.yul\":17964:17970   */\n      dup3\n        /* \"#utility.yul\":17960:17974   */\n      add\n        /* \"#utility.yul\":17953:18004   */\n      mstore\n        /* \"#utility.yul\":17836:18011   */\n      pop\n      jump\t// out\n        /* \"#utility.yul\":18017:18383   */\n    tag_218:\n        /* \"#utility.yul\":18159:18162   */\n      0x00\n        /* \"#utility.yul\":18180:18247   */\n      tag_410\n        /* \"#utility.yul\":18244:18246   */\n      0x19\n        /* \"#utility.yul\":18239:18242   */\n      dup4\n        /* \"#utility.yul\":18180:18247   */\n      tag_211\n      jump\t// in\n    tag_410:\n        /* \"#utility.yul\":18173:18247   */\n      swap2\n      pop\n        /* \"#utility.yul\":18256:18349   */\n      tag_411\n        /* \"#utility.yul\":18345:18348   */\n      dup3\n        /* \"#utility.yul\":18256:18349   */\n      tag_217\n      jump\t// in\n    tag_411:\n        /* \"#utility.yul\":18374:18376   */\n      0x20\n        /* \"#utility.yul\":18369:18372   */\n      dup3\n        /* \"#utility.yul\":18365:18377   */\n      add\n        /* \"#utility.yul\":18358:18377   */\n      swap1\n      pop\n        /* \"#utility.yul\":18017:18383   */\n      swap2\n      swap1\n      pop\n      jump\t// out\n        /* \"#utility.yul\":18389:18808   */\n    tag_128:\n        /* \"#utility.yul\":18555:18559   */\n      0x00\n        /* \"#utility.yul\":18593:18595   */\n      0x20\n        /* \"#utility.yul\":18582:18591   */\n      dup3\n        /* \"#utility.yul\":18578:18596   */\n      add\n        /* \"#utility.yul\":18570:18596   */\n      swap1\n      pop\n        /* \"#utility.yul\":18642:18651   */\n      dup2\n        /* \"#utility.yul\":18636:18640   */\n      dup2\n        /* \"#utility.yul\":18632:18652   */\n      sub\n        /* \"#utility.yul\":18628:18629   */\n      0x00\n        /* \"#utility.yul\":18617:18626   */\n      dup4\n        /* \"#utility.yul\":18613:18630   */\n      add\n        /* \"#utility.yul\":18606:18653   */\n      mstore\n        /* \"#utility.yul\":18670:18801   */\n      tag_413\n        /* \"#utility.yul\":18796:18800   */\n      dup2\n        /* \"#utility.yul\":18670:18801   */\n      tag_218\n      jump\t// in\n    tag_413:\n        /* \"#utility.yul\":18662:18801   */\n      swap1\n      pop\n        /* \"#utility.yul\":18389:18808   */\n      swap2\n      swap1\n      pop\n      jump\t// out\n        /* \"#utility.yul\":18814:18985   */\n    tag_219:\n        /* \"#utility.yul\":18954:18977   */\n      0x746f55696e743235365f6f75744f66426f756e64730000000000000000000000\n        /* \"#utility.yul\":18950:18951   */\n      0x00\n        /* \"#utility.yul\":18942:18948   */\n      dup3\n        /* \"#utility.yul\":18938:18952   */\n      add\n        /* \"#utility.yul\":18931:18978   */\n      mstore\n        /* \"#utility.yul\":18814:18985   */\n      pop\n      jump\t// out\n        /* \"#utility.yul\":18991:19357   */\n    tag_220:\n        /* \"#utility.yul\":19133:19136   */\n      0x00\n        /* \"#utility.yul\":19154:19221   */\n      tag_416\n        /* \"#utility.yul\":19218:19220   */\n      0x15\n        /* \"#utility.yul\":19213:19216   */\n      dup4\n        /* \"#utility.yul\":19154:19221   */\n      tag_211\n      jump\t// in\n    tag_416:\n        /* \"#utility.yul\":19147:19221   */\n      swap2\n      pop\n        /* \"#utility.yul\":19230:19323   */\n      tag_417\n        /* \"#utility.yul\":19319:19322   */\n      dup3\n        /* \"#utility.yul\":19230:19323   */\n      tag_219\n      jump\t// in\n    tag_417:\n        /* \"#utility.yul\":19348:19350   */\n      0x20\n        /* \"#utility.yul\":19343:19346   */\n      dup3\n        /* \"#utility.yul\":19339:19351   */\n      add\n        /* \"#utility.yul\":19332:19351   */\n      swap1\n      pop\n        /* \"#utility.yul\":18991:19357   */\n      swap2\n      swap1\n      pop\n      jump\t// out\n        /* \"#utility.yul\":19363:19782   */\n    tag_132:\n        /* \"#utility.yul\":19529:19533   */\n      0x00\n        /* \"#utility.yul\":19567:19569   */\n      0x20\n        /* \"#utility.yul\":19556:19565   */\n      dup3\n        /* \"#utility.yul\":19552:19570   */\n      add\n        /* \"#utility.yul\":19544:19570   */\n      swap1\n      pop\n        /* \"#utility.yul\":19616:19625   */\n      dup2\n        /* \"#utility.yul\":19610:19614   */\n      dup2\n        /* \"#utility.yul\":19606:19626   */\n      sub\n        /* \"#utility.yul\":19602:19603   */\n      0x00\n        /* \"#utility.yul\":19591:19600   */\n      dup4\n        /* \"#utility.yul\":19587:19604   */\n      add\n        /* \"#utility.yul\":19580:19627   */\n      mstore\n        /* \"#utility.yul\":19644:19775   */\n      tag_419\n        /* \"#utility.yul\":19770:19774   */\n      dup2\n        /* \"#utility.yul\":19644:19775   */\n      tag_220\n      jump\t// in\n    tag_419:\n        /* \"#utility.yul\":19636:19775   */\n      swap1\n      pop\n        /* \"#utility.yul\":19363:19782   */\n      swap2\n      swap1\n      pop\n      jump\t// out\n        /* \"#utility.yul\":19788:19904   */\n    tag_221:\n        /* \"#utility.yul\":19858:19879   */\n      tag_421\n        /* \"#utility.yul\":19873:19878   */\n      dup2\n        /* \"#utility.yul\":19858:19879   */\n      tag_209\n      jump\t// in\n    tag_421:\n        /* \"#utility.yul\":19851:19856   */\n      dup2\n        /* \"#utility.yul\":19848:19880   */\n      eq\n        /* \"#utility.yul\":19838:19898   */\n      tag_422\n      jumpi\n        /* \"#utility.yul\":19894:19895   */\n      0x00\n        /* \"#utility.yul\":19891:19892   */\n      dup1\n        /* \"#utility.yul\":19884:19896   */\n      revert\n        /* \"#utility.yul\":19838:19898   */\n    tag_422:\n        /* \"#utility.yul\":19788:19904   */\n      pop\n      jump\t// out\n        /* \"#utility.yul\":19910:20047   */\n    tag_222:\n        /* \"#utility.yul\":19964:19969   */\n      0x00\n        /* \"#utility.yul\":19995:20001   */\n      dup2\n        /* \"#utility.yul\":19989:20002   */\n      mload\n        /* \"#utility.yul\":19980:20002   */\n      swap1\n      pop\n        /* \"#utility.yul\":20011:20041   */\n      tag_424\n        /* \"#utility.yul\":20035:20040   */\n      dup2\n        /* \"#utility.yul\":20011:20041   */\n      tag_221\n      jump\t// in\n    tag_424:\n        /* \"#utility.yul\":19910:20047   */\n      swap3\n      swap2\n      pop\n      pop\n      jump\t// out\n        /* \"#utility.yul\":20053:20398   */\n    tag_138:\n        /* \"#utility.yul\":20120:20126   */\n      0x00\n        /* \"#utility.yul\":20169:20171   */\n      0x20\n        /* \"#utility.yul\":20157:20166   */\n      dup3\n        /* \"#utility.yul\":20148:20155   */\n      dup5\n        /* \"#utility.yul\":20144:20167   */\n      sub\n        /* \"#utility.yul\":20140:20172   */\n      slt\n        /* \"#utility.yul\":20137:20256   */\n      iszero\n      tag_426\n      jumpi\n        /* \"#utility.yul\":20175:20254   */\n      tag_427\n      tag_168\n      jump\t// in\n    tag_427:\n        /* \"#utility.yul\":20137:20256   */\n    tag_426:\n        /* \"#utility.yul\":20295:20296   */\n      0x00\n        /* \"#utility.yul\":20320:20381   */\n      tag_428\n        /* \"#utility.yul\":20373:20380   */\n      dup5\n        /* \"#utility.yul\":20364:20370   */\n      dup3\n        /* \"#utility.yul\":20353:20362   */\n      dup6\n        /* \"#utility.yul\":20349:20371   */\n      add\n        /* \"#utility.yul\":20320:20381   */\n      tag_222\n      jump\t// in\n    tag_428:\n        /* \"#utility.yul\":20310:20381   */\n      swap2\n      pop\n        /* \"#utility.yul\":20266:20391   */\n      pop\n        /* \"#utility.yul\":20053:20398   */\n      swap3\n      swap2\n      pop\n      pop\n      jump\t// out\n        /* \"#utility.yul\":20404:20567   */\n    tag_223:\n        /* \"#utility.yul\":20544:20559   */\n      0x7472616e73666572206661696c00000000000000000000000000000000000000\n        /* \"#utility.yul\":20540:20541   */\n      0x00\n        /* \"#utility.yul\":20532:20538   */\n      dup3\n        /* \"#utility.yul\":20528:20542   */\n      add\n        /* \"#utility.yul\":20521:20560   */\n      mstore\n        /* \"#utility.yul\":20404:20567   */\n      pop\n      jump\t// out\n        /* \"#utility.yul\":20573:20939   */\n    tag_224:\n        /* \"#utility.yul\":20715:20718   */\n      0x00\n        /* \"#utility.yul\":20736:20803   */\n      tag_431\n        /* \"#utility.yul\":20800:20802   */\n      0x0d\n        /* \"#utility.yul\":20795:20798   */\n      dup4\n        /* \"#utility.yul\":20736:20803   */\n      tag_211\n      jump\t// in\n    tag_431:\n        /* \"#utility.yul\":20729:20803   */\n      swap2\n      pop\n        /* \"#utility.yul\":20812:20905   */\n      tag_432\n        /* \"#utility.yul\":20901:20904   */\n      dup3\n        /* \"#utility.yul\":20812:20905   */\n      tag_223\n      jump\t// in\n    tag_432:\n        /* \"#utility.yul\":20930:20932   */\n      0x20\n        /* \"#utility.yul\":20925:20928   */\n      dup3\n        /* \"#utility.yul\":20921:20933   */\n      add\n        /* \"#utility.yul\":20914:20933   */\n      swap1\n      pop\n        /* \"#utility.yul\":20573:20939   */\n      swap2\n      swap1\n      pop\n      jump\t// out\n        /* \"#utility.yul\":20945:21364   */\n    tag_141:\n        /* \"#utility.yul\":21111:21115   */\n      0x00\n        /* \"#utility.yul\":21149:21151   */\n      0x20\n        /* \"#utility.yul\":21138:21147   */\n      dup3\n        /* \"#utility.yul\":21134:21152   */\n      add\n        /* \"#utility.yul\":21126:21152   */\n      swap1\n      pop\n        /* \"#utility.yul\":21198:21207   */\n      dup2\n        /* \"#utility.yul\":21192:21196   */\n      dup2\n        /* \"#utility.yul\":21188:21208   */\n      sub\n        /* \"#utility.yul\":21184:21185   */\n      0x00\n        /* \"#utility.yul\":21173:21182   */\n      dup4\n        /* \"#utility.yul\":21169:21186   */\n      add\n        /* \"#utility.yul\":21162:21209   */\n      mstore\n        /* \"#utility.yul\":21226:21357   */\n      tag_434\n        /* \"#utility.yul\":21352:21356   */\n      dup2\n        /* \"#utility.yul\":21226:21357   */\n      tag_224\n      jump\t// in\n    tag_434:\n        /* \"#utility.yul\":21218:21357   */\n      swap1\n      pop\n        /* \"#utility.yul\":20945:21364   */\n      swap2\n      swap1\n      pop\n      jump\t// out\n        /* \"#utility.yul\":21370:21923   */\n    tag_148:\n        /* \"#utility.yul\":21547:21551   */\n      0x00\n        /* \"#utility.yul\":21585:21588   */\n      0x80\n        /* \"#utility.yul\":21574:21583   */\n      dup3\n        /* \"#utility.yul\":21570:21589   */\n      add\n        /* \"#utility.yul\":21562:21589   */\n      swap1\n      pop\n        /* \"#utility.yul\":21599:21670   */\n      tag_436\n        /* \"#utility.yul\":21667:21668   */\n      0x00\n        /* \"#utility.yul\":21656:21665   */\n      dup4\n        /* \"#utility.yul\":21652:21669   */\n      add\n        /* \"#utility.yul\":21643:21649   */\n      dup8\n        /* \"#utility.yul\":21599:21670   */\n      tag_198\n      jump\t// in\n    tag_436:\n        /* \"#utility.yul\":21680:21752   */\n      tag_437\n        /* \"#utility.yul\":21748:21750   */\n      0x20\n        /* \"#utility.yul\":21737:21746   */\n      dup4\n        /* \"#utility.yul\":21733:21751   */\n      add\n        /* \"#utility.yul\":21724:21730   */\n      dup7\n        /* \"#utility.yul\":21680:21752   */\n      tag_198\n      jump\t// in\n    tag_437:\n        /* \"#utility.yul\":21762:21834   */\n      tag_438\n        /* \"#utility.yul\":21830:21832   */\n      0x40\n        /* \"#utility.yul\":21819:21828   */\n      dup4\n        /* \"#utility.yul\":21815:21833   */\n      add\n        /* \"#utility.yul\":21806:21812   */\n      dup6\n        /* \"#utility.yul\":21762:21834   */\n      tag_197\n      jump\t// in\n    tag_438:\n        /* \"#utility.yul\":21844:21916   */\n      tag_439\n        /* \"#utility.yul\":21912:21914   */\n      0x60\n        /* \"#utility.yul\":21901:21910   */\n      dup4\n        /* \"#utility.yul\":21897:21915   */\n      add\n        /* \"#utility.yul\":21888:21894   */\n      dup5\n        /* \"#utility.yul\":21844:21916   */\n      tag_197\n      jump\t// in\n    tag_439:\n        /* \"#utility.yul\":21370:21923   */\n      swap6\n      swap5\n      pop\n      pop\n      pop\n      pop\n      pop\n      jump\t// out\n        /* \"#utility.yul\":21929:22109   */\n    tag_165:\n        /* \"#utility.yul\":21977:22054   */\n      0x4e487b7100000000000000000000000000000000000000000000000000000000\n        /* \"#utility.yul\":21974:21975   */\n      0x00\n        /* \"#utility.yul\":21967:22055   */\n      mstore\n        /* \"#utility.yul\":22074:22078   */\n      0x31\n        /* \"#utility.yul\":22071:22072   */\n      0x04\n        /* \"#utility.yul\":22064:22079   */\n      mstore\n        /* \"#utility.yul\":22098:22102   */\n      0x24\n        /* \"#utility.yul\":22095:22096   */\n      0x00\n        /* \"#utility.yul\":22088:22103   */\n      revert\n\n    auxdata: 0xa264697066735822122086a6c768910d4c16f0c16c8b8262d052e86b3c0def3d50e8cc7e1f892353cbfb64736f6c634300081a0033\n}\n",
				"bytecode": {
					"linkReferences": {},
					"object": "608060405234801561000f575f80fd5b50604051611d77380380611d77833981810160405281019061003191906101f1565b5f73ffffffffffffffffffffffffffffffffffffffff168273ffffffffffffffffffffffffffffffffffffffff160361009f576040517f08c379a000000000000000000000000000000000000000000000000000000000815260040161009690610289565b60405180910390fd5b5f73ffffffffffffffffffffffffffffffffffffffff168173ffffffffffffffffffffffffffffffffffffffff160361010d576040517f08c379a000000000000000000000000000000000000000000000000000000000815260040161010490610289565b60405180910390fd5b815f806101000a81548173ffffffffffffffffffffffffffffffffffffffff021916908373ffffffffffffffffffffffffffffffffffffffff1602179055508060015f6101000a81548173ffffffffffffffffffffffffffffffffffffffff021916908373ffffffffffffffffffffffffffffffffffffffff16021790555050506102a7565b5f80fd5b5f73ffffffffffffffffffffffffffffffffffffffff82169050919050565b5f6101c082610197565b9050919050565b6101d0816101b6565b81146101da575f80fd5b50565b5f815190506101eb816101c7565b92915050565b5f806040838503121561020757610206610193565b5b5f610214858286016101dd565b9250506020610225858286016101dd565b9150509250929050565b5f82825260208201905092915050565b7f7a65726f206164647265737300000000000000000000000000000000000000005f82015250565b5f610273600c8361022f565b915061027e8261023f565b602082019050919050565b5f6020820190508181035f8301526102a081610267565b9050919050565b611ac3806102b45f395ff3fe608060405234801561000f575f80fd5b50600436106100b2575f3560e01c8063a85c38ef1161006f578063a85c38ef14610178578063b5cdf924146101aa578063bca6ce64146101da578063d96a094a146101f8578063e0391b0914610214578063fcce488314610232576100b2565b8063150b7a02146100b65780633a52c7c2146100e657806340e58ee514610102578063629cb2e41461011e578063785e9e861461013c5780639d4971b71461015a575b5f80fd5b6100d060048036038101906100cb91906110c6565b610262565b6040516100dd9190611184565b60405180910390f35b61010060048036038101906100fb919061119d565b6104bb565b005b61011c600480360381019061011791906111db565b610611565b005b610126610786565b604051610133919061130c565b60405180910390f35b61014461093e565b6040516101519190611387565b60405180910390f35b610162610961565b60405161016f91906113af565b60405180910390f35b610192600480360381019061018d91906111db565b61096d565b6040516101a1939291906113d7565b60405180910390f35b6101c460048036038101906101bf9190611544565b6109c1565b6040516101d191906113af565b60405180910390f35b6101e2610a75565b6040516101ef91906115be565b60405180910390f35b610212600480360381019061020d91906111db565b610a9a565b005b61021c610c9e565b604051610229919061130c565b60405180910390f35b61024c600480360381019061024791906111db565b610d62565b60405161025991906115f1565b60405180910390f35b5f806102b184848080601f0160208091040260200160405190810160405280939291908181526020018383808284375f81840152601f19601f820116905080830192505050505050505f6109c1565b90505f81116102f5576040517f08c379a00000000000000000000000000000000000000000000000000000000081526004016102ec90611664565b60405180910390fd5b600360405180606001604052808873ffffffffffffffffffffffffffffffffffffffff16815260200187815260200183815250908060018154018082558091505060019003905f5260205f2090600302015f909190919091505f820151815f015f6101000a81548173ffffffffffffffffffffffffffffffffffffffff021916908373ffffffffffffffffffffffffffffffffffffffff1602179055506020820151816001015560408201518160020155505060405180606001604052808773ffffffffffffffffffffffffffffffffffffffff1681526020018681526020018281525060025f8781526020019081526020015f205f820151815f015f6101000a81548173ffffffffffffffffffffffffffffffffffffffff021916908373ffffffffffffffffffffffffffffffffffffffff1602179055506020820151816001015560408201518160020155905050600160038054905061045791906116af565b60045f8781526020019081526020015f20819055507fd5b509e657d5ec37ae4bdcab658b7340c0453bb630516d26623359a34c1cecf386868360405161049f939291906113d7565b60405180910390a163150b7a0260e01b91505095945050505050565b5f60025f8481526020019081526020015f205f015f9054906101000a900473ffffffffffffffffffffffffffffffffffffffff1690508073ffffffffffffffffffffffffffffffffffffffff163373ffffffffffffffffffffffffffffffffffffffff161461055f576040517f08c379a00000000000000000000000000000000000000000000000000000000081526004016105569061172c565b60405180910390fd5b5f60025f8581526020019081526020015f206002015490508260025f8681526020019081526020015f20600201819055505f600360045f8781526020019081526020015f2054815481106105b6576105b561174a565b5b905f5260205f20906003020190508381600201819055507fdac6aecd066304d15a41e8e590fc5ab5bf93634f43cba363f743d5e158d79988838684876040516106029493929190611777565b60405180910390a15050505050565b5f60025f8381526020019081526020015f205f015f9054906101000a900473ffffffffffffffffffffffffffffffffffffffff1690508073ffffffffffffffffffffffffffffffffffffffff163373ffffffffffffffffffffffffffffffffffffffff16146106b5576040517f08c379a00000000000000000000000000000000000000000000000000000000081526004016106ac9061172c565b60405180910390fd5b60015f9054906101000a900473ffffffffffffffffffffffffffffffffffffffff1673ffffffffffffffffffffffffffffffffffffffff166342842e0e3083856040518463ffffffff1660e01b8152600401610713939291906117ba565b5f604051808303815f87803b15801561072a575f80fd5b505af115801561073c573d5f803e3d5ffd5b5050505061074982610dcc565b7fc0e68d6b69f741c21e955cad2ae4d505b6f6735c7e7b278251b3f6283a5f07eb818360405161077a9291906117ef565b60405180910390a15050565b60605f60038054905067ffffffffffffffff8111156107a8576107a7611420565b5b6040519080825280602002602001820160405280156107e157816020015b6107ce610f93565b8152602001906001900390816107c65790505b5090505f805b600380549050811015610935573373ffffffffffffffffffffffffffffffffffffffff166003828154811061081f5761081e61174a565b5b905f5260205f2090600302015f015f9054906101000a900473ffffffffffffffffffffffffffffffffffffffff1673ffffffffffffffffffffffffffffffffffffffff1603610928576003818154811061087c5761087b61174a565b5b905f5260205f2090600302016040518060600160405290815f82015f9054906101000a900473ffffffffffffffffffffffffffffffffffffffff1673ffffffffffffffffffffffffffffffffffffffff1673ffffffffffffffffffffffffffffffffffffffff1681526020016001820154815260200160028201548152505083838151811061090e5761090d61174a565b5b6020026020010181905250818061092490611816565b9250505b80806001019150506107e7565b50819250505090565b5f8054906101000a900473ffffffffffffffffffffffffffffffffffffffff1681565b5f600380549050905090565b6003818154811061097c575f80fd5b905f5260205f2090600302015f91509050805f015f9054906101000a900473ffffffffffffffffffffffffffffffffffffffff16908060010154908060020154905083565b5f816020836109d0919061185d565b1015610a11576040517f08c379a0000000000000000000000000000000000000000000000000000000008152600401610a08906118da565b60405180910390fd5b602082610a1e919061185d565b83511015610a61576040517f08c379a0000000000000000000000000000000000000000000000000000000008152600401610a5890611942565b60405180910390fd5b5f8260208501015190508091505092915050565b60015f9054906101000a900473ffffffffffffffffffffffffffffffffffffffff1681565b5f60025f8381526020019081526020015f205f015f9054906101000a900473ffffffffffffffffffffffffffffffffffffffff1690505f3390505f60025f8581526020019081526020015f206002015490505f8054906101000a900473ffffffffffffffffffffffffffffffffffffffff1673ffffffffffffffffffffffffffffffffffffffff166323b872dd8385846040518463ffffffff1660e01b8152600401610b48939291906117ba565b6020604051808303815f875af1158015610b64573d5f803e3d5ffd5b505050506040513d601f19601f82011682018060405250810190610b88919061198a565b610bc7576040517f08c379a0000000000000000000000000000000000000000000000000000000008152600401610bbe906119ff565b60405180910390fd5b60015f9054906101000a900473ffffffffffffffffffffffffffffffffffffffff1673ffffffffffffffffffffffffffffffffffffffff166342842e0e3084876040518463ffffffff1660e01b8152600401610c25939291906117ba565b5f604051808303815f87803b158015610c3c575f80fd5b505af1158015610c4e573d5f803e3d5ffd5b50505050610c5b84610dcc565b7f424d5e5f0192c7dacdbe646ca31b00299146d883d76a95ef5cddbac7cd342eab83838684604051610c909493929190611a1d565b60405180910390a150505050565b60606003805480602002602001604051908101604052809291908181526020015f905b82821015610d59578382905f5260205f2090600302016040518060600160405290815f82015f9054906101000a900473ffffffffffffffffffffffffffffffffffffffff1673ffffffffffffffffffffffffffffffffffffffff1673ffffffffffffffffffffffffffffffffffffffff1681526020016001820154815260200160028201548152505081526020019060010190610cc1565b50505050905090565b5f8073ffffffffffffffffffffffffffffffffffffffff1660025f8481526020019081526020015f205f015f9054906101000a900473ffffffffffffffffffffffffffffffffffffffff1673ffffffffffffffffffffffffffffffffffffffff1614159050919050565b5f60045f8381526020019081526020015f205490505f6001600380549050610df491906116af565b9050808214610ed7575f60038281548110610e1257610e1161174a565b5b905f5260205f20906003020190508060038481548110610e3557610e3461174a565b5b905f5260205f2090600302015f82015f9054906101000a900473ffffffffffffffffffffffffffffffffffffffff16815f015f6101000a81548173ffffffffffffffffffffffffffffffffffffffff021916908373ffffffffffffffffffffffffffffffffffffffff16021790555060018201548160010155600282015481600201559050508260045f836001015481526020019081526020015f2081905550505b6003805480610ee957610ee8611a60565b5b600190038181905f5260205f2090600302015f8082015f6101000a81549073ffffffffffffffffffffffffffffffffffffffff0219169055600182015f9055600282015f90555050905560025f8481526020019081526020015f205f8082015f6101000a81549073ffffffffffffffffffffffffffffffffffffffff0219169055600182015f9055600282015f9055505060045f8381526020019081526020015f205f9055505050565b60405180606001604052805f73ffffffffffffffffffffffffffffffffffffffff1681526020015f81526020015f81525090565b5f604051905090565b5f80fd5b5f80fd5b5f73ffffffffffffffffffffffffffffffffffffffff82169050919050565b5f61100182610fd8565b9050919050565b61101181610ff7565b811461101b575f80fd5b50565b5f8135905061102c81611008565b92915050565b5f819050919050565b61104481611032565b811461104e575f80fd5b50565b5f8135905061105f8161103b565b92915050565b5f80fd5b5f80fd5b5f80fd5b5f8083601f84011261108657611085611065565b5b8235905067ffffffffffffffff8111156110a3576110a2611069565b5b6020830191508360018202830111156110bf576110be61106d565b5b9250929050565b5f805f805f608086880312156110df576110de610fd0565b5b5f6110ec8882890161101e565b95505060206110fd8882890161101e565b945050604061110e88828901611051565b935050606086013567ffffffffffffffff81111561112f5761112e610fd4565b5b61113b88828901611071565b92509250509295509295909350565b5f7fffffffff0000000000000000000000000000000000000000000000000000000082169050919050565b61117e8161114a565b82525050565b5f6020820190506111975f830184611175565b92915050565b5f80604083850312156111b3576111b2610fd0565b5b5f6111c085828601611051565b92505060206111d185828601611051565b9150509250929050565b5f602082840312156111f0576111ef610fd0565b5b5f6111fd84828501611051565b91505092915050565b5f81519050919050565b5f82825260208201905092915050565b5f819050602082019050919050565b61123881610ff7565b82525050565b61124781611032565b82525050565b606082015f8201516112615f85018261122f565b506020820151611274602085018261123e565b506040820151611287604085018261123e565b50505050565b5f611298838361124d565b60608301905092915050565b5f602082019050919050565b5f6112ba82611206565b6112c48185611210565b93506112cf83611220565b805f5b838110156112ff5781516112e6888261128d565b97506112f1836112a4565b9250506001810190506112d2565b5085935050505092915050565b5f6020820190508181035f83015261132481846112b0565b905092915050565b5f819050919050565b5f61134f61134a61134584610fd8565b61132c565b610fd8565b9050919050565b5f61136082611335565b9050919050565b5f61137182611356565b9050919050565b61138181611367565b82525050565b5f60208201905061139a5f830184611378565b92915050565b6113a981611032565b82525050565b5f6020820190506113c25f8301846113a0565b92915050565b6113d181610ff7565b82525050565b5f6060820190506113ea5f8301866113c8565b6113f760208301856113a0565b61140460408301846113a0565b949350505050565b5f80fd5b5f601f19601f8301169050919050565b7f4e487b71000000000000000000000000000000000000000000000000000000005f52604160045260245ffd5b61145682611410565b810181811067ffffffffffffffff8211171561147557611474611420565b5b80604052505050565b5f611487610fc7565b9050611493828261144d565b919050565b5f67ffffffffffffffff8211156114b2576114b1611420565b5b6114bb82611410565b9050602081019050919050565b828183375f83830152505050565b5f6114e86114e384611498565b61147e565b9050828152602081018484840111156115045761150361140c565b5b61150f8482856114c8565b509392505050565b5f82601f83011261152b5761152a611065565b5b813561153b8482602086016114d6565b91505092915050565b5f806040838503121561155a57611559610fd0565b5b5f83013567ffffffffffffffff81111561157757611576610fd4565b5b61158385828601611517565b925050602061159485828601611051565b9150509250929050565b5f6115a882611356565b9050919050565b6115b88161159e565b82525050565b5f6020820190506115d15f8301846115af565b92915050565b5f8115159050919050565b6115eb816115d7565b82525050565b5f6020820190506116045f8301846115e2565b92915050565b5f82825260208201905092915050565b7f7072696365206d7573742062652067726561746572207468616e2030000000005f82015250565b5f61164e601c8361160a565b91506116598261161a565b602082019050919050565b5f6020820190508181035f83015261167b81611642565b9050919050565b7f4e487b71000000000000000000000000000000000000000000000000000000005f52601160045260245ffd5b5f6116b982611032565b91506116c483611032565b92508282039050818111156116dc576116db611682565b5b92915050565b7f6e6f742073656c6c6572000000000000000000000000000000000000000000005f82015250565b5f611716600a8361160a565b9150611721826116e2565b602082019050919050565b5f6020820190508181035f8301526117438161170a565b9050919050565b7f4e487b71000000000000000000000000000000000000000000000000000000005f52603260045260245ffd5b5f60808201905061178a5f8301876113c8565b61179760208301866113a0565b6117a460408301856113a0565b6117b160608301846113a0565b95945050505050565b5f6060820190506117cd5f8301866113c8565b6117da60208301856113c8565b6117e760408301846113a0565b949350505050565b5f6040820190506118025f8301856113c8565b61180f60208301846113a0565b9392505050565b5f61182082611032565b91507fffffffffffffffffffffffffffffffffffffffffffffffffffffffffffffffff820361185257611851611682565b5b600182019050919050565b5f61186782611032565b915061187283611032565b925082820190508082111561188a57611889611682565b5b92915050565b7f4d61726b65743a746f55696e743235365f6f766572666c6f77000000000000005f82015250565b5f6118c460198361160a565b91506118cf82611890565b602082019050919050565b5f6020820190508181035f8301526118f1816118b8565b9050919050565b7f746f55696e743235365f6f75744f66426f756e647300000000000000000000005f82015250565b5f61192c60158361160a565b9150611937826118f8565b602082019050919050565b5f6020820190508181035f83015261195981611920565b9050919050565b611969816115d7565b8114611973575f80fd5b50565b5f8151905061198481611960565b92915050565b5f6020828403121561199f5761199e610fd0565b5b5f6119ac84828501611976565b91505092915050565b7f7472616e73666572206661696c000000000000000000000000000000000000005f82015250565b5f6119e9600d8361160a565b91506119f4826119b5565b602082019050919050565b5f6020820190508181035f830152611a16816119dd565b9050919050565b5f608082019050611a305f8301876113c8565b611a3d60208301866113c8565b611a4a60408301856113a0565b611a5760608301846113a0565b95945050505050565b7f4e487b71000000000000000000000000000000000000000000000000000000005f52603160045260245ffdfea264697066735822122086a6c768910d4c16f0c16c8b8262d052e86b3c0def3d50e8cc7e1f892353cbfb64736f6c634300081a0033",
					"opcodes": "PUSH1 0x80 PUSH1 0x40 MSTORE CALLVALUE DUP1 ISZERO PUSH2 0xF JUMPI PUSH0 DUP1 REVERT JUMPDEST POP PUSH1 0x40 MLOAD PUSH2 0x1D77 CODESIZE SUB DUP1 PUSH2 0x1D77 DUP4 CODECOPY DUP2 DUP2 ADD PUSH1 0x40 MSTORE DUP2 ADD SWAP1 PUSH2 0x31 SWAP2 SWAP1 PUSH2 0x1F1 JUMP JUMPDEST PUSH0 PUSH20 0xFFFFFFFFFFFFFFFFFFFFFFFFFFFFFFFFFFFFFFFF AND DUP3 PUSH20 0xFFFFFFFFFFFFFFFFFFFFFFFFFFFFFFFFFFFFFFFF AND SUB PUSH2 0x9F JUMPI PUSH1 0x40 MLOAD PUSH32 0x8C379A000000000000000000000000000000000000000000000000000000000 DUP2 MSTORE PUSH1 0x4 ADD PUSH2 0x96 SWAP1 PUSH2 0x289 JUMP JUMPDEST PUSH1 0x40 MLOAD DUP1 SWAP2 SUB SWAP1 REVERT JUMPDEST PUSH0 PUSH20 0xFFFFFFFFFFFFFFFFFFFFFFFFFFFFFFFFFFFFFFFF AND DUP2 PUSH20 0xFFFFFFFFFFFFFFFFFFFFFFFFFFFFFFFFFFFFFFFF AND SUB PUSH2 0x10D JUMPI PUSH1 0x40 MLOAD PUSH32 0x8C379A000000000000000000000000000000000000000000000000000000000 DUP2 MSTORE PUSH1 0x4 ADD PUSH2 0x104 SWAP1 PUSH2 0x289 JUMP JUMPDEST PUSH1 0x40 MLOAD DUP1 SWAP2 SUB SWAP1 REVERT JUMPDEST DUP2 PUSH0 DUP1 PUSH2 0x100 EXP DUP2 SLOAD DUP2 PUSH20 0xFFFFFFFFFFFFFFFFFFFFFFFFFFFFFFFFFFFFFFFF MUL NOT AND SWAP1 DUP4 PUSH20 0xFFFFFFFFFFFFFFFFFFFFFFFFFFFFFFFFFFFFFFFF AND MUL OR SWAP1 SSTORE POP DUP1 PUSH1 0x1 PUSH0 PUSH2 0x100 EXP DUP2 SLOAD DUP2 PUSH20 0xFFFFFFFFFFFFFFFFFFFFFFFFFFFFFFFFFFFFFFFF MUL NOT AND SWAP1 DUP4 PUSH20 0xFFFFFFFFFFFFFFFFFFFFFFFFFFFFFFFFFFFFFFFF AND MUL OR SWAP1 SSTORE POP POP POP PUSH2 0x2A7 JUMP JUMPDEST PUSH0 DUP1 REVERT JUMPDEST PUSH0 PUSH20 0xFFFFFFFFFFFFFFFFFFFFFFFFFFFFFFFFFFFFFFFF DUP3 AND SWAP1 POP SWAP2 SWAP1 POP JUMP JUMPDEST PUSH0 PUSH2 0x1C0 DUP3 PUSH2 0x197 JUMP JUMPDEST SWAP1 POP SWAP2 SWAP1 POP JUMP JUMPDEST PUSH2 0x1D0 DUP2 PUSH2 0x1B6 JUMP JUMPDEST DUP2 EQ PUSH2 0x1DA JUMPI PUSH0 DUP1 REVERT JUMPDEST POP JUMP JUMPDEST PUSH0 DUP2 MLOAD SWAP1 POP PUSH2 0x1EB DUP2 PUSH2 0x1C7 JUMP JUMPDEST SWAP3 SWAP2 POP POP JUMP JUMPDEST PUSH0 DUP1 PUSH1 0x40 DUP4 DUP6 SUB SLT ISZERO PUSH2 0x207 JUMPI PUSH2 0x206 PUSH2 0x193 JUMP JUMPDEST JUMPDEST PUSH0 PUSH2 0x214 DUP6 DUP3 DUP7 ADD PUSH2 0x1DD JUMP JUMPDEST SWAP3 POP POP PUSH1 0x20 PUSH2 0x225 DUP6 DUP3 DUP7 ADD PUSH2 0x1DD JUMP JUMPDEST SWAP2 POP POP SWAP3 POP SWAP3 SWAP1 POP JUMP JUMPDEST PUSH0 DUP3 DUP3 MSTORE PUSH1 0x20 DUP3 ADD SWAP1 POP SWAP3 SWAP2 POP POP JUMP JUMPDEST PUSH32 0x7A65726F20616464726573730000000000000000000000000000000000000000 PUSH0 DUP3 ADD MSTORE POP JUMP JUMPDEST PUSH0 PUSH2 0x273 PUSH1 0xC DUP4 PUSH2 0x22F JUMP JUMPDEST SWAP2 POP PUSH2 0x27E DUP3 PUSH2 0x23F JUMP JUMPDEST PUSH1 0x20 DUP3 ADD SWAP1 POP SWAP2 SWAP1 POP JUMP JUMPDEST PUSH0 PUSH1 0x20 DUP3 ADD SWAP1 POP DUP2 DUP2 SUB PUSH0 DUP4 ADD MSTORE PUSH2 0x2A0 DUP2 PUSH2 0x267 JUMP JUMPDEST SWAP1 POP SWAP2 SWAP1 POP JUMP JUMPDEST PUSH2 0x1AC3 DUP1 PUSH2 0x2B4 PUSH0 CODECOPY PUSH0 RETURN INVALID PUSH1 0x80 PUSH1 0x40 MSTORE CALLVALUE DUP1 ISZERO PUSH2 0xF JUMPI PUSH0 DUP1 REVERT JUMPDEST POP PUSH1 0x4 CALLDATASIZE LT PUSH2 0xB2 JUMPI PUSH0 CALLDATALOAD PUSH1 0xE0 SHR DUP1 PUSH4 0xA85C38EF GT PUSH2 0x6F JUMPI DUP1 PUSH4 0xA85C38EF EQ PUSH2 0x178 JUMPI DUP1 PUSH4 0xB5CDF924 EQ PUSH2 0x1AA JUMPI DUP1 PUSH4 0xBCA6CE64 EQ PUSH2 0x1DA JUMPI DUP1 PUSH4 0xD96A094A EQ PUSH2 0x1F8 JUMPI DUP1 PUSH4 0xE0391B09 EQ PUSH2 0x214 JUMPI DUP1 PUSH4 0xFCCE4883 EQ PUSH2 0x232 JUMPI PUSH2 0xB2 JUMP JUMPDEST DUP1 PUSH4 0x150B7A02 EQ PUSH2 0xB6 JUMPI DUP1 PUSH4 0x3A52C7C2 EQ PUSH2 0xE6 JUMPI DUP1 PUSH4 0x40E58EE5 EQ PUSH2 0x102 JUMPI DUP1 PUSH4 0x629CB2E4 EQ PUSH2 0x11E JUMPI DUP1 PUSH4 0x785E9E86 EQ PUSH2 0x13C JUMPI DUP1 PUSH4 0x9D4971B7 EQ PUSH2 0x15A JUMPI JUMPDEST PUSH0 DUP1 REVERT JUMPDEST PUSH2 0xD0 PUSH1 0x4 DUP1 CALLDATASIZE SUB DUP2 ADD SWAP1 PUSH2 0xCB SWAP2 SWAP1 PUSH2 0x10C6 JUMP JUMPDEST PUSH2 0x262 JUMP JUMPDEST PUSH1 0x40 MLOAD PUSH2 0xDD SWAP2 SWAP1 PUSH2 0x1184 JUMP JUMPDEST PUSH1 0x40 MLOAD DUP1 SWAP2 SUB SWAP1 RETURN JUMPDEST PUSH2 0x100 PUSH1 0x4 DUP1 CALLDATASIZE SUB DUP2 ADD SWAP1 PUSH2 0xFB SWAP2 SWAP1 PUSH2 0x119D JUMP JUMPDEST PUSH2 0x4BB JUMP JUMPDEST STOP JUMPDEST PUSH2 0x11C PUSH1 0x4 DUP1 CALLDATASIZE SUB DUP2 ADD SWAP1 PUSH2 0x117 SWAP2 SWAP1 PUSH2 0x11DB JUMP JUMPDEST PUSH2 0x611 JUMP JUMPDEST STOP JUMPDEST PUSH2 0x126 PUSH2 0x786 JUMP JUMPDEST PUSH1 0x40 MLOAD PUSH2 0x133 SWAP2 SWAP1 PUSH2 0x130C JUMP JUMPDEST PUSH1 0x40 MLOAD DUP1 SWAP2 SUB SWAP1 RETURN JUMPDEST PUSH2 0x144 PUSH2 0x93E JUMP JUMPDEST PUSH1 0x40 MLOAD PUSH2 0x151 SWAP2 SWAP1 PUSH2 0x1387 JUMP JUMPDEST PUSH1 0x40 MLOAD DUP1 SWAP2 SUB SWAP1 RETURN JUMPDEST PUSH2 0x162 PUSH2 0x961 JUMP JUMPDEST PUSH1 0x40 MLOAD PUSH2 0x16F SWAP2 SWAP1 PUSH2 0x13AF JUMP JUMPDEST PUSH1 0x40 MLOAD DUP1 SWAP2 SUB SWAP1 RETURN JUMPDEST PUSH2 0x192 PUSH1 0x4 DUP1 CALLDATASIZE SUB DUP2 ADD SWAP1 PUSH2 0x18D SWAP2 SWAP1 PUSH2 0x11DB JUMP JUMPDEST PUSH2 0x96D JUMP JUMPDEST PUSH1 0x40 MLOAD PUSH2 0x1A1 SWAP4 SWAP3 SWAP2 SWAP1 PUSH2 0x13D7 JUMP JUMPDEST PUSH1 0x40 MLOAD DUP1 SWAP2 SUB SWAP1 RETURN JUMPDEST PUSH2 0x1C4 PUSH1 0x4 DUP1 CALLDATASIZE SUB DUP2 ADD SWAP1 PUSH2 0x1BF SWAP2 SWAP1 PUSH2 0x1544 JUMP JUMPDEST PUSH2 0x9C1 JUMP JUMPDEST PUSH1 0x40 MLOAD PUSH2 0x1D1 SWAP2 SWAP1 PUSH2 0x13AF JUMP JUMPDEST PUSH1 0x40 MLOAD DUP1 SWAP2 SUB SWAP1 RETURN JUMPDEST PUSH2 0x1E2 PUSH2 0xA75 JUMP JUMPDEST PUSH1 0x40 MLOAD PUSH2 0x1EF SWAP2 SWAP1 PUSH2 0x15BE JUMP JUMPDEST PUSH1 0x40 MLOAD DUP1 SWAP2 SUB SWAP1 RETURN JUMPDEST PUSH2 0x212 PUSH1 0x4 DUP1 CALLDATASIZE SUB DUP2 ADD SWAP1 PUSH2 0x20D SWAP2 SWAP1 PUSH2 0x11DB JUMP JUMPDEST PUSH2 0xA9A JUMP JUMPDEST STOP JUMPDEST PUSH2 0x21C PUSH2 0xC9E JUMP JUMPDEST PUSH1 0x40 MLOAD PUSH2 0x229 SWAP2 SWAP1 PUSH2 0x130C JUMP JUMPDEST PUSH1 0x40 MLOAD DUP1 SWAP2 SUB SWAP1 RETURN JUMPDEST PUSH2 0x24C PUSH1 0x4 DUP1 CALLDATASIZE SUB DUP2 ADD SWAP1 PUSH2 0x247 SWAP2 SWAP1 PUSH2 0x11DB JUMP JUMPDEST PUSH2 0xD62 JUMP JUMPDEST PUSH1 0x40 MLOAD PUSH2 0x259 SWAP2 SWAP1 PUSH2 0x15F1 JUMP JUMPDEST PUSH1 0x40 MLOAD DUP1 SWAP2 SUB SWAP1 RETURN JUMPDEST PUSH0 DUP1 PUSH2 0x2B1 DUP5 DUP5 DUP1 DUP1 PUSH1 0x1F ADD PUSH1 0x20 DUP1 SWAP2 DIV MUL PUSH1 0x20 ADD PUSH1 0x40 MLOAD SWAP1 DUP2 ADD PUSH1 0x40 MSTORE DUP1 SWAP4 SWAP3 SWAP2 SWAP1 DUP2 DUP2 MSTORE PUSH1 0x20 ADD DUP4 DUP4 DUP1 DUP3 DUP5 CALLDATACOPY PUSH0 DUP2 DUP5 ADD MSTORE PUSH1 0x1F NOT PUSH1 0x1F DUP3 ADD AND SWAP1 POP DUP1 DUP4 ADD SWAP3 POP POP POP POP POP POP POP PUSH0 PUSH2 0x9C1 JUMP JUMPDEST SWAP1 POP PUSH0 DUP2 GT PUSH2 0x2F5 JUMPI PUSH1 0x40 MLOAD PUSH32 0x8C379A000000000000000000000000000000000000000000000000000000000 DUP2 MSTORE PUSH1 0x4 ADD PUSH2 0x2EC SWAP1 PUSH2 0x1664 JUMP JUMPDEST PUSH1 0x40 MLOAD DUP1 SWAP2 SUB SWAP1 REVERT JUMPDEST PUSH1 0x3 PUSH1 0x40 MLOAD DUP1 PUSH1 0x60 ADD PUSH1 0x40 MSTORE DUP1 DUP9 PUSH20 0xFFFFFFFFFFFFFFFFFFFFFFFFFFFFFFFFFFFFFFFF AND DUP2 MSTORE PUSH1 0x20 ADD DUP8 DUP2 MSTORE PUSH1 0x20 ADD DUP4 DUP2 MSTORE POP SWAP1 DUP1 PUSH1 0x1 DUP2 SLOAD ADD DUP1 DUP3 SSTORE DUP1 SWAP2 POP POP PUSH1 0x1 SWAP1 SUB SWAP1 PUSH0 MSTORE PUSH1 0x20 PUSH0 KECCAK256 SWAP1 PUSH1 0x3 MUL ADD PUSH0 SWAP1 SWAP2 SWAP1 SWAP2 SWAP1 SWAP2 POP PUSH0 DUP3 ADD MLOAD DUP2 PUSH0 ADD PUSH0 PUSH2 0x100 EXP DUP2 SLOAD DUP2 PUSH20 0xFFFFFFFFFFFFFFFFFFFFFFFFFFFFFFFFFFFFFFFF MUL NOT AND SWAP1 DUP4 PUSH20 0xFFFFFFFFFFFFFFFFFFFFFFFFFFFFFFFFFFFFFFFF AND MUL OR SWAP1 SSTORE POP PUSH1 0x20 DUP3 ADD MLOAD DUP2 PUSH1 0x1 ADD SSTORE PUSH1 0x40 DUP3 ADD MLOAD DUP2 PUSH1 0x2 ADD SSTORE POP POP PUSH1 0x40 MLOAD DUP1 PUSH1 0x60 ADD PUSH1 0x40 MSTORE DUP1 DUP8 PUSH20 0xFFFFFFFFFFFFFFFFFFFFFFFFFFFFFFFFFFFFFFFF AND DUP2 MSTORE PUSH1 0x20 ADD DUP7 DUP2 MSTORE PUSH1 0x20 ADD DUP3 DUP2 MSTORE POP PUSH1 0x2 PUSH0 DUP8 DUP2 MSTORE PUSH1 0x20 ADD SWAP1 DUP2 MSTORE PUSH1 0x20 ADD PUSH0 KECCAK256 PUSH0 DUP3 ADD MLOAD DUP2 PUSH0 ADD PUSH0 PUSH2 0x100 EXP DUP2 SLOAD DUP2 PUSH20 0xFFFFFFFFFFFFFFFFFFFFFFFFFFFFFFFFFFFFFFFF MUL NOT AND SWAP1 DUP4 PUSH20 0xFFFFFFFFFFFFFFFFFFFFFFFFFFFFFFFFFFFFFFFF AND MUL OR SWAP1 SSTORE POP PUSH1 0x20 DUP3 ADD MLOAD DUP2 PUSH1 0x1 ADD SSTORE PUSH1 0x40 DUP3 ADD MLOAD DUP2 PUSH1 0x2 ADD SSTORE SWAP1 POP POP PUSH1 0x1 PUSH1 0x3 DUP1 SLOAD SWAP1 POP PUSH2 0x457 SWAP2 SWAP1 PUSH2 0x16AF JUMP JUMPDEST PUSH1 0x4 PUSH0 DUP8 DUP2 MSTORE PUSH1 0x20 ADD SWAP1 DUP2 MSTORE PUSH1 0x20 ADD PUSH0 KECCAK256 DUP2 SWAP1 SSTORE POP PUSH32 0xD5B509E657D5EC37AE4BDCAB658B7340C0453BB630516D26623359A34C1CECF3 DUP7 DUP7 DUP4 PUSH1 0x40 MLOAD PUSH2 0x49F SWAP4 SWAP3 SWAP2 SWAP1 PUSH2 0x13D7 JUMP JUMPDEST PUSH1 0x40 MLOAD DUP1 SWAP2 SUB SWAP1 LOG1 PUSH4 0x150B7A02 PUSH1 0xE0 SHL SWAP2 POP POP SWAP6 SWAP5 POP POP POP POP POP JUMP JUMPDEST PUSH0 PUSH1 0x2 PUSH0 DUP5 DUP2 MSTORE PUSH1 0x20 ADD SWAP1 DUP2 MSTORE PUSH1 0x20 ADD PUSH0 KECCAK256 PUSH0 ADD PUSH0 SWAP1 SLOAD SWAP1 PUSH2 0x100 EXP SWAP1 DIV PUSH20 0xFFFFFFFFFFFFFFFFFFFFFFFFFFFFFFFFFFFFFFFF AND SWAP1 POP DUP1 PUSH20 0xFFFFFFFFFFFFFFFFFFFFFFFFFFFFFFFFFFFFFFFF AND CALLER PUSH20 0xFFFFFFFFFFFFFFFFFFFFFFFFFFFFFFFFFFFFFFFF AND EQ PUSH2 0x55F JUMPI PUSH1 0x40 MLOAD PUSH32 0x8C379A000000000000000000000000000000000000000000000000000000000 DUP2 MSTORE PUSH1 0x4 ADD PUSH2 0x556 SWAP1 PUSH2 0x172C JUMP JUMPDEST PUSH1 0x40 MLOAD DUP1 SWAP2 SUB SWAP1 REVERT JUMPDEST PUSH0 PUSH1 0x2 PUSH0 DUP6 DUP2 MSTORE PUSH1 0x20 ADD SWAP1 DUP2 MSTORE PUSH1 0x20 ADD PUSH0 KECCAK256 PUSH1 0x2 ADD SLOAD SWAP1 POP DUP3 PUSH1 0x2 PUSH0 DUP7 DUP2 MSTORE PUSH1 0x20 ADD SWAP1 DUP2 MSTORE PUSH1 0x20 ADD PUSH0 KECCAK256 PUSH1 0x2 ADD DUP2 SWAP1 SSTORE POP PUSH0 PUSH1 0x3 PUSH1 0x4 PUSH0 DUP8 DUP2 MSTORE PUSH1 0x20 ADD SWAP1 DUP2 MSTORE PUSH1 0x20 ADD PUSH0 KECCAK256 SLOAD DUP2 SLOAD DUP2 LT PUSH2 0x5B6 JUMPI PUSH2 0x5B5 PUSH2 0x174A JUMP JUMPDEST JUMPDEST SWAP1 PUSH0 MSTORE PUSH1 0x20 PUSH0 KECCAK256 SWAP1 PUSH1 0x3 MUL ADD SWAP1 POP DUP4 DUP2 PUSH1 0x2 ADD DUP2 SWAP1 SSTORE POP PUSH32 0xDAC6AECD066304D15A41E8E590FC5AB5BF93634F43CBA363F743D5E158D79988 DUP4 DUP7 DUP5 DUP8 PUSH1 0x40 MLOAD PUSH2 0x602 SWAP5 SWAP4 SWAP3 SWAP2 SWAP1 PUSH2 0x1777 JUMP JUMPDEST PUSH1 0x40 MLOAD DUP1 SWAP2 SUB SWAP1 LOG1 POP POP POP POP POP JUMP JUMPDEST PUSH0 PUSH1 0x2 PUSH0 DUP4 DUP2 MSTORE PUSH1 0x20 ADD SWAP1 DUP2 MSTORE PUSH1 0x20 ADD PUSH0 KECCAK256 PUSH0 ADD PUSH0 SWAP1 SLOAD SWAP1 PUSH2 0x100 EXP SWAP1 DIV PUSH20 0xFFFFFFFFFFFFFFFFFFFFFFFFFFFFFFFFFFFFFFFF AND SWAP1 POP DUP1 PUSH20 0xFFFFFFFFFFFFFFFFFFFFFFFFFFFFFFFFFFFFFFFF AND CALLER PUSH20 0xFFFFFFFFFFFFFFFFFFFFFFFFFFFFFFFFFFFFFFFF AND EQ PUSH2 0x6B5 JUMPI PUSH1 0x40 MLOAD PUSH32 0x8C379A000000000000000000000000000000000000000000000000000000000 DUP2 MSTORE PUSH1 0x4 ADD PUSH2 0x6AC SWAP1 PUSH2 0x172C JUMP JUMPDEST PUSH1 0x40 MLOAD DUP1 SWAP2 SUB SWAP1 REVERT JUMPDEST PUSH1 0x1 PUSH0 SWAP1 SLOAD SWAP1 PUSH2 0x100 EXP SWAP1 DIV PUSH20 0xFFFFFFFFFFFFFFFFFFFFFFFFFFFFFFFFFFFFFFFF AND PUSH20 0xFFFFFFFFFFFFFFFFFFFFFFFFFFFFFFFFFFFFFFFF AND PUSH4 0x42842E0E ADDRESS DUP4 DUP6 PUSH1 0x40 MLOAD DUP5 PUSH4 0xFFFFFFFF AND PUSH1 0xE0 SHL DUP2 MSTORE PUSH1 0x4 ADD PUSH2 0x713 SWAP4 SWAP3 SWAP2 SWAP1 PUSH2 0x17BA JUMP JUMPDEST PUSH0 PUSH1 0x40 MLOAD DUP1 DUP4 SUB DUP2 PUSH0 DUP8 DUP1 EXTCODESIZE ISZERO DUP1 ISZERO PUSH2 0x72A JUMPI PUSH0 DUP1 REVERT JUMPDEST POP GAS CALL ISZERO DUP1 ISZERO PUSH2 0x73C JUMPI RETURNDATASIZE PUSH0 DUP1 RETURNDATACOPY RETURNDATASIZE PUSH0 REVERT JUMPDEST POP POP POP POP PUSH2 0x749 DUP3 PUSH2 0xDCC JUMP JUMPDEST PUSH32 0xC0E68D6B69F741C21E955CAD2AE4D505B6F6735C7E7B278251B3F6283A5F07EB DUP2 DUP4 PUSH1 0x40 MLOAD PUSH2 0x77A SWAP3 SWAP2 SWAP1 PUSH2 0x17EF JUMP JUMPDEST PUSH1 0x40 MLOAD DUP1 SWAP2 SUB SWAP1 LOG1 POP POP JUMP JUMPDEST PUSH1 0x60 PUSH0 PUSH1 0x3 DUP1 SLOAD SWAP1 POP PUSH8 0xFFFFFFFFFFFFFFFF DUP2 GT ISZERO PUSH2 0x7A8 JUMPI PUSH2 0x7A7 PUSH2 0x1420 JUMP JUMPDEST JUMPDEST PUSH1 0x40 MLOAD SWAP1 DUP1 DUP3 MSTORE DUP1 PUSH1 0x20 MUL PUSH1 0x20 ADD DUP3 ADD PUSH1 0x40 MSTORE DUP1 ISZERO PUSH2 0x7E1 JUMPI DUP2 PUSH1 0x20 ADD JUMPDEST PUSH2 0x7CE PUSH2 0xF93 JUMP JUMPDEST DUP2 MSTORE PUSH1 0x20 ADD SWAP1 PUSH1 0x1 SWAP1 SUB SWAP1 DUP2 PUSH2 0x7C6 JUMPI SWAP1 POP JUMPDEST POP SWAP1 POP PUSH0 DUP1 JUMPDEST PUSH1 0x3 DUP1 SLOAD SWAP1 POP DUP2 LT ISZERO PUSH2 0x935 JUMPI CALLER PUSH20 0xFFFFFFFFFFFFFFFFFFFFFFFFFFFFFFFFFFFFFFFF AND PUSH1 0x3 DUP3 DUP2 SLOAD DUP2 LT PUSH2 0x81F JUMPI PUSH2 0x81E PUSH2 0x174A JUMP JUMPDEST JUMPDEST SWAP1 PUSH0 MSTORE PUSH1 0x20 PUSH0 KECCAK256 SWAP1 PUSH1 0x3 MUL ADD PUSH0 ADD PUSH0 SWAP1 SLOAD SWAP1 PUSH2 0x100 EXP SWAP1 DIV PUSH20 0xFFFFFFFFFFFFFFFFFFFFFFFFFFFFFFFFFFFFFFFF AND PUSH20 0xFFFFFFFFFFFFFFFFFFFFFFFFFFFFFFFFFFFFFFFF AND SUB PUSH2 0x928 JUMPI PUSH1 0x3 DUP2 DUP2 SLOAD DUP2 LT PUSH2 0x87C JUMPI PUSH2 0x87B PUSH2 0x174A JUMP JUMPDEST JUMPDEST SWAP1 PUSH0 MSTORE PUSH1 0x20 PUSH0 KECCAK256 SWAP1 PUSH1 0x3 MUL ADD PUSH1 0x40 MLOAD DUP1 PUSH1 0x60 ADD PUSH1 0x40 MSTORE SWAP1 DUP2 PUSH0 DUP3 ADD PUSH0 SWAP1 SLOAD SWAP1 PUSH2 0x100 EXP SWAP1 DIV PUSH20 0xFFFFFFFFFFFFFFFFFFFFFFFFFFFFFFFFFFFFFFFF AND PUSH20 0xFFFFFFFFFFFFFFFFFFFFFFFFFFFFFFFFFFFFFFFF AND PUSH20 0xFFFFFFFFFFFFFFFFFFFFFFFFFFFFFFFFFFFFFFFF AND DUP2 MSTORE PUSH1 0x20 ADD PUSH1 0x1 DUP3 ADD SLOAD DUP2 MSTORE PUSH1 0x20 ADD PUSH1 0x2 DUP3 ADD SLOAD DUP2 MSTORE POP POP DUP4 DUP4 DUP2 MLOAD DUP2 LT PUSH2 0x90E JUMPI PUSH2 0x90D PUSH2 0x174A JUMP JUMPDEST JUMPDEST PUSH1 0x20 MUL PUSH1 0x20 ADD ADD DUP2 SWAP1 MSTORE POP DUP2 DUP1 PUSH2 0x924 SWAP1 PUSH2 0x1816 JUMP JUMPDEST SWAP3 POP POP JUMPDEST DUP1 DUP1 PUSH1 0x1 ADD SWAP2 POP POP PUSH2 0x7E7 JUMP JUMPDEST POP DUP2 SWAP3 POP POP POP SWAP1 JUMP JUMPDEST PUSH0 DUP1 SLOAD SWAP1 PUSH2 0x100 EXP SWAP1 DIV PUSH20 0xFFFFFFFFFFFFFFFFFFFFFFFFFFFFFFFFFFFFFFFF AND DUP2 JUMP JUMPDEST PUSH0 PUSH1 0x3 DUP1 SLOAD SWAP1 POP SWAP1 POP SWAP1 JUMP JUMPDEST PUSH1 0x3 DUP2 DUP2 SLOAD DUP2 LT PUSH2 0x97C JUMPI PUSH0 DUP1 REVERT JUMPDEST SWAP1 PUSH0 MSTORE PUSH1 0x20 PUSH0 KECCAK256 SWAP1 PUSH1 0x3 MUL ADD PUSH0 SWAP2 POP SWAP1 POP DUP1 PUSH0 ADD PUSH0 SWAP1 SLOAD SWAP1 PUSH2 0x100 EXP SWAP1 DIV PUSH20 0xFFFFFFFFFFFFFFFFFFFFFFFFFFFFFFFFFFFFFFFF AND SWAP1 DUP1 PUSH1 0x1 ADD SLOAD SWAP1 DUP1 PUSH1 0x2 ADD SLOAD SWAP1 POP DUP4 JUMP JUMPDEST PUSH0 DUP2 PUSH1 0x20 DUP4 PUSH2 0x9D0 SWAP2 SWAP1 PUSH2 0x185D JUMP JUMPDEST LT ISZERO PUSH2 0xA11 JUMPI PUSH1 0x40 MLOAD PUSH32 0x8C379A000000000000000000000000000000000000000000000000000000000 DUP2 MSTORE PUSH1 0x4 ADD PUSH2 0xA08 SWAP1 PUSH2 0x18DA JUMP JUMPDEST PUSH1 0x40 MLOAD DUP1 SWAP2 SUB SWAP1 REVERT JUMPDEST PUSH1 0x20 DUP3 PUSH2 0xA1E SWAP2 SWAP1 PUSH2 0x185D JUMP JUMPDEST DUP4 MLOAD LT ISZERO PUSH2 0xA61 JUMPI PUSH1 0x40 MLOAD PUSH32 0x8C379A000000000000000000000000000000000000000000000000000000000 DUP2 MSTORE PUSH1 0x4 ADD PUSH2 0xA58 SWAP1 PUSH2 0x1942 JUMP JUMPDEST PUSH1 0x40 MLOAD DUP1 SWAP2 SUB SWAP1 REVERT JUMPDEST PUSH0 DUP3 PUSH1 0x20 DUP6 ADD ADD MLOAD SWAP1 POP DUP1 SWAP2 POP POP SWAP3 SWAP2 POP POP JUMP JUMPDEST PUSH1 0x1 PUSH0 SWAP1 SLOAD SWAP1 PUSH2 0x100 EXP SWAP1 DIV PUSH20 0xFFFFFFFFFFFFFFFFFFFFFFFFFFFFFFFFFFFFFFFF AND DUP2 JUMP JUMPDEST PUSH0 PUSH1 0x2 PUSH0 DUP4 DUP2 MSTORE PUSH1 0x20 ADD SWAP1 DUP2 MSTORE PUSH1 0x20 ADD PUSH0 KECCAK256 PUSH0 ADD PUSH0 SWAP1 SLOAD SWAP1 PUSH2 0x100 EXP SWAP1 DIV PUSH20 0xFFFFFFFFFFFFFFFFFFFFFFFFFFFFFFFFFFFFFFFF AND SWAP1 POP PUSH0 CALLER SWAP1 POP PUSH0 PUSH1 0x2 PUSH0 DUP6 DUP2 MSTORE PUSH1 0x20 ADD SWAP1 DUP2 MSTORE PUSH1 0x20 ADD PUSH0 KECCAK256 PUSH1 0x2 ADD SLOAD SWAP1 POP PUSH0 DUP1 SLOAD SWAP1 PUSH2 0x100 EXP SWAP1 DIV PUSH20 0xFFFFFFFFFFFFFFFFFFFFFFFFFFFFFFFFFFFFFFFF AND PUSH20 0xFFFFFFFFFFFFFFFFFFFFFFFFFFFFFFFFFFFFFFFF AND PUSH4 0x23B872DD DUP4 DUP6 DUP5 PUSH1 0x40 MLOAD DUP5 PUSH4 0xFFFFFFFF AND PUSH1 0xE0 SHL DUP2 MSTORE PUSH1 0x4 ADD PUSH2 0xB48 SWAP4 SWAP3 SWAP2 SWAP1 PUSH2 0x17BA JUMP JUMPDEST PUSH1 0x20 PUSH1 0x40 MLOAD DUP1 DUP4 SUB DUP2 PUSH0 DUP8 GAS CALL ISZERO DUP1 ISZERO PUSH2 0xB64 JUMPI RETURNDATASIZE PUSH0 DUP1 RETURNDATACOPY RETURNDATASIZE PUSH0 REVERT JUMPDEST POP POP POP POP PUSH1 0x40 MLOAD RETURNDATASIZE PUSH1 0x1F NOT PUSH1 0x1F DUP3 ADD AND DUP3 ADD DUP1 PUSH1 0x40 MSTORE POP DUP2 ADD SWAP1 PUSH2 0xB88 SWAP2 SWAP1 PUSH2 0x198A JUMP JUMPDEST PUSH2 0xBC7 JUMPI PUSH1 0x40 MLOAD PUSH32 0x8C379A000000000000000000000000000000000000000000000000000000000 DUP2 MSTORE PUSH1 0x4 ADD PUSH2 0xBBE SWAP1 PUSH2 0x19FF JUMP JUMPDEST PUSH1 0x40 MLOAD DUP1 SWAP2 SUB SWAP1 REVERT JUMPDEST PUSH1 0x1 PUSH0 SWAP1 SLOAD SWAP1 PUSH2 0x100 EXP SWAP1 DIV PUSH20 0xFFFFFFFFFFFFFFFFFFFFFFFFFFFFFFFFFFFFFFFF AND PUSH20 0xFFFFFFFFFFFFFFFFFFFFFFFFFFFFFFFFFFFFFFFF AND PUSH4 0x42842E0E ADDRESS DUP5 DUP8 PUSH1 0x40 MLOAD DUP5 PUSH4 0xFFFFFFFF AND PUSH1 0xE0 SHL DUP2 MSTORE PUSH1 0x4 ADD PUSH2 0xC25 SWAP4 SWAP3 SWAP2 SWAP1 PUSH2 0x17BA JUMP JUMPDEST PUSH0 PUSH1 0x40 MLOAD DUP1 DUP4 SUB DUP2 PUSH0 DUP8 DUP1 EXTCODESIZE ISZERO DUP1 ISZERO PUSH2 0xC3C JUMPI PUSH0 DUP1 REVERT JUMPDEST POP GAS CALL ISZERO DUP1 ISZERO PUSH2 0xC4E JUMPI RETURNDATASIZE PUSH0 DUP1 RETURNDATACOPY RETURNDATASIZE PUSH0 REVERT JUMPDEST POP POP POP POP PUSH2 0xC5B DUP5 PUSH2 0xDCC JUMP JUMPDEST PUSH32 0x424D5E5F0192C7DACDBE646CA31B00299146D883D76A95EF5CDDBAC7CD342EAB DUP4 DUP4 DUP7 DUP5 PUSH1 0x40 MLOAD PUSH2 0xC90 SWAP5 SWAP4 SWAP3 SWAP2 SWAP1 PUSH2 0x1A1D JUMP JUMPDEST PUSH1 0x40 MLOAD DUP1 SWAP2 SUB SWAP1 LOG1 POP POP POP POP JUMP JUMPDEST PUSH1 0x60 PUSH1 0x3 DUP1 SLOAD DUP1 PUSH1 0x20 MUL PUSH1 0x20 ADD PUSH1 0x40 MLOAD SWAP1 DUP2 ADD PUSH1 0x40 MSTORE DUP1 SWAP3 SWAP2 SWAP1 DUP2 DUP2 MSTORE PUSH1 0x20 ADD PUSH0 SWAP1 JUMPDEST DUP3 DUP3 LT ISZERO PUSH2 0xD59 JUMPI DUP4 DUP3 SWAP1 PUSH0 MSTORE PUSH1 0x20 PUSH0 KECCAK256 SWAP1 PUSH1 0x3 MUL ADD PUSH1 0x40 MLOAD DUP1 PUSH1 0x60 ADD PUSH1 0x40 MSTORE SWAP1 DUP2 PUSH0 DUP3 ADD PUSH0 SWAP1 SLOAD SWAP1 PUSH2 0x100 EXP SWAP1 DIV PUSH20 0xFFFFFFFFFFFFFFFFFFFFFFFFFFFFFFFFFFFFFFFF AND PUSH20 0xFFFFFFFFFFFFFFFFFFFFFFFFFFFFFFFFFFFFFFFF AND PUSH20 0xFFFFFFFFFFFFFFFFFFFFFFFFFFFFFFFFFFFFFFFF AND DUP2 MSTORE PUSH1 0x20 ADD PUSH1 0x1 DUP3 ADD SLOAD DUP2 MSTORE PUSH1 0x20 ADD PUSH1 0x2 DUP3 ADD SLOAD DUP2 MSTORE POP POP DUP2 MSTORE PUSH1 0x20 ADD SWAP1 PUSH1 0x1 ADD SWAP1 PUSH2 0xCC1 JUMP JUMPDEST POP POP POP POP SWAP1 POP SWAP1 JUMP JUMPDEST PUSH0 DUP1 PUSH20 0xFFFFFFFFFFFFFFFFFFFFFFFFFFFFFFFFFFFFFFFF AND PUSH1 0x2 PUSH0 DUP5 DUP2 MSTORE PUSH1 0x20 ADD SWAP1 DUP2 MSTORE PUSH1 0x20 ADD PUSH0 KECCAK256 PUSH0 ADD PUSH0 SWAP1 SLOAD SWAP1 PUSH2 0x100 EXP SWAP1 DIV PUSH20 0xFFFFFFFFFFFFFFFFFFFFFFFFFFFFFFFFFFFFFFFF AND PUSH20 0xFFFFFFFFFFFFFFFFFFFFFFFFFFFFFFFFFFFFFFFF AND EQ ISZERO SWAP1 POP SWAP2 SWAP1 POP JUMP JUMPDEST PUSH0 PUSH1 0x4 PUSH0 DUP4 DUP2 MSTORE PUSH1 0x20 ADD SWAP1 DUP2 MSTORE PUSH1 0x20 ADD PUSH0 KECCAK256 SLOAD SWAP1 POP PUSH0 PUSH1 0x1 PUSH1 0x3 DUP1 SLOAD SWAP1 POP PUSH2 0xDF4 SWAP2 SWAP1 PUSH2 0x16AF JUMP JUMPDEST SWAP1 POP DUP1 DUP3 EQ PUSH2 0xED7 JUMPI PUSH0 PUSH1 0x3 DUP3 DUP2 SLOAD DUP2 LT PUSH2 0xE12 JUMPI PUSH2 0xE11 PUSH2 0x174A JUMP JUMPDEST JUMPDEST SWAP1 PUSH0 MSTORE PUSH1 0x20 PUSH0 KECCAK256 SWAP1 PUSH1 0x3 MUL ADD SWAP1 POP DUP1 PUSH1 0x3 DUP5 DUP2 SLOAD DUP2 LT PUSH2 0xE35 JUMPI PUSH2 0xE34 PUSH2 0x174A JUMP JUMPDEST JUMPDEST SWAP1 PUSH0 MSTORE PUSH1 0x20 PUSH0 KECCAK256 SWAP1 PUSH1 0x3 MUL ADD PUSH0 DUP3 ADD PUSH0 SWAP1 SLOAD SWAP1 PUSH2 0x100 EXP SWAP1 DIV PUSH20 0xFFFFFFFFFFFFFFFFFFFFFFFFFFFFFFFFFFFFFFFF AND DUP2 PUSH0 ADD PUSH0 PUSH2 0x100 EXP DUP2 SLOAD DUP2 PUSH20 0xFFFFFFFFFFFFFFFFFFFFFFFFFFFFFFFFFFFFFFFF MUL NOT AND SWAP1 DUP4 PUSH20 0xFFFFFFFFFFFFFFFFFFFFFFFFFFFFFFFFFFFFFFFF AND MUL OR SWAP1 SSTORE POP PUSH1 0x1 DUP3 ADD SLOAD DUP2 PUSH1 0x1 ADD SSTORE PUSH1 0x2 DUP3 ADD SLOAD DUP2 PUSH1 0x2 ADD SSTORE SWAP1 POP POP DUP3 PUSH1 0x4 PUSH0 DUP4 PUSH1 0x1 ADD SLOAD DUP2 MSTORE PUSH1 0x20 ADD SWAP1 DUP2 MSTORE PUSH1 0x20 ADD PUSH0 KECCAK256 DUP2 SWAP1 SSTORE POP POP JUMPDEST PUSH1 0x3 DUP1 SLOAD DUP1 PUSH2 0xEE9 JUMPI PUSH2 0xEE8 PUSH2 0x1A60 JUMP JUMPDEST JUMPDEST PUSH1 0x1 SWAP1 SUB DUP2 DUP2 SWAP1 PUSH0 MSTORE PUSH1 0x20 PUSH0 KECCAK256 SWAP1 PUSH1 0x3 MUL ADD PUSH0 DUP1 DUP3 ADD PUSH0 PUSH2 0x100 EXP DUP2 SLOAD SWAP1 PUSH20 0xFFFFFFFFFFFFFFFFFFFFFFFFFFFFFFFFFFFFFFFF MUL NOT AND SWAP1 SSTORE PUSH1 0x1 DUP3 ADD PUSH0 SWAP1 SSTORE PUSH1 0x2 DUP3 ADD PUSH0 SWAP1 SSTORE POP POP SWAP1 SSTORE PUSH1 0x2 PUSH0 DUP5 DUP2 MSTORE PUSH1 0x20 ADD SWAP1 DUP2 MSTORE PUSH1 0x20 ADD PUSH0 KECCAK256 PUSH0 DUP1 DUP3 ADD PUSH0 PUSH2 0x100 EXP DUP2 SLOAD SWAP1 PUSH20 0xFFFFFFFFFFFFFFFFFFFFFFFFFFFFFFFFFFFFFFFF MUL NOT AND SWAP1 SSTORE PUSH1 0x1 DUP3 ADD PUSH0 SWAP1 SSTORE PUSH1 0x2 DUP3 ADD PUSH0 SWAP1 SSTORE POP POP PUSH1 0x4 PUSH0 DUP4 DUP2 MSTORE PUSH1 0x20 ADD SWAP1 DUP2 MSTORE PUSH1 0x20 ADD PUSH0 KECCAK256 PUSH0 SWAP1 SSTORE POP POP POP JUMP JUMPDEST PUSH1 0x40 MLOAD DUP1 PUSH1 0x60 ADD PUSH1 0x40 MSTORE DUP1 PUSH0 PUSH20 0xFFFFFFFFFFFFFFFFFFFFFFFFFFFFFFFFFFFFFFFF AND DUP2 MSTORE PUSH1 0x20 ADD PUSH0 DUP2 MSTORE PUSH1 0x20 ADD PUSH0 DUP2 MSTORE POP SWAP1 JUMP JUMPDEST PUSH0 PUSH1 0x40 MLOAD SWAP1 POP SWAP1 JUMP JUMPDEST PUSH0 DUP1 REVERT JUMPDEST PUSH0 DUP1 REVERT JUMPDEST PUSH0 PUSH20 0xFFFFFFFFFFFFFFFFFFFFFFFFFFFFFFFFFFFFFFFF DUP3 AND SWAP1 POP SWAP2 SWAP1 POP JUMP JUMPDEST PUSH0 PUSH2 0x1001 DUP3 PUSH2 0xFD8 JUMP JUMPDEST SWAP1 POP SWAP2 SWAP1 POP JUMP JUMPDEST PUSH2 0x1011 DUP2 PUSH2 0xFF7 JUMP JUMPDEST DUP2 EQ PUSH2 0x101B JUMPI PUSH0 DUP1 REVERT JUMPDEST POP JUMP JUMPDEST PUSH0 DUP2 CALLDATALOAD SWAP1 POP PUSH2 0x102C DUP2 PUSH2 0x1008 JUMP JUMPDEST SWAP3 SWAP2 POP POP JUMP JUMPDEST PUSH0 DUP2 SWAP1 POP SWAP2 SWAP1 POP JUMP JUMPDEST PUSH2 0x1044 DUP2 PUSH2 0x1032 JUMP JUMPDEST DUP2 EQ PUSH2 0x104E JUMPI PUSH0 DUP1 REVERT JUMPDEST POP JUMP JUMPDEST PUSH0 DUP2 CALLDATALOAD SWAP1 POP PUSH2 0x105F DUP2 PUSH2 0x103B JUMP JUMPDEST SWAP3 SWAP2 POP POP JUMP JUMPDEST PUSH0 DUP1 REVERT JUMPDEST PUSH0 DUP1 REVERT JUMPDEST PUSH0 DUP1 REVERT JUMPDEST PUSH0 DUP1 DUP4 PUSH1 0x1F DUP5 ADD SLT PUSH2 0x1086 JUMPI PUSH2 0x1085 PUSH2 0x1065 JUMP JUMPDEST JUMPDEST DUP3 CALLDATALOAD SWAP1 POP PUSH8 0xFFFFFFFFFFFFFFFF DUP2 GT ISZERO PUSH2 0x10A3 JUMPI PUSH2 0x10A2 PUSH2 0x1069 JUMP JUMPDEST JUMPDEST PUSH1 0x20 DUP4 ADD SWAP2 POP DUP4 PUSH1 0x1 DUP3 MUL DUP4 ADD GT ISZERO PUSH2 0x10BF JUMPI PUSH2 0x10BE PUSH2 0x106D JUMP JUMPDEST JUMPDEST SWAP3 POP SWAP3 SWAP1 POP JUMP JUMPDEST PUSH0 DUP1 PUSH0 DUP1 PUSH0 PUSH1 0x80 DUP7 DUP9 SUB SLT ISZERO PUSH2 0x10DF JUMPI PUSH2 0x10DE PUSH2 0xFD0 JUMP JUMPDEST JUMPDEST PUSH0 PUSH2 0x10EC DUP9 DUP3 DUP10 ADD PUSH2 0x101E JUMP JUMPDEST SWAP6 POP POP PUSH1 0x20 PUSH2 0x10FD DUP9 DUP3 DUP10 ADD PUSH2 0x101E JUMP JUMPDEST SWAP5 POP POP PUSH1 0x40 PUSH2 0x110E DUP9 DUP3 DUP10 ADD PUSH2 0x1051 JUMP JUMPDEST SWAP4 POP POP PUSH1 0x60 DUP7 ADD CALLDATALOAD PUSH8 0xFFFFFFFFFFFFFFFF DUP2 GT ISZERO PUSH2 0x112F JUMPI PUSH2 0x112E PUSH2 0xFD4 JUMP JUMPDEST JUMPDEST PUSH2 0x113B DUP9 DUP3 DUP10 ADD PUSH2 0x1071 JUMP JUMPDEST SWAP3 POP SWAP3 POP POP SWAP3 SWAP6 POP SWAP3 SWAP6 SWAP1 SWAP4 POP JUMP JUMPDEST PUSH0 PUSH32 0xFFFFFFFF00000000000000000000000000000000000000000000000000000000 DUP3 AND SWAP1 POP SWAP2 SWAP1 POP JUMP JUMPDEST PUSH2 0x117E DUP2 PUSH2 0x114A JUMP JUMPDEST DUP3 MSTORE POP POP JUMP JUMPDEST PUSH0 PUSH1 0x20 DUP3 ADD SWAP1 POP PUSH2 0x1197 PUSH0 DUP4 ADD DUP5 PUSH2 0x1175 JUMP JUMPDEST SWAP3 SWAP2 POP POP JUMP JUMPDEST PUSH0 DUP1 PUSH1 0x40 DUP4 DUP6 SUB SLT ISZERO PUSH2 0x11B3 JUMPI PUSH2 0x11B2 PUSH2 0xFD0 JUMP JUMPDEST JUMPDEST PUSH0 PUSH2 0x11C0 DUP6 DUP3 DUP7 ADD PUSH2 0x1051 JUMP JUMPDEST SWAP3 POP POP PUSH1 0x20 PUSH2 0x11D1 DUP6 DUP3 DUP7 ADD PUSH2 0x1051 JUMP JUMPDEST SWAP2 POP POP SWAP3 POP SWAP3 SWAP1 POP JUMP JUMPDEST PUSH0 PUSH1 0x20 DUP3 DUP5 SUB SLT ISZERO PUSH2 0x11F0 JUMPI PUSH2 0x11EF PUSH2 0xFD0 JUMP JUMPDEST JUMPDEST PUSH0 PUSH2 0x11FD DUP5 DUP3 DUP6 ADD PUSH2 0x1051 JUMP JUMPDEST SWAP2 POP POP SWAP3 SWAP2 POP POP JUMP JUMPDEST PUSH0 DUP2 MLOAD SWAP1 POP SWAP2 SWAP1 POP JUMP JUMPDEST PUSH0 DUP3 DUP3 MSTORE PUSH1 0x20 DUP3 ADD SWAP1 POP SWAP3 SWAP2 POP POP JUMP JUMPDEST PUSH0 DUP2 SWAP1 POP PUSH1 0x20 DUP3 ADD SWAP1 POP SWAP2 SWAP1 POP JUMP JUMPDEST PUSH2 0x1238 DUP2 PUSH2 0xFF7 JUMP JUMPDEST DUP3 MSTORE POP POP JUMP JUMPDEST PUSH2 0x1247 DUP2 PUSH2 0x1032 JUMP JUMPDEST DUP3 MSTORE POP POP JUMP JUMPDEST PUSH1 0x60 DUP3 ADD PUSH0 DUP3 ADD MLOAD PUSH2 0x1261 PUSH0 DUP6 ADD DUP3 PUSH2 0x122F JUMP JUMPDEST POP PUSH1 0x20 DUP3 ADD MLOAD PUSH2 0x1274 PUSH1 0x20 DUP6 ADD DUP3 PUSH2 0x123E JUMP JUMPDEST POP PUSH1 0x40 DUP3 ADD MLOAD PUSH2 0x1287 PUSH1 0x40 DUP6 ADD DUP3 PUSH2 0x123E JUMP JUMPDEST POP POP POP POP JUMP JUMPDEST PUSH0 PUSH2 0x1298 DUP4 DUP4 PUSH2 0x124D JUMP JUMPDEST PUSH1 0x60 DUP4 ADD SWAP1 POP SWAP3 SWAP2 POP POP JUMP JUMPDEST PUSH0 PUSH1 0x20 DUP3 ADD SWAP1 POP SWAP2 SWAP1 POP JUMP JUMPDEST PUSH0 PUSH2 0x12BA DUP3 PUSH2 0x1206 JUMP JUMPDEST PUSH2 0x12C4 DUP2 DUP6 PUSH2 0x1210 JUMP JUMPDEST SWAP4 POP PUSH2 0x12CF DUP4 PUSH2 0x1220 JUMP JUMPDEST DUP1 PUSH0 JUMPDEST DUP4 DUP2 LT ISZERO PUSH2 0x12FF JUMPI DUP2 MLOAD PUSH2 0x12E6 DUP9 DUP3 PUSH2 0x128D JUMP JUMPDEST SWAP8 POP PUSH2 0x12F1 DUP4 PUSH2 0x12A4 JUMP JUMPDEST SWAP3 POP POP PUSH1 0x1 DUP2 ADD SWAP1 POP PUSH2 0x12D2 JUMP JUMPDEST POP DUP6 SWAP4 POP POP POP POP SWAP3 SWAP2 POP POP JUMP JUMPDEST PUSH0 PUSH1 0x20 DUP3 ADD SWAP1 POP DUP2 DUP2 SUB PUSH0 DUP4 ADD MSTORE PUSH2 0x1324 DUP2 DUP5 PUSH2 0x12B0 JUMP JUMPDEST SWAP1 POP SWAP3 SWAP2 POP POP JUMP JUMPDEST PUSH0 DUP2 SWAP1 POP SWAP2 SWAP1 POP JUMP JUMPDEST PUSH0 PUSH2 0x134F PUSH2 0x134A PUSH2 0x1345 DUP5 PUSH2 0xFD8 JUMP JUMPDEST PUSH2 0x132C JUMP JUMPDEST PUSH2 0xFD8 JUMP JUMPDEST SWAP1 POP SWAP2 SWAP1 POP JUMP JUMPDEST PUSH0 PUSH2 0x1360 DUP3 PUSH2 0x1335 JUMP JUMPDEST SWAP1 POP SWAP2 SWAP1 POP JUMP JUMPDEST PUSH0 PUSH2 0x1371 DUP3 PUSH2 0x1356 JUMP JUMPDEST SWAP1 POP SWAP2 SWAP1 POP JUMP JUMPDEST PUSH2 0x1381 DUP2 PUSH2 0x1367 JUMP JUMPDEST DUP3 MSTORE POP POP JUMP JUMPDEST PUSH0 PUSH1 0x20 DUP3 ADD SWAP1 POP PUSH2 0x139A PUSH0 DUP4 ADD DUP5 PUSH2 0x1378 JUMP JUMPDEST SWAP3 SWAP2 POP POP JUMP JUMPDEST PUSH2 0x13A9 DUP2 PUSH2 0x1032 JUMP JUMPDEST DUP3 MSTORE POP POP JUMP JUMPDEST PUSH0 PUSH1 0x20 DUP3 ADD SWAP1 POP PUSH2 0x13C2 PUSH0 DUP4 ADD DUP5 PUSH2 0x13A0 JUMP JUMPDEST SWAP3 SWAP2 POP POP JUMP JUMPDEST PUSH2 0x13D1 DUP2 PUSH2 0xFF7 JUMP JUMPDEST DUP3 MSTORE POP POP JUMP JUMPDEST PUSH0 PUSH1 0x60 DUP3 ADD SWAP1 POP PUSH2 0x13EA PUSH0 DUP4 ADD DUP7 PUSH2 0x13C8 JUMP JUMPDEST PUSH2 0x13F7 PUSH1 0x20 DUP4 ADD DUP6 PUSH2 0x13A0 JUMP JUMPDEST PUSH2 0x1404 PUSH1 0x40 DUP4 ADD DUP5 PUSH2 0x13A0 JUMP JUMPDEST SWAP5 SWAP4 POP POP POP POP JUMP JUMPDEST PUSH0 DUP1 REVERT JUMPDEST PUSH0 PUSH1 0x1F NOT PUSH1 0x1F DUP4 ADD AND SWAP1 POP SWAP2 SWAP1 POP JUMP JUMPDEST PUSH32 0x4E487B7100000000000000000000000000000000000000000000000000000000 PUSH0 MSTORE PUSH1 0x41 PUSH1 0x4 MSTORE PUSH1 0x24 PUSH0 REVERT JUMPDEST PUSH2 0x1456 DUP3 PUSH2 0x1410 JUMP JUMPDEST DUP2 ADD DUP2 DUP2 LT PUSH8 0xFFFFFFFFFFFFFFFF DUP3 GT OR ISZERO PUSH2 0x1475 JUMPI PUSH2 0x1474 PUSH2 0x1420 JUMP JUMPDEST JUMPDEST DUP1 PUSH1 0x40 MSTORE POP POP POP JUMP JUMPDEST PUSH0 PUSH2 0x1487 PUSH2 0xFC7 JUMP JUMPDEST SWAP1 POP PUSH2 0x1493 DUP3 DUP3 PUSH2 0x144D JUMP JUMPDEST SWAP2 SWAP1 POP JUMP JUMPDEST PUSH0 PUSH8 0xFFFFFFFFFFFFFFFF DUP3 GT ISZERO PUSH2 0x14B2 JUMPI PUSH2 0x14B1 PUSH2 0x1420 JUMP JUMPDEST JUMPDEST PUSH2 0x14BB DUP3 PUSH2 0x1410 JUMP JUMPDEST SWAP1 POP PUSH1 0x20 DUP2 ADD SWAP1 POP SWAP2 SWAP1 POP JUMP JUMPDEST DUP3 DUP2 DUP4 CALLDATACOPY PUSH0 DUP4 DUP4 ADD MSTORE POP POP POP JUMP JUMPDEST PUSH0 PUSH2 0x14E8 PUSH2 0x14E3 DUP5 PUSH2 0x1498 JUMP JUMPDEST PUSH2 0x147E JUMP JUMPDEST SWAP1 POP DUP3 DUP2 MSTORE PUSH1 0x20 DUP2 ADD DUP5 DUP5 DUP5 ADD GT ISZERO PUSH2 0x1504 JUMPI PUSH2 0x1503 PUSH2 0x140C JUMP JUMPDEST JUMPDEST PUSH2 0x150F DUP5 DUP3 DUP6 PUSH2 0x14C8 JUMP JUMPDEST POP SWAP4 SWAP3 POP POP POP JUMP JUMPDEST PUSH0 DUP3 PUSH1 0x1F DUP4 ADD SLT PUSH2 0x152B JUMPI PUSH2 0x152A PUSH2 0x1065 JUMP JUMPDEST JUMPDEST DUP2 CALLDATALOAD PUSH2 0x153B DUP5 DUP3 PUSH1 0x20 DUP7 ADD PUSH2 0x14D6 JUMP JUMPDEST SWAP2 POP POP SWAP3 SWAP2 POP POP JUMP JUMPDEST PUSH0 DUP1 PUSH1 0x40 DUP4 DUP6 SUB SLT ISZERO PUSH2 0x155A JUMPI PUSH2 0x1559 PUSH2 0xFD0 JUMP JUMPDEST JUMPDEST PUSH0 DUP4 ADD CALLDATALOAD PUSH8 0xFFFFFFFFFFFFFFFF DUP2 GT ISZERO PUSH2 0x1577 JUMPI PUSH2 0x1576 PUSH2 0xFD4 JUMP JUMPDEST JUMPDEST PUSH2 0x1583 DUP6 DUP3 DUP7 ADD PUSH2 0x1517 JUMP JUMPDEST SWAP3 POP POP PUSH1 0x20 PUSH2 0x1594 DUP6 DUP3 DUP7 ADD PUSH2 0x1051 JUMP JUMPDEST SWAP2 POP POP SWAP3 POP SWAP3 SWAP1 POP JUMP JUMPDEST PUSH0 PUSH2 0x15A8 DUP3 PUSH2 0x1356 JUMP JUMPDEST SWAP1 POP SWAP2 SWAP1 POP JUMP JUMPDEST PUSH2 0x15B8 DUP2 PUSH2 0x159E JUMP JUMPDEST DUP3 MSTORE POP POP JUMP JUMPDEST PUSH0 PUSH1 0x20 DUP3 ADD SWAP1 POP PUSH2 0x15D1 PUSH0 DUP4 ADD DUP5 PUSH2 0x15AF JUMP JUMPDEST SWAP3 SWAP2 POP POP JUMP JUMPDEST PUSH0 DUP2 ISZERO ISZERO SWAP1 POP SWAP2 SWAP1 POP JUMP JUMPDEST PUSH2 0x15EB DUP2 PUSH2 0x15D7 JUMP JUMPDEST DUP3 MSTORE POP POP JUMP JUMPDEST PUSH0 PUSH1 0x20 DUP3 ADD SWAP1 POP PUSH2 0x1604 PUSH0 DUP4 ADD DUP5 PUSH2 0x15E2 JUMP JUMPDEST SWAP3 SWAP2 POP POP JUMP JUMPDEST PUSH0 DUP3 DUP3 MSTORE PUSH1 0x20 DUP3 ADD SWAP1 POP SWAP3 SWAP2 POP POP JUMP JUMPDEST PUSH32 0x7072696365206D7573742062652067726561746572207468616E203000000000 PUSH0 DUP3 ADD MSTORE POP JUMP JUMPDEST PUSH0 PUSH2 0x164E PUSH1 0x1C DUP4 PUSH2 0x160A JUMP JUMPDEST SWAP2 POP PUSH2 0x1659 DUP3 PUSH2 0x161A JUMP JUMPDEST PUSH1 0x20 DUP3 ADD SWAP1 POP SWAP2 SWAP1 POP JUMP JUMPDEST PUSH0 PUSH1 0x20 DUP3 ADD SWAP1 POP DUP2 DUP2 SUB PUSH0 DUP4 ADD MSTORE PUSH2 0x167B DUP2 PUSH2 0x1642 JUMP JUMPDEST SWAP1 POP SWAP2 SWAP1 POP JUMP JUMPDEST PUSH32 0x4E487B7100000000000000000000000000000000000000000000000000000000 PUSH0 MSTORE PUSH1 0x11 PUSH1 0x4 MSTORE PUSH1 0x24 PUSH0 REVERT JUMPDEST PUSH0 PUSH2 0x16B9 DUP3 PUSH2 0x1032 JUMP JUMPDEST SWAP2 POP PUSH2 0x16C4 DUP4 PUSH2 0x1032 JUMP JUMPDEST SWAP3 POP DUP3 DUP3 SUB SWAP1 POP DUP2 DUP2 GT ISZERO PUSH2 0x16DC JUMPI PUSH2 0x16DB PUSH2 0x1682 JUMP JUMPDEST JUMPDEST SWAP3 SWAP2 POP POP JUMP JUMPDEST PUSH32 0x6E6F742073656C6C657200000000000000000000000000000000000000000000 PUSH0 DUP3 ADD MSTORE POP JUMP JUMPDEST PUSH0 PUSH2 0x1716 PUSH1 0xA DUP4 PUSH2 0x160A JUMP JUMPDEST SWAP2 POP PUSH2 0x1721 DUP3 PUSH2 0x16E2 JUMP JUMPDEST PUSH1 0x20 DUP3 ADD SWAP1 POP SWAP2 SWAP1 POP JUMP JUMPDEST PUSH0 PUSH1 0x20 DUP3 ADD SWAP1 POP DUP2 DUP2 SUB PUSH0 DUP4 ADD MSTORE PUSH2 0x1743 DUP2 PUSH2 0x170A JUMP JUMPDEST SWAP1 POP SWAP2 SWAP1 POP JUMP JUMPDEST PUSH32 0x4E487B7100000000000000000000000000000000000000000000000000000000 PUSH0 MSTORE PUSH1 0x32 PUSH1 0x4 MSTORE PUSH1 0x24 PUSH0 REVERT JUMPDEST PUSH0 PUSH1 0x80 DUP3 ADD SWAP1 POP PUSH2 0x178A PUSH0 DUP4 ADD DUP8 PUSH2 0x13C8 JUMP JUMPDEST PUSH2 0x1797 PUSH1 0x20 DUP4 ADD DUP7 PUSH2 0x13A0 JUMP JUMPDEST PUSH2 0x17A4 PUSH1 0x40 DUP4 ADD DUP6 PUSH2 0x13A0 JUMP JUMPDEST PUSH2 0x17B1 PUSH1 0x60 DUP4 ADD DUP5 PUSH2 0x13A0 JUMP JUMPDEST SWAP6 SWAP5 POP POP POP POP POP JUMP JUMPDEST PUSH0 PUSH1 0x60 DUP3 ADD SWAP1 POP PUSH2 0x17CD PUSH0 DUP4 ADD DUP7 PUSH2 0x13C8 JUMP JUMPDEST PUSH2 0x17DA PUSH1 0x20 DUP4 ADD DUP6 PUSH2 0x13C8 JUMP JUMPDEST PUSH2 0x17E7 PUSH1 0x40 DUP4 ADD DUP5 PUSH2 0x13A0 JUMP JUMPDEST SWAP5 SWAP4 POP POP POP POP JUMP JUMPDEST PUSH0 PUSH1 0x40 DUP3 ADD SWAP1 POP PUSH2 0x1802 PUSH0 DUP4 ADD DUP6 PUSH2 0x13C8 JUMP JUMPDEST PUSH2 0x180F PUSH1 0x20 DUP4 ADD DUP5 PUSH2 0x13A0 JUMP JUMPDEST SWAP4 SWAP3 POP POP POP JUMP JUMPDEST PUSH0 PUSH2 0x1820 DUP3 PUSH2 0x1032 JUMP JUMPDEST SWAP2 POP PUSH32 0xFFFFFFFFFFFFFFFFFFFFFFFFFFFFFFFFFFFFFFFFFFFFFFFFFFFFFFFFFFFFFFFF DUP3 SUB PUSH2 0x1852 JUMPI PUSH2 0x1851 PUSH2 0x1682 JUMP JUMPDEST JUMPDEST PUSH1 0x1 DUP3 ADD SWAP1 POP SWAP2 SWAP1 POP JUMP JUMPDEST PUSH0 PUSH2 0x1867 DUP3 PUSH2 0x1032 JUMP JUMPDEST SWAP2 POP PUSH2 0x1872 DUP4 PUSH2 0x1032 JUMP JUMPDEST SWAP3 POP DUP3 DUP3 ADD SWAP1 POP DUP1 DUP3 GT ISZERO PUSH2 0x188A JUMPI PUSH2 0x1889 PUSH2 0x1682 JUMP JUMPDEST JUMPDEST SWAP3 SWAP2 POP POP JUMP JUMPDEST PUSH32 0x4D61726B65743A746F55696E743235365F6F766572666C6F7700000000000000 PUSH0 DUP3 ADD MSTORE POP JUMP JUMPDEST PUSH0 PUSH2 0x18C4 PUSH1 0x19 DUP4 PUSH2 0x160A JUMP JUMPDEST SWAP2 POP PUSH2 0x18CF DUP3 PUSH2 0x1890 JUMP JUMPDEST PUSH1 0x20 DUP3 ADD SWAP1 POP SWAP2 SWAP1 POP JUMP JUMPDEST PUSH0 PUSH1 0x20 DUP3 ADD SWAP1 POP DUP2 DUP2 SUB PUSH0 DUP4 ADD MSTORE PUSH2 0x18F1 DUP2 PUSH2 0x18B8 JUMP JUMPDEST SWAP1 POP SWAP2 SWAP1 POP JUMP JUMPDEST PUSH32 0x746F55696E743235365F6F75744F66426F756E64730000000000000000000000 PUSH0 DUP3 ADD MSTORE POP JUMP JUMPDEST PUSH0 PUSH2 0x192C PUSH1 0x15 DUP4 PUSH2 0x160A JUMP JUMPDEST SWAP2 POP PUSH2 0x1937 DUP3 PUSH2 0x18F8 JUMP JUMPDEST PUSH1 0x20 DUP3 ADD SWAP1 POP SWAP2 SWAP1 POP JUMP JUMPDEST PUSH0 PUSH1 0x20 DUP3 ADD SWAP1 POP DUP2 DUP2 SUB PUSH0 DUP4 ADD MSTORE PUSH2 0x1959 DUP2 PUSH2 0x1920 JUMP JUMPDEST SWAP1 POP SWAP2 SWAP1 POP JUMP JUMPDEST PUSH2 0x1969 DUP2 PUSH2 0x15D7 JUMP JUMPDEST DUP2 EQ PUSH2 0x1973 JUMPI PUSH0 DUP1 REVERT JUMPDEST POP JUMP JUMPDEST PUSH0 DUP2 MLOAD SWAP1 POP PUSH2 0x1984 DUP2 PUSH2 0x1960 JUMP JUMPDEST SWAP3 SWAP2 POP POP JUMP JUMPDEST PUSH0 PUSH1 0x20 DUP3 DUP5 SUB SLT ISZERO PUSH2 0x199F JUMPI PUSH2 0x199E PUSH2 0xFD0 JUMP JUMPDEST JUMPDEST PUSH0 PUSH2 0x19AC DUP5 DUP3 DUP6 ADD PUSH2 0x1976 JUMP JUMPDEST SWAP2 POP POP SWAP3 SWAP2 POP POP JUMP JUMPDEST PUSH32 0x7472616E73666572206661696C00000000000000000000000000000000000000 PUSH0 DUP3 ADD MSTORE POP JUMP JUMPDEST PUSH0 PUSH2 0x19E9 PUSH1 0xD DUP4 PUSH2 0x160A JUMP JUMPDEST SWAP2 POP PUSH2 0x19F4 DUP3 PUSH2 0x19B5 JUMP JUMPDEST PUSH1 0x20 DUP3 ADD SWAP1 POP SWAP2 SWAP1 POP JUMP JUMPDEST PUSH0 PUSH1 0x20 DUP3 ADD SWAP1 POP DUP2 DUP2 SUB PUSH0 DUP4 ADD MSTORE PUSH2 0x1A16 DUP2 PUSH2 0x19DD JUMP JUMPDEST SWAP1 POP SWAP2 SWAP1 POP JUMP JUMPDEST PUSH0 PUSH1 0x80 DUP3 ADD SWAP1 POP PUSH2 0x1A30 PUSH0 DUP4 ADD DUP8 PUSH2 0x13C8 JUMP JUMPDEST PUSH2 0x1A3D PUSH1 0x20 DUP4 ADD DUP7 PUSH2 0x13C8 JUMP JUMPDEST PUSH2 0x1A4A PUSH1 0x40 DUP4 ADD DUP6 PUSH2 0x13A0 JUMP JUMPDEST PUSH2 0x1A57 PUSH1 0x60 DUP4 ADD DUP5 PUSH2 0x13A0 JUMP JUMPDEST SWAP6 SWAP5 POP POP POP POP POP JUMP JUMPDEST PUSH32 0x4E487B7100000000000000000000000000000000000000000000000000000000 PUSH0 MSTORE PUSH1 0x31 PUSH1 0x4 MSTORE PUSH1 0x24 PUSH0 REVERT INVALID LOG2 PUSH5 0x6970667358 0x22 SLT KECCAK256 DUP7 0xA6 0xC7 PUSH9 0x910D4C16F0C16C8B82 PUSH3 0xD052E8 PUSH12 0x3C0DEF3D50E8CC7E1F892353 0xCB 0xFB PUSH5 0x736F6C6343 STOP ADDMOD BYTE STOP CALLER "
				},
				"gasEstimates": {
					"creation": {
						"codeDepositCost": "1370200",
						"executionCost": "infinite",
						"totalCost": "infinite"
					},
					"external": {
						"buy(uint256)": "infinite",
						"cancel(uint256)": "infinite",
						"change(uint256,uint256)": "infinite",
						"erc20()": "infinite",
						"erc721()": "infinite",
						"getAllNFTs()": "infinite",
						"getMyNFTs()": "infinite",
						"getOrderLength()": "2551",
						"isListed(uint256)": "2946",
						"onERC721Received(address,address,uint256,bytes)": "infinite",
						"orders(uint256)": "infinite",
						"toUint256(bytes,uint256)": "infinite"
					},
					"internal": {
						"removeOrder(uint256)": "infinite"
					}
				},
				"methodIdentifiers": {
					"buy(uint256)": "d96a094a",
					"cancel(uint256)": "40e58ee5",
					"change(uint256,uint256)": "3a52c7c2",
					"erc20()": "785e9e86",
					"erc721()": "bca6ce64",
					"getAllNFTs()": "e0391b09",
					"getMyNFTs()": "629cb2e4",
					"getOrderLength()": "9d4971b7",
					"isListed(uint256)": "fcce4883",
					"onERC721Received(address,address,uint256,bytes)": "150b7a02",
					"orders(uint256)": "a85c38ef",
					"toUint256(bytes,uint256)": "b5cdf924"
				}
			},
			"storageLayout": {
				"storage": [
					{
						"astId": 3414,
						"contract": "src/NFTmarket.sol:NFTmarket",
						"label": "erc20",
						"offset": 0,
						"slot": "0",
						"type": "t_contract(IERC20)729"
					},
					{
						"astId": 3417,
						"contract": "src/NFTmarket.sol:NFTmarket",
						"label": "erc721",
						"offset": 0,
						"slot": "1",
						"type": "t_contract(IERC721)1881"
					},
					{
						"astId": 3432,
						"contract": "src/NFTmarket.sol:NFTmarket",
						"label": "IDinOrder",
						"offset": 0,
						"slot": "2",
						"type": "t_mapping(t_uint256,t_struct(Order)3427_storage)"
					},
					{
						"astId": 3436,
						"contract": "src/NFTmarket.sol:NFTmarket",
						"label": "orders",
						"offset": 0,
						"slot": "3",
						"type": "t_array(t_struct(Order)3427_storage)dyn_storage"
					},
					{
						"astId": 3440,
						"contract": "src/NFTmarket.sol:NFTmarket",
						"label": "IDofOrder",
						"offset": 0,
						"slot": "4",
						"type": "t_mapping(t_uint256,t_uint256)"
					}
				],
				"types": {
					"t_address": {
						"encoding": "inplace",
						"label": "address",
						"numberOfBytes": "20"
					},
					"t_array(t_struct(Order)3427_storage)dyn_storage": {
						"base": "t_struct(Order)3427_storage",
						"encoding": "dynamic_array",
						"label": "struct NFTmarket.Order[]",
						"numberOfBytes": "32"
					},
					"t_contract(IERC20)729": {
						"encoding": "inplace",
						"label": "contract IERC20",
						"numberOfBytes": "20"
					},
					"t_contract(IERC721)1881": {
						"encoding": "inplace",
						"label": "contract IERC721",
						"numberOfBytes": "20"
					},
					"t_mapping(t_uint256,t_struct(Order)3427_storage)": {
						"encoding": "mapping",
						"key": "t_uint256",
						"label": "mapping(uint256 => struct NFTmarket.Order)",
						"numberOfBytes": "32",
						"value": "t_struct(Order)3427_storage"
					},
					"t_mapping(t_uint256,t_uint256)": {
						"encoding": "mapping",
						"key": "t_uint256",
						"label": "mapping(uint256 => uint256)",
						"numberOfBytes": "32",
						"value": "t_uint256"
					},
					"t_struct(Order)3427_storage": {
						"encoding": "inplace",
						"label": "struct NFTmarket.Order",
						"members": [
							{
								"astId": 3422,
								"contract": "src/NFTmarket.sol:NFTmarket",
								"label": "seller",
								"offset": 0,
								"slot": "0",
								"type": "t_address"
							},
							{
								"astId": 3424,
								"contract": "src/NFTmarket.sol:NFTmarket",
								"label": "tokenID",
								"offset": 0,
								"slot": "1",
								"type": "t_uint256"
							},
							{
								"astId": 3426,
								"contract": "src/NFTmarket.sol:NFTmarket",
								"label": "price",
								"offset": 0,
								"slot": "2",
								"type": "t_uint256"
							}
						],
						"numberOfBytes": "96"
					},
					"t_uint256": {
						"encoding": "inplace",
						"label": "uint256",
						"numberOfBytes": "32"
					}
				}
			},
			"userdoc": {
				"kind": "user",
				"methods": {},
				"version": 1
			}
		}
	}
}